:020000040800F2
:1000000038040020050100080D030008D90200088B
:10001000090300087D0100084309000800000000F2
:100020000000000000000000000000008D04000837
:10003000810100080000000095030008E5050008A4
:100040001F0100081F0100081F0100081F01000810
:100050001F0100081F0100081F0100081F01000800
:100060001F0100081F0100081F0100081F010008F0
:100070001F0100081F0100081F0100081F010008E0
:100080001F0100081F0100081F0100081F010008D0
:100090001F0100081F0100081F0100081F010008C0
:1000A0001F0100081F0100081F0100081F010008B0
:1000B0001F0100081F0100081F0100081F010008A0
:1000C0001F0100081F0100081F0100081F01000890
:1000D0001F0100080D0700081F0100081F0100088C
:1000E0001F0100081F0100081F010008DFF810D0E1
:1000F00000F01AF800480047CD090008AFF300806F
:10010000380400200648804706480047FEE7FEE71F
:10011000FEE7FEE7FEE7FEE7FEE7FEE7FEE7FEE7B7
:10012000FD050008ED000008064C074D06E0E068FC
:1001300040F0010394E8070098471034AC42F6D32E
:10014000FFF7D8FFF4090008140A000810B50022D0
:100150004FF40051074800F0BAF844F6206000F070
:1001600011F801225103034800F0B1F8024800F0F1
:1001700009F810BD0010014040420F0000BFFEE72B
:10018000704700000B4908604FF0E021096941F019
:1001900001014FF0E022116100BF06490968002902
:1001A000FBD14FF0E021096921F001014FF0E0227D
:1001B00011617047180000202DE9F041024600252A
:1001C0000026002000230024002791F803C00CF033
:1001D0000F0591F803C00CF0100CBCF1000F03D018
:1001E00091F802C04CEA050591F800C0BCF1000F7F
:1001F00031D0146800202BE04FF0010C0CFA00F312
:10020000B1F800C00CEA03069E4220D183004FF0F3
:100210000F0C0CFA03F7BC4305FA03FC4CEA040488
:1002200091F803C0BCF1280F06D14FF0010C0CFA75
:1002300000FCC2F814C00AE091F803C0BCF1480FFA
:1002400005D14FF0010C0CFA00FCC2F810C0401CA4
:100250000828D1D31460B1F800C0BCF1FF0F34DD21
:10026000546800202EE000F1080C4FF0010808FA55
:100270000CF3B1F800C00CEA03069E4221D18300C2
:100280004FF00F0C0CFA03F7BC4305FA03FC4CEAE1
:10029000040491F803C0BCF1280F05D100F1080C4B
:1002A00008FA0CF8C2F8148091F803C0BCF1480FAA
:1002B00007D100F1080C4FF0010808FA0CF8C2F859
:1002C0001080401C0828CED35460BDE8F0810AB1EC
:1002D000016100E04161704700BFFEE708B5012100
:1002E000102000F059F84FF40050ADF80000102035
:1002F0008DF8030003208DF8020069460148FFF7DE
:100300005BFF08BD0010014000BFFEE77047000022
:1003100070B5002100230F22C47804B3154C246863
:1003200004F4E064C4F5E064210AC1F10403CA40A6
:10033000447804FA03F184781440214309010E4CF7
:100340000678A155047804F01F050124AC40057817
:100350006D11AD0005F1E025C5F8004109E0047814
:1003600004F01F050124AC40044D0678761145F8D1
:10037000264070BD0CED00E000E400E080E100E00C
:1003800002490143024A1160704700000000FA056B
:100390000CED00E07047000029B1064A9269024363
:1003A000044B9A6104E0034A92698243014B9A61CB
:1003B000704700000010024030B5002100220024E8
:1003C00000232D4D6D6805F00C0121B1042905D0E5
:1003D000082923D105E0294D056022E0274D05605D
:1003E0001FE0254D6D6805F47012234D6D6805F40E
:1003F0008034022505EB92421CB9214D554305601E
:100400000BE01D4D6D6805F400351DB11C4D5543C5
:10041000056002E0194D5543056002E0174D056087
:1004200000BF00BF144D6D6805F0F0010909154DBE
:100430006B5C0568DD4045600F4D6D6805F4E0615B
:10044000090A104D6B5C4568DD4085600A4D6D689A
:1004500005F46051C90A0B4D6B5C4568DD40C56011
:10046000054D6D6805F44041890B074D6B5CC5680F
:10047000B5FBF3F5056130BD0010024000127A00B3
:1004800000093D000000002010000020704710B55A
:1004900000F002F810BD00000CB5002001900090A3
:1004A0003348006840F480303149086000BF30486C
:1004B000006800F4003000900198401C0190009802
:1004C00018B90198B0F5A06FF1D12948006800F47F
:1004D000003010B10120009001E000200090009851
:1004E000012843D12348006840F0100021490860EA
:1004F0000846006820F0070008600846006840F0E1
:10050000020008601A484068194948600846406877
:1005100048600846406840F480604860084640688B
:1005200020F47C1048600846406840F4E8104860B9
:100530000846006840F08070086000BF0C48006802
:1005400000F000700028F9D00948406820F003004E
:10055000074948600846406840F00200486000BF14
:100560000348406800F00C000828F9D10CBD0000D9
:10057000001002400020024030B500BF4821B1F118
:10058000807F01D301201DE021F07F40401E4FF00D
:10059000E022506150170F22002807DA13071D0EC2
:1005A0000E4B00F00F04241F1D5503E013071C0E13
:1005B0000B4B1C5400BF00204FF0E022906107203D
:1005C000106100200028D9D14FF0E020006920F010
:1005D00001004FF0E021086130BD000018ED00E09F
:1005E00000E400E00448006820B103480068401EB1
:1005F00001490860704700001800002010B513483A
:10060000006840F001001149086008464068104940
:1006100008400E494860084600680E4908400B49EA
:1006200008600846006820F480200860084640689A
:1006300020F4FE0048604FF41F008860FFF727FF9A
:100640004FF000600449086010BD00000010024037
:100650000000FFF8FFFFF6FE08ED00E010B586B0E1
:100660000446012144F20400FFF796FE4FF40070A7
:10067000ADF8140003208DF8160018208DF817002F
:1006800005A92048FFF798FD4FF48060ADF81400ED
:1006900003208DF8160004208DF8170005A91948CD
:1006A000FFF78AFD01940020ADF810000C20ADF892
:1006B0000E000020ADF80C00ADF80A00ADF80800FF
:1006C00001A9114800F0C8F84FF4E060FFF758FEA8
:1006D00025208DF8000000208DF801008DF8020023
:1006E00001208DF803006846FFF712FE012240F258
:1006F0002551054800F08AF80121034800F043F82D
:1007000006B010BD000801400038014010B540F2AD
:100710002551124800F050F8F8B112E00F4800F0EF
:1007200007F9C4B221460D4800F007F9AA2C08D1F8
:100730000B48046001200B4908602146074800F07F
:10074000FCF82021054800F02AF80128E6D040F204
:100750002551024800F008F800BF10BD00380140E4
:10076000200000201400002010B50022002340F6D5
:100770006A14A14200D100BF0A1201249440A3B21E
:10078000DC43048010BD21B1828942F40052828191
:1007900004E082894DF6FF731A4082817047024659
:1007A0000020B1F5007F00D100BF13880B400BB1D2
:1007B000012000E00020704770B5024600240023AD
:1007C0000025002040F66A16B14200D100BFC1F3F7
:1007D000421501F01F03012606FA03F3012D02D191
:1007E0009689334006E0022D02D1168A334001E09B
:1007F000968A33400C12012606FA04F41688344017
:1008000013B10CB1012000E0002070BDF0B503462B
:10081000002400260025002040F66A17B94200D1C6
:1008200000BF1846C1F3421401F01F06012707FA62
:1008300006F5012C01D10C3004E0022C01D110305E
:1008400000E014301AB107682F43076002E0076820
:10085000AF430760F0BD00002DE9F04786B00546C4
:100860000E460024A24600BFA1460027B08900B171
:1008700000BF2F462C8A4CF6FF700440F0880443DA
:100880002C82AC894EF6F3100440B08831890843BD
:10089000718908430443AC81AC8A4FF6FF400440A1
:1008A000B0890443AC8201A8FFF786FD1F48874248
:1008B00002D1DDF810A001E0DDF80CA0A88900F459
:1008C000004040B10AEBCA0000EB0A103168490051
:1008D000B0FBF1F807E00AEBCA0000EB0A10316840
:1008E0008900B0FBF1F86420B8FBF0F004012009A6
:1008F000642101FB1089A88900F4004040B1322036
:1009000000EBC900B0FBF1F000F00700044308E081
:10091000322000EB09106421B0FBF1F000F00F0071
:1009200004432C8106B0BDE8F08700000038014088
:1009300001468888C0F308007047C1F3080282802E
:10094000704700BFFEE70000014A024900F013B8FB
:10095000990900081C00002002E008C8121F08C105
:10096000002AFAD170477047002001E001C1121F30
:10097000002AFBD170472DE9F04116460F46044688
:10098000002503E03946B047641C6D1C2078002820
:10099000F8D12846BDE8F08170B504460D4600BF89
:1009A00080210948FFF7FBFE0128F9D1A1B20648D2
:1009B000FFF7C3FF00BF40210348FFF7F0FE012807
:1009C000F9D1002070BD000000380140FFF7D4FDD0
:1009D000FFF784FC4FF4E130FFF740FE04E0FFF73F
:1009E000B5FB02A0FFF7B0FFF9E7000055534152F5
:1009F00054310A00140A0008000000202000000002
:100A000058090008340A00082000002018040000DB
:100A10006809000800000000010203040102030449
:100A20000607080902040608000000000000000094
:040A300000000000C2
:04000005080000ED02
:00000001FF
