:020000040800F2
:1000000080080020C9010008FB030008F303000872
:10001000F703000883020008E10700080000000061
:100020000000000000000000000000004104000883
:100030008702000800000000FD0300089905000881
:10004000E3010008E3010008E3010008E301000800
:10005000E3010008E3010008E3010008E3010008F0
:10006000E3010008E3010008E3010008E3010008E0
:10007000E3010008E3010008E3010008E3010008D0
:10008000E3010008E3010008E3010008E3010008C0
:10009000E3010008E3010008E3010008E3010008B0
:1000A000E3010008E3010008E3010008E3010008A0
:1000B000E3010008E3010008E3010008E301000890
:1000C000E3010008E3010008E3010008E301000880
:1000D000E3010008E3010008E3010008E301000870
:1000E000E3010008E3010008E301000800F002F862
:1000F00000F05AF80AA090E8000C82448344AAF168
:100100000107DA4501D100F04FF8AFF2090EBAE865
:100110000F0013F0010F18BFFB1A43F0010318473B
:1001200024070000440700000A444FF0000C10F8B8
:10013000013B13F0070408BF10F8014B1D1108BF65
:1001400010F8015B641E05D010F8016B641E01F805
:10015000016BF9D113F0080F1EBF10F8014BAD1C55
:100160000C1B09D16D1E58BF01F801CBFAD505E073
:1001700014F8016B01F8016B6D1EF9D59142D6D3CD
:10018000704700000023002400250026103A28BFF5
:1001900078C1FBD8520728BF30C148BF0B607047F9
:1001A0001FB51FBD10B510BD00F031F81146FFF7A7
:1001B000F7FF00F017FB00F04FF803B4FFF7F2FF72
:1001C00003BC00F057F80000094880470948004781
:1001D000FEE7FEE7FEE7FEE7FEE7FEE7FEE7FEE7F7
:1001E000FEE7FEE704480549054A064B7047000054
:1001F000B1050008ED000008800200208008002002
:1002000080040020800400207047704770477546C6
:1002100000F02CF8AE4605006946534620F0070072
:10022000854618B020B5FFF7DDFFBDE820404FF050
:1002300000064FF000074FF000084FF0000B21F0D0
:100240000701AC46ACE8C009ACE8C009ACE8C0099D
:10025000ACE8C0098D46704710B50446AFF3008086
:100260002046BDE81040FFF7A8BF000000487047D7
:100270002002002001491820ABBEFEE72600020044
:10028000704700BFFEE770470B4908604FF0E02160
:10029000096941F001014FF0E022116100BF0649F8
:1002A00009680029FBD14FF0E021096921F0010123
:1002B0004FF0E02211617047000000200146054A1E
:1002C000B2FBF1F0044B1880C0F34F02024B103325
:1002D0001A80704740420F002C0800402DE9F04181
:1002E000024600250026002000230024002791F864
:1002F00003C00CF00F0591F803C00CF0100CBCF11A
:10030000000F03D091F802C04CEA050591F800C037
:10031000BCF1000F31D0146800202BE04FF0010C2D
:100320000CFA00F3B1F800C00CEA03069E4220D19B
:1003300083004FF00F0C0CFA03F7BC4305FA03FCE3
:100340004CEA040491F803C0BCF1280F06D14FF029
:10035000010C0CFA00FCC2F814C00AE091F803C0CA
:10036000BCF1480F05D14FF0010C0CFA00FCC2F8AB
:1003700010C0401C0828D1D31460B1F800C0BCF1F3
:10038000FF0F34DD546800202EE000F1080C4FF020
:10039000010808FA0CF3B1F800C00CEA03069E420B
:1003A00021D183004FF00F0C0CFA03F7BC4305FA80
:1003B00003FC4CEA040491F803C0BCF1280F05D1FA
:1003C00000F1080C08FA0CF8C2F8148091F803C088
:1003D000BCF1480F07D100F1080C4FF0010808FAF2
:1003E0000CF8C2F81080401C0828CED35460BDE839
:1003F000F08100BFFEE700BFFEE7704770470000D6
:1004000029B1064AD2690243044BDA6104E0034A87
:10041000D2698243014BDA6170470000001002404C
:1004200029B1064A92690243044B9A6104E0034AE7
:1004300092698243014B9A617047000000100240AC
:10044000704710B500F002F810BD00000CB5002098
:10045000019000903348006840F4803031490860D2
:1004600000BF3048006800F4003000900198401C44
:100470000190009818B90198B0F5A06FF1D1294802
:10048000006800F4003010B10120009001E000206D
:1004900000900098012843D12348006840F01000E4
:1004A000214908600846006820F0070008600846F7
:1004B000006840F0020008601A4840681949486026
:1004C0000846406848600846406840F480604860DC
:1004D0000846406820F47C1048600846406840F4B4
:1004E000E81048600846006840F08070086000BF6F
:1004F0000C48006800F000700028F9D009484068F6
:1005000020F00300074948600846406840F00200B8
:10051000486000BF0348406800F00C000828F9D18B
:100520000CBD0000001002400020024030B500BFAA
:100530004821B1F1807F01D301201DE021F07F40EF
:10054000401E4FF0E022506150170F22002807DABA
:1005500013071D0E0E4B00F00F04241F1D5503E062
:1005600013071C0E0B4B1C5400BF00204FF0E02261
:1005700090610720106100200028D9D14FF0E020C1
:10058000006920F001004FF0E021086130BD00005B
:1005900018ED00E000E400E00448006820B10348E2
:1005A0000068401E014908607047000000000020FC
:1005B00010B51348006840F0010011490860084672
:1005C0004068104908400E494860084600680E49D6
:1005D00008400B4908600846006820F48020086045
:1005E0000846406820F4FE0048604FF41F00886011
:1005F000FFF727FF4FF000600449086010BD0000BE
:10060000001002400000FFF8FFFFF6FE08ED00E0DA
:1006100000B589B001210820FFF702FF0121042065
:10062000FFF7EEFE4FF48070ADF8200003208DF848
:10063000220018208DF8230008A91048FFF74EFE6D
:100640004720ADF818000020ADF8160005A90C48A9
:1006500000F074F86020ADF804004FF4FA70ADF8C3
:100660000A000020ADF80C000120ADF8060001A939
:10067000034800F013F809B000BD0000000C014071
:100680000008004021B1028842F00102028004E02B
:1006900002884FF6FE731A400280704770B500243E
:1006A00000220023058C4FF6FF6635400584028C3E
:1006B0008388848B4FF68F752C404FF6FC752C4049
:1006C0000D882C434FF6FF552A400D894FF6FF76D3
:1006D00006EA05252A434D8806EA05252A43154DD5
:1006E000A84202D0144DA8421DD14FF2FF752A40F6
:1006F0004D894FF6FF7606EA05252A434FF6FF356A
:100700002A408D8806EA05252A434EF6FF752B40C0
:100710004DF6FF752B408D8906EA05152B43CD89D3
:1007200006EA05152B4383808483CD888587028460
:1007300070BD0000002C01400034014000220288FE
:100740001D4B98420ED01D4B98420BD0B0F1804FFC
:1007500008D01B4B984205D01A4B984202D01A4B36
:10076000984204D14FF68F731A404B881A43174BA7
:10077000984207D0164B984204D04FF6FF431A40D8
:10078000CB881A4302808B8883850B8803850A4BAC
:1007900098420BD0094B984208D00E4B984205D096
:1007A0000D4B984202D00D4B984201D10B7A038633
:1007B0000123838270470000002C01400034014077
:1007C0000004004000080040000C00400010004001
:1007D0000014004000400140004401400048014036
:1007E00000BFFEE70024FFF7A1FEFFF711FF21E0A5
:1007F00017E001211048FFF745FF104951F8340078
:10080000FFF75CFD0D4901EBC4014868FFF73CFDB3
:1008100000210948FFF736FF44F62060FFF734FD5A
:10082000641C064850F834000028E2D10024044833
:10083000FFF72AFDDCE7000000080040C8000020A8
:10084000C0C62D006408000800000020200200003F
:1008500028010008D00800082002002060060000DF
:100860008401000841230B021A4B041A93041ABA9C
:10087000042310031A70041ADC04291C2904291407
:1008800069182904290C292C290429382904294408
:100890002904A930091224091A1C093670290411E7
:1008A0007B350C082930A9082944A90839183B6A66
:1008B0001850291069082958A9082960A908396021
:1008C0001938E960092348093938096EE0810000C8
:04000005080000ED02
:00000001FF
