:020000040800F2
:1000000020040020050100083D0400080103000849
:100010003904000879010008990800080000000070
:10002000000000000000000000000000350500088E
:100030007D010008000000003F0400088D06000854
:100040001F0100081F0100081F0100081F01000810
:100050001F0100081F0100081F0100081F01000800
:100060001F0100081F0100081F0100081F010008F0
:100070001F0100081F0100081F0100081F010008E0
:100080001F0100081F0100081F0100081F010008D0
:100090001F0100081F0100081F0100081F010008C0
:1000A0001F0100081F0100081F0100081F010008B0
:1000B0001F0100081F0100081F0100081F010008A0
:1000C0001F0100081F0100081F0100081F01000890
:1000D0001F0100081F0100081F0100081F01000880
:1000E0001F0100081F0100081F010008DFF810D0E1
:1000F00000F030F800480047650A0008AFF30080C0
:10010000200400200648804706480047FEE7FEE737
:10011000FEE7FEE7FEE7FEE7FEE7FEE7FEE7FEE7B7
:10012000A5060008ED00000830B50B46014600208A
:100130002022012409E021FA02F59D4205D303FAA9
:1001400002F5491B04FA02F52844151EA2F101022A
:10015000F1DC30BD064C074D06E0E06840F00103DD
:1001600094E8070098471034AC42F6D3FFF7C2FF7B
:10017000B80A0008D80A000800BFFEE77047000070
:100180000B4908604FF0E021096941F001014FF08F
:10019000E022116100BF064909680029FBD14FF038
:1001A000E021096921F001014FF0E022116170475F
:1001B0001400002008B50121102000F041F94FF48F
:1001C0000050ADF8000003208DF8020010208DF8DB
:1001D00003006946014800F003F808BD0010014023
:1001E0002DE9F041024600250026002000230024CE
:1001F000002791F803C00CF00F0591F803C00CF034
:10020000100CBCF1000F03D091F802C04CEA0505B8
:1002100091F800C0BCF1000F31D0146800202BE031
:100220004FF0010C0CFA00F3B1F800C00CEA030621
:100230009E4220D183004FF00F0C0CFA03F7BC4311
:1002400005FA03FC4CEA040491F803C0BCF1280F42
:1002500006D14FF0010C0CFA00FCC2F814C00AE001
:1002600091F803C0BCF1480F05D14FF0010C0CFA16
:1002700000FCC2F810C0401C0828D1D31460B1F8AB
:1002800000C0BCF1FF0F34DD546800202EE000F107
:10029000080C4FF0010808FA0CF3B1F800C00CEAA2
:1002A00003069E4221D183004FF00F0C0CFA03F796
:1002B000BC4305FA03FC4CEA040491F803C0BCF10A
:1002C000280F05D100F1080C08FA0CF8C2F81480C8
:1002D00091F803C0BCF1480F07D100F1080C4FF0B2
:1002E000010808FA0CF8C2F81080401C0828CED388
:1002F0005460BDE8F0810AB1016100E041617047DE
:1003000000BFFEE738B500240F20ADF800004820FC
:100310008DF8030003208DF8020069464548FFF779
:100320005FFFF020ADF8000010208DF803000320DF
:100330008DF8020069463F48FFF752FF0022F02186
:100340003C48FFF7D8FF3B480830006800F00F003A
:100350000F286DD0C820FFF713FF3648083000681B
:1003600000F00F050F2D11D0072D0BD00B2D07D04E
:100370000D2D03D00E2D07D1012406E0052404E045
:10038000092402E00D2400E000BF01E0002038BD98
:100390000F20ADF8000010208DF8030003208DF829
:1003A000020069462348FFF71BFFF020ADF800006C
:1003B00048208DF8030003208DF8020069461D488F
:1003C000FFF70EFF00220F211A48FFF794FF19488C
:1003D0000830006800F0F000F0281DD0C820FFF7BA
:1003E000CFFE14480830006800F0F005F02D11D061
:1003F000702D0BD0B02D07D0D02D03D0E02D07D11C
:1004000000BF06E0641C04E0A41C02E0E41C00E061
:1004100000BF03E00020BAE70020B8E700BF0548AE
:100420000830006800F0F000F028F8D12046AEE770
:100430000020ACE70008014000BFFEE770477047AE
:1004400029B1064A92690243044B9A6104E0034AC7
:1004500092698243014B9A6170470000001002408C
:1004600030B500210022002400232D4D6D6805F0D9
:100470000C0121B1042905D0082923D105E0294D1B
:10048000056022E0274D05601FE0254D6D6805F4ED
:100490007012234D6D6805F48034022505EB9242FD
:1004A0001CB9214D554305600BE01D4D6D6805F4E9
:1004B00000351DB11C4D5543056002E0194D5543F3
:1004C000056002E0174D056000BF00BF144D6D6868
:1004D00005F0F0010909154D6B5C0568DD404560CC
:1004E0000F4D6D6805F4E061090A104D6B5C4568BD
:1004F000DD4085600A4D6D6805F46051C90A0B4DF9
:100500006B5C4568DD40C560054D6D6805F4404194
:10051000890B074D6B5CC568B5FBF3F5056130BD14
:100520000010024000127A0000093D000000002087
:1005300010000020704710B500F002F810BD000058
:100540000CB50020019000903348006840F48030E2
:100550003149086000BF3048006800F40030009066
:100560000198401C0190009818B90198B0F5A06F4F
:10057000F1D12948006800F4003010B1012000904A
:1005800001E0002000900098012843D12348006832
:1005900040F01000214908600846006820F007007C
:1005A00008600846006840F0020008601A48406889
:1005B000194948600846406848600846406840F469
:1005C000806048600846406820F47C104860084617
:1005D000406840F4E81048600846006840F08070C9
:1005E000086000BF0C48006800F000700028F9D0D7
:1005F0000948406820F00300074948600846406801
:1006000040F00200486000BF0348406800F00C0062
:100610000828F9D10CBD0000001002400020024063
:1006200030B500BF4821B1F1807F01D301201DE02A
:1006300021F07F40401E4FF0E022506150170F2202
:10064000002807DA13071D0E0E4B00F00F04241FBD
:100650001D5503E013071C0E0B4B1C5400BF00205C
:100660004FF0E02290610720106100200028D9D1CE
:100670004FF0E020006920F001004FF0E021086118
:1006800030BD000018ED00E000E400E00448006820
:1006900020B103480068401E01490860704700000F
:1006A0001400002010B51348006840F00100114903
:1006B000086008464068104908400E4948600846EE
:1006C00000680E4908400B4908600846006820F49D
:1006D000802008600846406820F4FE0048604FF41F
:1006E0001F008860FFF727FF4FF000600449086093
:1006F00010BD0000001002400000FFF8FFFFF6FEF2
:1007000008ED00E010B586B00446012144F2040073
:10071000FFF796FE4FF40070ADF8140018208DF826
:10072000170003208DF8160005A91448FFF758FD9F
:100730004FF48060ADF8140004208DF817000320FA
:100740008DF8160005A90D48FFF74AFD0194002019
:10075000ADF80800ADF80A00ADF80C00ADF81000D7
:100760000C20ADF80E0001A9054800F025F8012184
:10077000034800F007F806B010BD00000008014073
:100780000038014021B1828942F40052828104E0A4
:1007900082894DF6FF731A4082817047024600201D
:1007A000B1F5007F00D100BF13880B400BB10120D1
:1007B00000E00020704700002DE9F04786B00546B4
:1007C0000E460024A24600BFA1460027B08900B112
:1007D00000BF2F462C8A4CF6FF700440F08804437B
:1007E0002C82AC894EF6F3100440B088318908435E
:1007F000718908430443AC81AC8A4FF6FF40044042
:10080000B0890443AC8201A8FFF72AFE1F48874243
:1008100002D1DDF810A001E0DDF80CA0A88900F4F9
:10082000004040B10AEBCA0000EB0A1031684900F1
:10083000B0FBF1F807E00AEBCA0000EB0A103168E0
:100840008900B0FBF1F86420B8FBF0F00401200946
:10085000642101FB1089A88900F4004040B13220D6
:1008600000EBC900B0FBF1F000F00700044308E022
:10087000322000EB09106421B0FBF1F000F00F0012
:1008800004432C8106B0BDE8F08700000038014029
:10089000C1F308028280704700BFFEE70FB4054B2A
:1008A00010B503A9044A029800F018F810BC5DF8CE
:1008B00014FB0000310A00081800002002E008C8FC
:1008C000121F08C1002AFAD170477047002001E0CA
:1008D00001C1121F002AFBD1704700002DE9FF4F14
:1008E00089B09B460446002506E025280BD05A46D1
:1008F0000B999047641C6D1C20780028F5D10DB031
:100900002846BDE8F08F0027B8460122474900E09D
:10091000074314F8013F203B02FA03F00842F7D1E5
:1009200020782E2819D114F8010F47F004072A283F
:100930000ED06FF02F022078A0F1300109290CD8D9
:1009400008EB880102EB410100EB0108641CF2E7AF
:100950000A98641C50F8048B0A9020780028CED0A6
:10096000642808D0692806D075281ED05A460B99ED
:1009700090476D1C58E00A994FF00A0901C90A9185
:10098000002802DA40422D2102E0390504D52B214E
:100990008DF82010012103E0F90704D02021F7E7AA
:1009A0008A4608AE0DE00021FAE70A994FF00A09DD
:1009B00001C90A91F7E74946FFF7B6FB303106F85F
:1009C000011D0028F7D1ADEB060000F120097807E2
:1009D00001D44FF00108C84502DDA8EB090000E092
:1009E00000208046002706E008A85A46C05D0B9903
:1009F00090476D1C7F1C5745F6DB04E030205A46BB
:100A00000B9990476D1CB8F10001A8F10108F5DCC5
:100A100005E016F8010B5A460B9990476D1CB9F189
:100A20000001A9F10109F4DC641C65E70928010053
:100A300070B504460D4600BF80210948FFF7AEFEA1
:100A40000128F9D1A1B20648FFF722FF00BF4021DB
:100A50000348FFF7A3FE0128F9D1002070BD000074
:100A600000380140FFF7DCFDFFF7A4FB4FF4E13055
:100A7000FFF748FE01210420FFF7E2FC06A0FFF784
:100A80000DFF07E0FFF73EFC04461CB1214605A020
:100A9000FFF704FFF6E700004D61747269785F4B61
:100AA00065790A004B65792025642069732070728E
:100AB00065737365642E0A00D80A000800000020E0
:100AC0001C000000BC080008F40A00081C000020FC
:100AD00004040000CC080008000000000102030428
:100AE00001020304060708090204060800000000CA
:040AF0000000000002
:04000005080000ED02
:00000001FF
