:020000040800F2
:100000002004002005010008FB020008F30200089C
:10001000F70200084D010008610A00080000000016
:10002000000000000000000000000000C106000801
:1000300051010008000000002105000855080008D3
:100040001F0100081F0100081F0100081F01000810
:100050001F0100081F0100081F0100081F01000800
:100060001F0100081F0100081F0100081F010008F0
:100070001F0100081F0100081F0100081F010008E0
:100080001F0100081F0100081F0100081F010008D0
:100090001F0100081F0100081F0100081F010008C0
:1000A0001F0100081F0100081F0100081F010008B0
:1000B0001F0100081F0100081F0100081F010008A0
:1000C0001F0100081F0100081F0100081F01000890
:1000D0001F0100081F0100081F0100081F01000880
:1000E0001F0100081F0100081F010008DFF810D0E1
:1000F00000F01AF800480047E90A0008AFF3008052
:10010000200400200648804706480047FEE7FEE737
:10011000FEE7FEE7FEE7FEE7FEE7FEE7FEE7FEE7B7
:100120006D080008ED000008064C074D06E0E06889
:1001300040F0010394E8070098471034AC42F6D32E
:10014000FFF7D8FF940B0008B40B000800BFFEE7D0
:10015000704700000B4908604FF0E021096941F049
:1001600001014FF0E022116100BF06490968002932
:10017000FBD14FF0E021096921F001014FF0E022AD
:10018000116170471400002008B50121102000F013
:10019000C9F94FF40050ADF8000003208DF80200BB
:1001A00010208DF803006946044800F009F8002289
:1001B0004FF40051014800F097F808BD00100140CD
:1001C0002DE9F041024600250026002000230024EE
:1001D000002791F803C00CF00F0591F803C00CF054
:1001E000100CBCF1000F03D091F802C04CEA0505D9
:1001F00091F800C0BCF1000F31D0146800202BE052
:100200004FF0010C0CFA00F3B1F800C00CEA030641
:100210009E4220D183004FF00F0C0CFA03F7BC4331
:1002200005FA03FC4CEA040491F803C0BCF1280F62
:1002300006D14FF0010C0CFA00FCC2F814C00AE021
:1002400091F803C0BCF1480F05D14FF0010C0CFA36
:1002500000FCC2F810C0401C0828D1D31460B1F8CB
:1002600000C0BCF1FF0F34DD546800202EE000F127
:10027000080C4FF0010808FA0CF3B1F800C00CEAC2
:1002800003069E4221D183004FF00F0C0CFA03F7B6
:10029000BC4305FA03FC4CEA040491F803C0BCF12A
:1002A000280F05D100F1080C08FA0CF8C2F81480E8
:1002B00091F803C0BCF1480F07D100F1080C4FF0D2
:1002C000010808FA0CF8C2F81080401C0828CED3A8
:1002D0005460BDE8F0810246002093680B400BB1EA
:1002E000012000E0002070470AB1016100E0416197
:1002F000704700BFFEE700BFFEE7704710B5412121
:10030000302000F0F7F8102000F09CF80446412C53
:1003100001D1002010BD0120FCE7000000B587B02E
:10032000012141F20C0000F0FDF80320ADF81800A7
:1003300010208DF81B0003208DF81A0006A92E4806
:10034000FFF73EFF1020ADF8180048208DF81B0085
:1003500003208DF81A0006A92848FFF731FF202056
:10036000ADF8180018208DF81B0003208DF81A0036
:1003700006A92248FFF724FF4020ADF8180004200A
:100380008DF81B0003208DF81A0006A91B48FFF703
:1003900017FF8020ADF8180018208DF81B000320EF
:1003A0008DF81A0006A91548FFF70AFF0020ADF8DE
:1003B00004004FF48270ADF806000020ADF808008C
:1003C000ADF80A00ADF80C004FF40070ADF80E0067
:1003D0001020ADF810000020ADF812000720ADF895
:1003E000140001A9064800F04DF90121044800F06D
:1003F0002FF907B000BD0000000C014000080140CB
:10040000003001402DE9F04107460D461646002216
:1004100002210B48FFF768FF384600F0FDF8002482
:1004200004E0002000F0F8F82855641CB442F8D32A
:10043000012202210248FFF757FFBDE8F0810000CA
:10044000000C014070B50446002202210848FFF765
:100450004BFF204600F0E0F8002000F0DDF80546F4
:10046000012202210248FFF73FFF284670BD00002D
:10047000000C014070B5054600BF10210C48FFF785
:100480002AFF0028F9D10720FFF7DCFF04462146A8
:10049000272000F02FF804F0400030B12022294638
:1004A0006120FFF7AFFF002070BD0120FCE70000D6
:1004B000000801402DE9F04107460C461546002290
:1004C00002210B48FFF710FF384600F0A5F8002680
:1004D00004E014F8010B00F09FF8761CAE42F8D34C
:1004E000012202210248FFF7FFFEBDE8F081000073
:1004F000000C014070B505460C4600220221074859
:10050000FFF7F2FE284600F087F8204600F084F856
:10051000012202210148FFF7E7FE70BD000C0140F7
:100520007047000029B1064A92690243044B9A6160
:1005300004E0034A92698243014B9A6170470000CC
:100540000010024030B500210022002400232D4D70
:100550006D6805F00C0121B1042905D0082923D1CB
:1005600005E0294D056022E0274D05601FE0254D7F
:100570006D6805F47012234D6D6805F48034022512
:1005800005EB92421CB9214D554305600BE01D4D12
:100590006D6805F400351DB11C4D5543056002E042
:1005A000194D5543056002E0174D056000BF00BFBF
:1005B000144D6D6805F0F0010909154D6B5C056877
:1005C000DD4045600F4D6D6805F4E061090A104D8E
:1005D0006B5C4568DD4085600A4D6D6805F46051CF
:1005E000C90A0B4D6B5C4568DD40C560054D6D6803
:1005F00005F44041890B074D6B5CC568B5FBF3F50D
:10060000056130BD0010024000127A0000093D0073
:10061000000000201000002010B5044600BF022199
:100620000A4800F021F80028F9D02146074800F0D8
:1006300027F800BF0121054800F016F80028F9D07E
:10064000024800F01AF8C0B210BD000000300140AE
:1006500021B1028842F04002028004E002884FF695
:10066000BF731A40028070470246002013890B4076
:100670000BB1012000E000207047014688897047D7
:100680008181704710B50022028802F441520B8824
:100690004C8823438C882343CC8823430C892343F1
:1006A0004C8923438C892343CC8923431A430280FA
:1006B000838B4FF2FF74234083830B8A038210BD28
:1006C000704710B500F002F810BD00000CB5002016
:1006D000019000903348006840F480303149086050
:1006E00000BF3048006800F4003000900198401CC2
:1006F0000190009818B90198B0F5A06FF1D1294880
:10070000006800F4003010B10120009001E00020EA
:1007100000900098012843D12348006840F0100061
:10072000214908600846006820F007000860084674
:10073000006840F0020008601A48406819494860A3
:100740000846406848600846406840F48060486059
:100750000846406820F47C1048600846406840F431
:10076000E81048600846006840F08070086000BFEC
:100770000C48006800F000700028F9D00948406873
:1007800020F00300074948600846406840F0020036
:10079000486000BF0348406800F00C000828F9D109
:1007A0000CBD0000001002400020024010B50022E5
:1007B00001210B48FFF798FD05220A492A20FFF77F
:1007C00079FE20213120FFF795FE0F212020FFF731
:1007D00091FE012211460248FFF786FD10BD000080
:1007E000000C01408D0B000830B500BF4821B1F16D
:1007F000807F01D301201DE021F07F40401E4FF09B
:10080000E022506150170F22002807DA13071D0E4F
:100810000E4B00F00F04241F1D5503E013071C0EA0
:100820000B4B1C5400BF00204FF0E02290610720CA
:10083000106100200028D9D14FF0E020006920F09D
:1008400001004FF0E021086130BD000018ED00E02C
:1008500000E400E00448006820B103480068401E3E
:1008600001490860704700001400002010B51348CB
:10087000006840F0010011490860084640681049CE
:1008800008400E494860084600680E4908400B4978
:1008900008600846006820F4802008600846406828
:1008A00020F4FE0048604FF41F008860FFF709FF46
:1008B0004FF000600449086010BD000000100240C5
:1008C0000000FFF8FFFFF6FE08ED00E021B182898D
:1008D00042F40052828104E082894DF6FF731A408F
:1008E0008281704710B586B00446012144F20400AD
:1008F000FFF718FE4FF40070ADF8140003208DF8D8
:10090000160018208DF8170005A91448FFF758FCA9
:100910004FF48060ADF8140003208DF81600042019
:100920008DF8170005A90D48FFF74AFC0194002037
:10093000ADF80800ADF80A00ADF80C00ADF81000F5
:100940000C20ADF80E0001A9054800F019F80121AE
:100950000348FFF7BBFF06B010BD000000080140D0
:100960000038014002460020B1F5007F00D100BFF1
:1009700013880B400BB1012000E0002070470000FD
:100980002DE9F04786B005460E460024A24600BF7A
:10099000A1460027B08900B100BF2F462C8A4CF633
:1009A000FF700440F08804432C82AC894EF6F310AB
:1009B0000440B08831890843718908430443AC81FD
:1009C000AC8A4FF6FF400440B0890443AC8201A8D2
:1009D000FFF7B8FD1F48874202D1DDF810A001E003
:1009E000DDF80CA0A88900F4004040B10AEBCA0071
:1009F00000EB0A1031684900B0FBF1F807E00AEBA0
:100A0000CA0000EB0A1031688900B0FBF1F86420DD
:100A1000B8FBF0F004012009642101FB1089A889CA
:100A200000F4004040B1322000EBC900B0FBF1F00F
:100A300000F00700044308E0322000EB09106421B5
:100A4000B0FBF1F000F00F0004432C8106B0BDE8CC
:100A5000F087000000380140C1F30802828070472F
:100A600000BFFEE7014A024900F013B8B50A0008CA
:100A70001800002002E008C8121F08C1002AFAD19D
:100A800070477047002001E001C1121F002AFBD10E
:100A900070472DE9F04116460F460446002503E055
:100AA0003946B047641C6D1C20780028F8D12846D0
:100AB000BDE8F08170B504460D4600BF80210948AD
:100AC000FFF750FF0128F9D1A1B20648FFF7C4FF94
:100AD00000BF40210348FFF745FF0128F9D100205E
:100AE00070BD00000038014008B5FFF77DFEFFF73C
:100AF0004BFB4FF4E130FFF7F5FEFFF70FFC05E08D
:100B000011A0FFF7AFFF1748FFF724FBFFF7F6FB35
:100B10000028F5D114A0FFF7A5FF1248FFF71AFB34
:100B2000FFF744FE0FE000BF6846FFF7A3FC002874
:100B3000FAD19DF80000012805D11248C06880F460
:100B400000501049C860EEE7436F6E6E6563742015
:100B5000746F204E524632344C3031204572726FE1
:100B600072210A0040420F00436F6E6E657274205E
:100B7000746F204E524632344C3031204F4B210A94
:100B800000000000001001403443101001344310F5
:100B900010010000B40B0008000000201C00000041
:100BA000740A0008D00B00081C0000200404000098
:100BB000840A00080000000001020304010203048B
:100BC00006070809020406080000000000000000F3
:04000005080000ED02
:00000001FF
