:020000040800F2
:1000000090070020B9010008CB1F0008C31F00089B
:10001000C71F0008991B0008F1230008000000001A
:10002000000000000000000000000000C5200008E3
:10003000CD1D000800000000CD1F00081D22000893
:10004000D3010008D3010008D3010008D301000840
:10005000D3010008D3010008D3010008D301000830
:10006000D3010008D3010008D3010008D301000820
:10007000D3010008D3010008D3010008D301000810
:10008000D3010008D3010008D3010008D301000800
:10009000D3010008D3010008D3010008D3010008F0
:1000A000D3010008D3010008D3010008D3010008E0
:1000B000D3010008D3010008D3010008D3010008D0
:1000C000D3010008D3010008D3010008D3010008C0
:1000D000D3010008D3010008D3010008D3010008B0
:1000E000D3010008D3010008D301000800F002F892
:1000F00000F052F80AA090E8000C82448344AAF170
:100100000107DA4501D100F047F8AFF2090EBAE86D
:100110000F0013F0010F18BFFB1A43F0010318473B
:10012000202B0000402B0000103A24BF78C878C173
:10013000FAD8520724BF30C830C144BF04680C60ED
:10014000704700000023002400250026103A28BF35
:1001500078C1FBD8520728BF30C148BF0B60704739
:10016000662902F01B85642900F052800020704748
:100170001FB59DE8030000F019FF00F089FB0400A3
:100180000020002102F098F9E06000F099FC1FBD0A
:1001900010B500F0FEFC10BD00F066FD1146FFF743
:1001A000E7FF02F05DF900F06BFE03B4FFF7F0FF2C
:1001B00003BC01F08DF8000009488047094800475A
:1001C000FEE7FEE7FEE7FEE7FEE7FEE7FEE7FEE707
:1001D000FEE7FEE704480549054A064B7047000064
:1001E00035220008ED000008900100209007002053
:1001F00090030020900300200FB4044910B503AA17
:10020000029800F033FB10BC5DF814FB880000205E
:100210002DE9F0410646002410687529314616A5DF
:1002200010D0AFF30080002802DA404213A507E0A7
:1002300031688A0701D512A502E0490704D511A546
:10024000012401E0AFF3008000210A2206F1240717
:1002500009E0B0FBF2FCB0FBF2F302FB1C00303013
:1002600078541846491C0028F3D123462A463046C4
:10027000BDE8F04100F092B8000000002D00000041
:100280002B000000200000002DE9F0474FF0000A8D
:1002900089460446C0F820A02046E1688847002827
:1002A00076D0252806D0D4E901219047206A401C49
:1002B0002062F1E7E168204600258847C4F81CA0C9
:1002C00006460027C4F818A02A2E09D0304602F0AE
:1002D000A5F838B304EB8708303EC8F8186019E079
:1002E00059F8041B204604EB87029161E1688847B6
:1002F000012F064618D1E069002820DA25F02005F4
:100300001DE0D8F8180000EB800006EB4000303804
:10031000C8F818002046E1688847064602F07EF8D3
:100320000028EED1012F0AD02E2E08D12046E168F8
:1003300088477F1C0646022F45F02005C4DBA069D4
:10034000002803DA404245F00105A061E80701D02A
:1003500025F01005B6B1A6F14100192802D82036C3
:1003600045F400654A463146204625604D46FFF774
:10037000F7FE58B1012806D0ED1D25F0070000F169
:10038000080989E704E005F1040985E730468AE7B2
:10039000206ABDE8F0877047704770472DE9F04745
:1003A0000D4699469246044600F1240801688806E5
:1003B00004D5E06921F01001216000E00120A8428D
:1003C00001DD471B00E00027A1697A1902EB090053
:1003D000081AA0612078C00602D42046AFF300803E
:1003E000002608E0D4E901211AF806009047206AA7
:1003F000401C761C20624E45F4DB2078C0060AD5EE
:100400002046AFF3008006E0D4E901213020904778
:10041000206A401C2062381EA7F10107F4DC07E0C7
:10042000D4E9012118F805009047206A401C206299
:10043000281EA5F10105F3DC2046AFF300802078EB
:10044000000602D50220BDE8F0870120FBE77047D7
:100450002DE9FF4F0C461E464FF0FF378BB0D2E917
:100460000001DDF860800A908A46C1F30A5505B99B
:100470003D46002108464FF00000BAF1000F00F49D
:10048000400005DA00EB80004FF4400101EA500023
:100490004FEA9059B9F1010F00DDB9460A9850EAC8
:1004A0004A000ED044F61050A5F2FF3545432F14F4
:1004B000B8F1000F1ED07542291E1EDDC9F10002E1
:1004C0001CE0B8F1010F4FF0000001D0302103E033
:1004D000F24305E02154401CB042FBDB30460022D1
:1004E000002121540B99C1F80880C1E900200FB008
:1004F000BDE8F08FBD1B6D1CDEE74A4600DA69429D
:1005000006A800F067FA06AB93E8070003AB83E8A0
:10051000070050460A9900F077FF8DE80700A0F524
:1005200000501F3800900398002D0ADD42F21F0191
:100530004A460844002303A90390684601F0E0F905
:1005400009E0A0F500504A461F38002303A9039094
:10055000684601F0EAF98DE807000004000C03D0BA
:100560004FF0FF30410800E01046B8F1000F03D013
:100570000022009215461EE0751E05D400F08CF98D
:10058000303262556D1EF9D5B3460122084302D0C0
:1005900000227F1C04E02078302801D100227F1E39
:1005A000002A099784D01DE0112D07DA00F074F9B4
:1005B000303262556D1C50EA0102F5D1084302D079
:1005C0000098C8B10EE00021681E05E0235C625C63
:1005D00063542254401E491C8142F7DBAB46A81BE2
:1005E000401E0990002004F80B000B98099AC0F8EF
:1005F0000880C0E9002B7AE711264FF0000857E782
:100600002DE9F04F88460446D21D22F0070191B033
:10061000D1E90001CDE90A0101F0ECFE02460B9898
:10062000C00F01D02D2007E02068810701D52B20C5
:1006300002E0202101EAC000032A099001D0072A24
:1006400005DB03464146204600F084F90BE12078A3
:10065000800601D5E06900E00620B8F1650F81460B
:1006600006D0B8F1660F18D0B8F1670F70D131E03D
:100670000020B9F1110F009001DB112301E009F115
:1006800001030AAA01A90CA8FFF7E2FEDDE90C703C
:10069000002609F10105834647E001204B46009002
:1006A0004FF000470AAA01A90CA8FFF7D1FEDDE927
:1006B0000DB00C995D46002610B909F101000D1826
:1006C000B9EB050003D4C0F1FF3609F10105A5EB34
:1006D00009002BE0B9F1010F01DA4FF00109002008
:1006E000B9F1110F0090484601DD112300E00346E7
:1006F0000AAA01A90CA8FFF7ABFEDDE90C704D4674
:1007000000268346207800070AD4AB4500DA5D4610
:1007100001A8012D04DD411911F8011C302907D071
:100720004F4502DA17F1040F04DA012082460FE088
:100730006D1EEEE7002F02DCED1B3E4403E0781C4B
:10074000A84200DD7D1CB81B00F1010A4FF00047F4
:100750002078000703D4AA4501DB4FF0FF3A0021BF
:10076000B7F1004F0DF143088DF8431024D002205B
:100770002B23002F01DA7F422D230A21021EA0F134
:10078000010000DC5FB197FBF1FC97FBF1F201FB8C
:100790001C7C17460CF1300C08F801CDEEE7A8F1EF
:1007A000010003702188090501D5452100E065217C
:1007B000A0F1010800F8011C09980FA9A1EB080796
:1007C000FF1D00B10120411901EBEA70A169384415
:1007D000081A401EA0612078C00602D42046AFF35C
:1007E0000080099828B1D4E901219047206A401C73
:1007F00020622078C00622D52046AFF300801EE09C
:10080000002E04DBB34502DD01A8805D00E030204E
:10081000D4E901219047206A401C2062761CAAF18D
:1008200001005FEA000A0AD100F032F8C0680168EE
:10083000405CD4E901219047206A401C2062281EB8
:10084000A5F10105DCDC07E0D4E9012118F8010B72
:100850009047206A401C2062381EA7F10107F3DC94
:100860002046AFF30080032011B041E6074B70B57E
:100870000D467B4400F05BF80446284600F01CF966
:1008800010B14FF0FF3070BD204670BDB71B0000A7
:10089000004870475001002030B5B0F10A024FEA1D
:1008A000900E71F100034EEA817EB0EB0E0061EB19
:1008B00091014FEA101E4EEA017E10EB0E0041EB53
:1008C00011114FEA102E4EEA016E10EB0E0041EBB3
:1008D00011214FEA104E4EEA014E10EB0E0041EB93
:1008E0001141401841F100014FEAD00040EA417047
:1008F0004FEAD10110EB80054FEA810444EA90747D
:1009000044EB01046D1944EB0404521BA3414FF066
:10091000000348BF0A3200D530BD401C41F1000140
:1009200030BD000001694A1C02610878704700B5BB
:100930008FB0CDE901310021059105497944CDE918
:10094000031011466846FFF79FFC0FB000BD000082
:10095000E5FFFFFF2DE9F0411F460446032601682D
:10096000072A01F4006004DB08B116A505E016A50E
:1009700003E008B115A500E015A521F010002060E6
:10098000A069C01EA0610FB1401EA0612046AFF358
:1009900000804FB1D4E9012138469047206A401CBD
:1009A0002062C01C206206E0206AFAE7D4E9012137
:1009B00015F8010B9047761EF8D22046AFF3008061
:1009C000BDE8F0814E414E006E616E00494E46001A
:1009D000696E66002DE9F047814616468AB03548B3
:1009E00078440DC88DE80D0032487844801C03AC73
:1009F0000DC884E80D0041F69B300844372190FB78
:100A0000F1F290FBF1F5A5F1800501FB12041B3C0E
:100A100002D56442012000E00020DFF898A0804663
:100A20000027FA44AAF1BE0A0EE0E0070AD03246D7
:100A3000684607EB470101230AEB810100F075FFCF
:100A40008DE8070064107F1C002CEED1194F7F4405
:100A5000AE3F19E0E80715D007EB04100DF1180AB6
:100A600090E80E008AE80E00C068F04201D19819A3
:100A700008903246012306A903A800F056FF03ABF5
:100A800083E807006D10641C002DE3D14FF00103D3
:100A900032466946B8F1000F03A802D000F030FFDB
:100AA00001E000F042FFC9E90001C9F808200AB0DE
:100AB000BDE8F08738220000007B00F0800070471E
:100AC00010B54248542100F0EBF94148542100F0A0
:100AD000E7F94048542100F0E3F93F493B483C4ADC
:100AE0003F4B08603D490A603A491960531C036551
:100AF000481C1065012008653B48344A39A17844F8
:100B000000F022F920B9384878440A3800F0C1F9D9
:100B100037482F4A35A1784400F016F920B93448F7
:100B200078440A3800F0B5F932482A4A2FA17844AF
:100B300000F00AF920B92F4878440A3800F0A9F9E2
:100B400040232248DC000021224600F0D9F820B1E1
:100B500025487844543800F09CF91D48224640232B
:100B6000002100F0CDF820B121487844543800F03D
:100B700090F9184822461023002100F0C1F80028FF
:100B800006D01C487844BDE81040563800F081B9C2
:100B900010BD104870B5006D20F001040B4800F046
:100BA00049F90B4800F046F90A4800F043F909E01A
:100BB000206D20F00105204600F03CF9204600F0B1
:100BC00078F82C46002CF3D170BD000034000020D2
:100BD00088000020DC000020280000202C000020DD
:100BE0003000002072000000322100007700000079
:100BF0001E2100000A2100000EB5CDE9000100F021
:100C000047FB029069460120ABBE0EBD08B56946A0
:100C100000900220ABBE08BD1FB58DE807006946F5
:100C20000520ABBE04B010BD1FB58DE80F006946AE
:100C30000620ABBEF6E708B5694600900920ABBEBA
:100C400008BD1CB5CDE9000169460A20ABBE1CBD3C
:100C5000704708B5694600900C20ABBE08BD000087
:100C600000487047300100207546FFF7F9FFAE4697
:100C700005006946534620F00700854618B020B5A8
:100C8000FFF7A8FABDE820404FF000064FF000073C
:100C90004FF000084FF0000B21F00701AC46ACE824
:100CA000C009ACE8C009ACE8C009ACE8C0098D4691
:100CB000704770B50446051F00F05CF90068002C11
:100CC00014BF446870BD002C18BFAC423CBF204626
:100CD0006468F8D301680A18AA4218BF456003D1B6
:100CE0002A6805461144016028684119A1421CBFC9
:100CF0006C6070BD6168696021680844286070BDDF
:100D000070B5C468A50713D0650211D4B2F5807F11
:100D100009D0B2F5007F06D0B2F5806F08D101236B
:100D200000F1240106E05D1E6FF07F46B54201D35D
:100D3000012070BD0161C361416024F47061114301
:100D4000C160002070BD00002DE9F0410C4607464F
:100D50001646104600F06EF82078611C61280AD013
:100D6000722802D077283CD102E00125002405E05A
:100D70000225042402E0082448F2020511F8010BC0
:100D80002B2806D0622809D011F8010C74280AD04B
:100D90000BE045F0030544F00204EFE745F00405DD
:100DA00044F00104EAE744F0100438462146FFF716
:100DB00023FF411C15D00021316171604FF4007197
:100DC000F560F1617061200704D5304602220021F0
:100DD00000F04AF9306D40F0010030653046BDE862
:100DE000F0810020FBE72DE9F0410D460646104C4E
:100DF000206DC10704D0410804D020F00104F7E7BA
:100E000022460EE0542000F000F907000ED0206DBD
:100E100047F00101084354212065384600F040F8AE
:100E20003A4629463046BDE8F0418DE70020D6E736
:100E3000340000202DE9F04704464FF000094FF040
:100E4000FF37C568D4E90486A80707D0204600F01C
:100E5000BBF93046FFF7DAFE002802DA3846BDE873
:100E6000F087280502D54046FFF723FF4C21204696
:100E700000F016F8206D20F0010020654846EEE7EE
:100E800010B50446AFF300802046BDE81040FFF7E0
:100E90008CB910B500F0E2F9BDE8104000F0D8B907
:100EA0004FF0000200B5134694469646203922BF03
:100EB000A0E80C50A0E80C50B1F12001BFF4F7AF4E
:100EC000090728BFA0E80C5048BF0CC05DF804EB30
:100ED000890028BF40F8042B08BF704748BF20F89E
:100EE000022B11F0804F18BF00F8012B7047000053
:100EF0004FF0013C50F8042B51F8043B9A4221D1A9
:100F0000A2EB0C03934313EACC1317D150F8042B34
:100F100051F8043B9A4215D1A2EB0C03934313EA18
:100F2000CC130BD150F8042B51F8043B9A4209D151
:100F3000A2EB0C03934313EACC13DBD04FF0000079
:100F4000704700BFD01A01BAB1FA81F101F018015F
:100F500022FA01F0CB40C1F12001DBB2C0B2C01ACD
:100F60002CFA01F3D11A914311EAC311E6D170476B
:100F700070470000004870473801002070477047F4
:100F80007047704738B504460A4600206946AFF3FB
:100F90000080002808BF38BD02460099204600F0B6
:100FA000A4F9012038BD012000F0F3B9F8B5AFF382
:100FB0000080054600200C46102000BF0646A819F8
:100FC000A0420DD9324669460020AFF300800700E9
:100FD00008BF00F0DEF90098A04218BF0546C4190A
:100FE000FFF7C8FF05600746F01D20F0070046190F
:100FF000284600F073F9B44208BFF8BDA21B314681
:101000003868BDE8F84000F070B970B50646FFF7E3
:10101000B1FF056806F10B0020F00704B4429CBF45
:10102000002070BD2B466A68BAB11068A04210D388
:1010300004F1080188423CBF5068586007D35168EA
:10104000101941601168091B016058601460101D7F
:1010500070BD13465268002AE7D121462846FFF7A3
:1010600091FF0028DED170BD2DE9F04104461646FF
:101070000D464769007B80072ED03846FFF7DBFD21
:1010800050BB3EB3012E02D0022E25D104E02046F3
:1010900000F045F905441DE03846FFF7DAFDE16848
:1010A000002841F01001E16005DA204600F058F810
:1010B0000120BDE8F081C9030BD56268E16A914265
:1010C00000D81146A26911442269891A814200DDC3
:1010D00008460544002D01DA0220EAE7E16A60686B
:1010E000E268814206D29103E06203D522F4003126
:1010F00041F01002A6690027AE4213DCE16A81428A
:1011000001D90B4600E0034603EB060C2369ACEB68
:10111000030CAC4506DD814201D98C4600E08446D3
:101120009C4505D1A760276042F02000A5620DE034
:10113000AD1BE669AE1B8142A66000D90846C01A05
:10114000281A20605819606022F0200003490840E6
:10115000E060002084F84870ABE70000BFCFD7FF05
:10116000C16821F4001141F08001C160002181605B
:10117000016070472DE9F047814614460E464FF056
:10118000FF383248D5685769054209D03846A16909
:10119000FFF757FD002811DB2C48C0430540E560F0
:1011A0002B46324649463846FFF736FDA16920F006
:1011B0000042B21A11440028A16103D02046FFF773
:1011C000CFFF4046BDE8F08770B504460569C06AA8
:1011D0006168884200D80846E16821F42011E16086
:1011E000C90312D5A84208D02246411B2846FFF762
:1011F000C1FF10B14FF0FF3070BD0020E562C4E9BF
:101200000150E06820F48030E060002070BD10B52F
:101210000446C06820F02000E060A16AA06988420E
:101220000DD02046FFF7D0FFE06820F4405040F09A
:101230001000E060A06AA0612069E062606044F292
:101240004001E0688843E06010BD0000100002002B
:10125000002801D000F03CB87047000010B50146EE
:1012600002A000F07DF8012010BD00005349475254
:10127000545245443A2052656469726563743A2059
:1012800063616E2774206F70656E3A200000000065
:1012900010B5431C02E010F8011B71B18107FAD1AF
:1012A0004FF0013202C88C1A8C4314EAC211F9D0F3
:1012B000C01A0A0603D0C01E10BDC01A10BD0A0411
:1012C00001D0801E10BD0902FCD0401E10BD0000E0
:1012D00001491820ABBEFEE7260002000021016094
:1012E000C0E90110704710207047034640688C46E3
:1012F000002818BF88423CBF03464068F8D31868EE
:101300001844884207D00CF1030020F00700001DAC
:10131000411A521A0146081D0A60FFF7CABC10B5EF
:101320000146C268900703D0900607D5886A0AE094
:1013300000F03EF801210160881E10BD8B694868ED
:1013400018440B69C01A91F848301BB191F8491044
:10135000401A10BD1103FCD50028FADD401E10BD57
:1013600070B505460C460A2000E06D1C00F018F828
:1013700035B128780028F8D102E0641C00F010F89C
:1013800014B120780028F8D1BDE870400A2000F0A0
:1013900007B810B500F010F8BDE81040FFF758BFCF
:1013A00008B569468DF800000320ABBE08BD0000FB
:1013B000004870473001002010B5012805D00021F9
:1013C00003A0FFF7CDFF012010BD09A1F8E7000041
:1013D00053494752544D454D3A204F7574206F661E
:1013E0002068656170206D656D6F72790000000086
:1013F0003A2048656170206D656D6F727920636F6A
:1014000072727570746564005FEA400C08BF91F0F9
:10141000000F4FEA8C234FEAC12243EA51514FEAB1
:101420001C5018BF00F5F0404FEA300018BF41F0E3
:1014300000415FEA6C5C00F02980BCF1FF3F08BF0F
:1014400040F080407047130C06BF12044FF0100CA0
:101450004FF0000C130E04BF12020CF1080C130F16
:1014600004BF12010CF1040C930F04BF92000CF1A5
:10147000020CD30F04BF52000CF1010C11464FF0C7
:101480000002A0F11F00A0EB0C00704711F0004F0C
:1014900008BF704731F000413FF4D5AF0B0C06BFD9
:1014A00009044FF0100C4FF0000C0B0E04BF0902A2
:1014B0000CF1080C0B0F04BF09010CF1040C8B0F8D
:1014C00004BF89000CF1020CCB0F04BF49000CF1E2
:1014D000010CCCF12003A0EB0C0022FA03F302FA7A
:1014E0000CF241EA030100F10100704720F07F4C4B
:1014F00080EA030023F07F47ACEB070303F57C533E
:1015000000F0004003F1FF032DE980494FEA154B3D
:1015100009B44FEA144325EA0B4E24EA03480FF2BC
:10152000042606EB132749083E785FEA320203FBE4
:101530000667C7F5000707FB06F64FEA54374FEA80
:10154000D64606F1020607FB066CCCF1005C4FEABA
:101550001C472CEA074C07FB06F40CFB06F504EBD2
:1015600015464FEA961634BF00204FF000404FEA70
:10157000D13706FB07FC4FEA1C4C0CFB0BF7D21BC8
:1015800003FB0CF761EB07010CFB0EF7B0EB074018
:1015900072EB17420CFB08F734BFA2EB0742B2EB29
:1015A000074261EB17414FEA0C444FEA910706FBF3
:1015B00007FC4FEA1C4C0CFB0BF7B0EBC74072EB7F
:1015C000573203FB0CF734BFA2EBC742B2EBC74262
:1015D00061EB57310CFB0EF7B0EBC70072EB5772A3
:1015E0000CFB08F734BFA2EBC702B2EBC70261EBFA
:1015F0005771039F4FEA816141EA921104EBCC04D9
:101600004FEAD1374FEA826206FB07FC42EA9012AA
:101610004FEA80604FEA1C4C0CFB0BF7D21B03FB1C
:101620000CF761EB07010CFB0EF7B0EB074072EB18
:1016300017420CFB08F734BFA2EB0742B2EB07429C
:1016400061EB17414FEA8C554FEA910704EB9C245C
:1016500006FB07FC4FEA1C4C0CFB0BF7B0EBC7403A
:1016600072EB573203FB0CF734BFA2EBC742B2EB6D
:10167000C74261EB57310CFB0EF7B0EBC70072EBC2
:1016800057720CFB08F734BFA2EBC702B2EBC702DC
:1016900061EB577115EB4C254FEA816141EA9211DC
:1016A0004FEA82624FEAD13742EA901206FB07FC0A
:1016B00044F100044FEA80604FEA1C4C0CFB0BF72E
:1016C000D21B03FB0CF761EB07010CFB0EF7B0EB31
:1016D000074072EB17420CFB08F734BFA2EB07423E
:1016E000B2EB074261EB174115EB1C154FEA813154
:1016F00041EA92414FEA823242EA90424FEA803018
:101700004FEA0C7644F1000448EA03434EEA0B48E2
:101710004FF0000EB2EB080C71EB030724BF6246DA
:1017200039464EEB0E0E4FF0000B00185241494166
:101730004BEB0B0BB2EB080C71EB03077BF1000BCF
:1017400024BF624639464EEB0E0E4FF0000B0018D8
:10175000524149414BEB0B0BB2EB080C71EB030709
:101760007BF1000B24BF624639464EEB0E0E51EA68
:10177000020718BF46F0010616EB0E7655F100027F
:1017800054F1000103D5BDE88901BDE80088BDE83A
:101790008901BDE80048B619524141EB0101A3F1AE
:1017A0000103704780807F7E7D7C7B7A79787776B5
:1017B00076757473727171706F6E6E6D6C6C6B6A2E
:1017C0006A696868676666656464636362616160CC
:1017D000605F5F5E5E5D5D5C5C5B5B5A5A59595849
:1017E00058575756565555555454535352525251B3
:1017F000515050504F4F4F4E4E4D4D4D4C4C4C4B09
:101800004B4B4A4A4A49494948484847474747464F
:10181000464645454544444444434343434242428B
:1018200042414141002B9C4630D477002BD01CB55F
:101830004FEA370703B44FF010004FF01001BAF130
:10184000000F06D0BCF1000FDCBF40F0080040F0F4
:1018500008014FF000000FBCBDE810400BF1010B78
:10186000BBF1010F08BF5FEA170722BF12F10102A7
:1018700011F101014FF0004143F1000300F000407D
:1018800043EA00007047F9D35708D0E746EA064616
:1018900013F1400F4FEA16461FDD13F1200FDFBF93
:1018A00016430A46002120335B42BED0C3F1200715
:1018B00046EA064602FA07F74FEA164646EA0706E0
:1018C000C3F1200722FA03F201FA07F721FA03F124
:1018D0004FF0000342EA0702A7E746EA020646EA9B
:1018E00006464FEA164646EA0106BCBF46EA0646E9
:1018F000360C4FF000034FF000024FF0000194E768
:101900002DE9804C9A46934670B491E8380007C898
:1019100031EA400C48BF34EA430C03D5FFF7E6FD3B
:10192000FFF780FFF0BCBDE8008C2DE9804C9A46A3
:10193000934670B491E8380007C810F0804F08BF94
:1019400013F0804F03D100F005F8FFF76BFFF0BCF8
:10195000BDE8008C20F07F4780EA030023F07F4C35
:1019600007EB0C03A3F57C5300F00040A3F1FE034A
:1019700092F0000F00F0B38095F0000F00F0778038
:101980002DE901494FEA11404FEA144621EA004887
:1019900000FB06FC24EA064708FB06F607FB08F8EE
:1019A00000FB07F718EB06484CEB164C4FEA124BBE
:1019B00018EB07484FEA15464CEB174022EA0B4E4E
:1019C0000BFB06FC25EA06470EFB06F607FB0EFEA0
:1019D0000BFB07F71EEB064E4CEB164C4FF00006C8
:1019E0001EEB074E4CEB174B18EB0B0840F10000B9
:1019F00018EB0E0B58EB000840F100008F1A4FF067
:101A000000013CBFC943661B14BFB5EB040C0021A9
:101A10003CBFC943F61B4FEA17444EEA8E0E27EA35
:101A200004454FEA1C4704FB07622CEA074C05FB00
:101A300007F70CFB05F604FB0CFC16EB074642EB24
:101A4000174216EB0C4642EB1C421BEB060658EB0A
:101A50000202414146EA9E0601D5BDE80189B61958
:101A6000524141EB0101A3F10103BDE801894FEAB5
:101A700014454FEA114724EA054621EA074C05FBC5
:101A800007F406FB07F70CFB06F105FB0CFC11EB5A
:101A9000074144EB17444FEA124711EB0C4144EB6A
:101AA0001C4422EA074C05FB07F206FB07F70CFB78
:101AB00006F605FB0CFC16EB074642EB174216EB4D
:101AC0000C4642EB1C456A1854F1000148BF7047B0
:101AD000B619524141EB0101A3F10103704795F0A2
:101AE000000F37D04FEA11424FEA144721EA02466D
:101AF00024EA074C02FB07F106FB07F70CFB06F490
:101B000002FB0CFC14EB074441EB17414FEA15476D
:101B100014EB0C4441EB1C4125EA074C02FB07F592
:101B200006FB07F70CFB06F602FB0CFC16EB074660
:101B300045EB174516EB0C4645EB1C42121951F1CB
:101B4000000148BF7047B619524141EB0101A3F1B2
:101B5000010370474FEA14454FEA114724EA05464E
:101B600021EA074C05FB07F106FB07F70CFB06F221
:101B70004FF0000605FB0CFC12EB074241EB17414E
:101B800012EB0C4251EB1C4148BF7047921841EBDD
:101B90000101A3F10103704700BFFEE708B5012171
:101BA000082000F015FA4020ADF8000010208DF854
:101BB000030003208DF802006946024800F068F92E
:101BC00008BD0000000C01402DE9FF5F064600F053
:101BD0005BF8552000F0C8F8002406E0284901EB26
:101BE000C601085D00F0C0F8641C082CF6D3442040
:101BF00000F0BAF800F048F8552000F0B5F80024DD
:101C000006E01F4901EBC601085D00F0ADF8641C59
:101C1000082CF6D3BE2000F0A7F800F081F8834628
:101C200000F07EF881464FEA092005B245EA0B052F
:101C3000002D14DAE843401C00F02EFD0746002278
:101C4000104B00F041FD00221346CDE9000100F0E9
:101C500039FECDE9020100F045FC82460CE0284641
:101C600000F01AFD0022074BCDE9020100F02CFD27
:101C7000074600F037FC8246504604B0BDE8F09FAE
:101C8000180000200000B03F10B500F037F8002227
:101C90004021104800F090F940F2EE2000F098F852
:101CA000012240210B4800F087F90F2000F090F846
:101CB00000F012F800BF4021064800F074F9002837
:101CC000F9D100BF4021034800F06DF90028F9D098
:101CD00010BD0000000C014008B54020ADF8000028
:101CE00048208DF8030003208DF802006946024861
:101CF00000F0CEF808BD0000000C014008B54020FF
:101D0000ADF8000010208DF8030003208DF80200CC
:101D10006946024800F0BCF808BD0000000C014014
:101D200070B50025FFF7EAFF002416E0FFF7E6FF95
:101D3000002240210B4800F03FF90A2000F048F84B
:101D4000FFF7CAFF4021074800F02DF9A0402843C3
:101D5000C5B2372000F03CF8641C082CE6D32846B6
:101D600070BD0000000C014070B50446FFF7C6FFCF
:101D7000002525E004F0010080B100224021124836
:101D800000F01AF9082000F023F8012240210E4843
:101D900000F012F93A2000F01BF80FE00022402179
:101DA000094800F009F9462000F012F8012240210C
:101DB000054800F001F9022000F00AF864106D1CDB
:101DC000082DD7D370BD0000000C01407047000003
:101DD0000B4908604FF0E021096941F001014FF023
:101DE000E022116100BF064909680029FBD14FF0CC
:101DF000E021096921F001014FF0E02211617047F3
:101E00001400002010B586B00446012144F20400FD
:101E100000F0DEF84FF40070ADF8140003208DF8E8
:101E2000160018208DF8170005A9174800F030F8A3
:101E30004FF48060ADF8140003208DF816000420E4
:101E40008DF8170005A9104800F022F80194002031
:101E5000ADF80800ADF80A00ADF80C00ADF81000C0
:101E60000C20ADF80E0001A9084800F051FA01223B
:101E700040F22551054800F026FA0121034800F000
:101E800009FA06B010BD000000080140003801400A
:101E90002DE9F04102460025002600200023002401
:101EA000002791F803C00CF00F0591F803C00CF067
:101EB000100CBCF1000F03D091F802C04CEA0505EC
:101EC00091F800C0BCF1000F31D0146800202BE065
:101ED0004FF0010C0CFA00F3B1F800C00CEA030655
:101EE0009E4220D183004FF00F0C0CFA03F7BC4345
:101EF00005FA03FC4CEA040491F803C0BCF1280F76
:101F000006D14FF0010C0CFA00FCC2F814C00AE034
:101F100091F803C0BCF1480F05D14FF0010C0CFA49
:101F200000FCC2F810C0401C0828D1D31460B1F8DE
:101F300000C0BCF1FF0F34DD546800202EE000F13A
:101F4000080C4FF0010808FA0CF3B1F800C00CEAD5
:101F500003069E4221D183004FF00F0C0CFA03F7C9
:101F6000BC4305FA03FC4CEA040491F803C0BCF13D
:101F7000280F05D100F1080C08FA0CF8C2F81480FB
:101F800091F803C0BCF1480F07D100F1080C4FF0E5
:101F9000010808FA0CF8C2F81080401C0828CED3BB
:101FA0005460BDE8F0810246002093680B400BB1FD
:101FB000012000E0002070470AB1016100E04161AA
:101FC000704700BFFEE700BFFEE7704770470000A4
:101FD00029B1064A92690243044B9A6104E0034A1C
:101FE00092698243014B9A617047000000100240E1
:101FF00030B500210022002400232D4D6D6805F02E
:102000000C0121B1042905D0082923D105E0294D6F
:10201000056022E0274D05601FE0254D6D6805F441
:102020007012234D6D6805F48034022505EB924251
:102030001CB9214D554305600BE01D4D6D6805F43D
:1020400000351DB11C4D5543056002E0194D554347
:10205000056002E0174D056000BF00BF144D6D68BC
:1020600005F0F0010909154D6B5C0568DD40456020
:102070000F4D6D6805F4E061090A104D6B5C456811
:10208000DD4085600A4D6D6805F46051C90A0B4D4D
:102090006B5C4568DD40C560054D6D6805F44041E9
:1020A000890B074D6B5CC568B5FBF3F5056130BD69
:1020B0000010024000127A0000093D0000000020DC
:1020C00010000020704710B500F002F810BD0000AD
:1020D0000CB50020019000903348006840F4803037
:1020E0003149086000BF3048006800F400300090BB
:1020F0000198401C0190009818B90198B0F5A06FA4
:10210000F1D12948006800F4003010B1012000909E
:1021100001E0002000900098012843D12348006886
:1021200040F01000214908600846006820F00700D0
:1021300008600846006840F0020008601A484068DD
:10214000194948600846406848600846406840F4BD
:10215000806048600846406820F47C10486008466B
:10216000406840F4E81048600846006840F080701D
:10217000086000BF0C48006800F000700028F9D02B
:102180000948406820F00300074948600846406855
:1021900040F00200486000BF0348406800F00C00B7
:1021A0000828F9D10CBD00000010024000200240B8
:1021B00030B500BF4821B1F1807F01D301201DE07F
:1021C00021F07F40401E4FF0E022506150170F2257
:1021D000002807DA13071D0E0E4B00F00F04241F12
:1021E0001D5503E013071C0E0B4B1C5400BF0020B1
:1021F0004FF0E02290610720106100200028D9D123
:102200004FF0E020006920F001004FF0E02108616C
:1022100030BD000018ED00E000E400E00448006874
:1022200020B103480068401E014908607047000063
:102230001400002010B51348006840F00100114957
:10224000086008464068104908400E494860084642
:1022500000680E4908400B4908600846006820F4F1
:10226000802008600846406820F4FE0048604FF473
:102270001F008860FFF727FF4FF0006004490860E7
:1022800010BD0000001002400000FFF8FFFFF6FE46
:1022900008ED00E021B1828942F40052828104E01D
:1022A00082894DF6FF731A408281704702460020F2
:1022B000B1F5007F00D100BF13880B400BB10120A6
:1022C00000E000207047F0B50346002400260025FA
:1022D000002040F66A17B94200D100BF1846C1F38A
:1022E000421401F01F06012707FA06F5012C01D15F
:1022F0000C3004E0022C01D1103000E014301AB18F
:1023000007682F43076002E00768AF430760F0BD2E
:102310002DE9F04786B005460E460024A24600BFD0
:10232000A1460027B08900B100BF2F462C8A4CF689
:10233000FF700440F08804432C82AC894EF6F31001
:102340000440B08831890843718908430443AC8153
:10235000AC8A4FF6FF400440B0890443AC8201A828
:10236000FFF746FE1F48874202D1DDF810A001E0CA
:10237000DDF80CA0A88900F4004040B10AEBCA00C7
:1023800000EB0A1031684900B0FBF1F807E00AEBF6
:10239000CA0000EB0A1031688900B0FBF1F8642034
:1023A000B8FBF0F004012009642101FB1089A88921
:1023B00000F4004040B1322000EBC900B0FBF1F066
:1023C00000F00700044308E0322000EB091064210C
:1023D000B0FBF1F000F00F0004432C8106B0BDE823
:1023E000F087000000380140C1F308028280704786
:1023F00000BFFEE7490050EAC12018BF04204A0D83
:1024000018BF40F0010040F2FF72B2EB515F08BF0D
:1024100040F00200012808BF0520704730380A2824
:1024200001D20120704700207047000070B50446BB
:102430000D4600BF80210948FFF738FF0128F9D178
:10244000A1B20648FFF7D0FF00BF40210348FFF7C5
:102450002DFF0128F9D1002070BD00000038014097
:10246000FFF7A6FE4FF4E130FFF7CCFCFFF796FB39
:10247000FFF70AFC11E02046FFF7A6FB074600F035
:1024800017FB05462A460B46214604A0FDF7B4FE7D
:1024900084F001040748FFF79BFCECE754656D707E
:1024A000657261747572655F2564203D20252E324A
:1024B000660A000040420F0010B500290AD00878D3
:1024C000002807D005487844FEF712FD002801D007
:1024D000002010BD0248784410BD00009A0700009B
:1024E0009207000021F00042A2F16052B2F5801F75
:1024F00001F0004328BFD2F17F6C0BD95FEA001CCA
:1025000043EAC20242EB507018BF704728BF20F068
:1025100001007047B2F5801FBCBF184670474FEAF4
:10252000410C1CF5001F02D2084600F032BB70B50A
:1025300000F074F900000089FFF7F6BF4FF000408B
:10254000A0F580007047000010B591EA030F48BF66
:1025500083F0004300F1CA81841A71EB030C05D2A9
:10256000121943EB0C03001B61EB0C01DFF824E1B3
:102570004FEA1154A4EB135C1EEA430F18BF9EEA06
:10258000445F73D023EA0E03DCF1200E21EA0451EC
:1025900043F4801332D322FA0CFE10EB0E0023FA20
:1025A0000CFE41EB0E01CCF1200E03FA0EFE10EBF7
:1025B0000E0051F10001B1F5801FCCF1200E32D296
:1025C00001EB045112FA0EF2BDE8104058BF7047FB
:1025D000401C38BF5FEA420218BF7047002814BF92
:1025E00020F0010041F100014FEA410313F5001F03
:1025F00038BF7047A1F1C04100F05EB9012A43EB3A
:102600000302ACF1200CDCF11F0E32BF4FF0000EC4
:1026100023FA0CF310EB030041EB0451B4EB115F10
:10262000D0D0A1EB045101F5801149085FEA3000D8
:1026300001EB04510ED350F1000038BF12FA0EFE28
:1026400008D1BDE81040C9E7401C38BF5FEA42022C
:10265000CAD1C3E7BDE810404FEA410313F5001F9C
:1026600038BF7047A1F1C04100F026B99EEA445F2F
:1026700008D011EA5E0FBDE8104004BF01F0004130
:1026800000207047BDE8104070B500F0C7F800BFEB
:1026900064FBBE3E0000E0FF10F0004248BF404235
:1026A000B0FA80F310FA03F10AD0C3F11D0303F569
:1026B00080634FEA415002EB035202EBD121704795
:1026C0004FF0000070470000DFF848C170B51CEA09
:1026D000111E1EBF1CEA13159EEA0C0F95EA0C0F83
:1026E00000F06F8081EA030423EA4C134EEAD47EA3
:1026F00021EA4C1141F4801143F48013AE44A1FB54
:10270000024CA0FB0365AEF17F7E361955EB0C053C
:10271000A1FB034C4CF10003A0FB021C16EB0C06C2
:10272000654153F10003094218BF46F0010613F456
:10273000007F0BD14FEA03314FEA0530340341EA01
:10274000155140EA16506FF003020AE04FEAC32128
:102750004FEAC520F40241EA555140EA56506FF065
:10276000020202EB2E4201EB025585EACE710AD03D
:102770005FEA440C18BF24F0004450F1000041F11E
:10278000000120EAD47040F2FE7C624500D270BDA8
:10279000A84214BF4FF080444FF04044002E08BFC1
:1027A0000024BEF1806FA8BFA1F1C041BDE8704018
:1027B00080F282804FF0000001F1C04101F0004141
:1027C00070479EEA0C0F0CEA131518BF95EA0C0F20
:1027D00006D04FF0000081EA030E0EF0004170BDFC
:1027E00000F01CF88900013E00F007B800F009B8BD
:1027F0004FEA430C5FEA5C5C08D081EA030100F019
:102800005BB84FEA410C5FEA5C5CF6D14FF0000028
:10281000014970470000FF070000F87F0EF1020E2B
:102820002EF0030E5EF8046B364205D4012A43EB0A
:10283000030515F5001F12D8012841EB010C1CF50A
:10284000001F0CD80ED14FEAD17C15F5001F0CEB00
:102850004C0C0CF1020C08BF4CEBD37C04E04FF0A5
:10286000080C01E04FEAD37C0CEB4C0526FA05F688
:1028700006F00706B6F1040C06D20EEB860CBDE896
:1028800070404CF0010C6047DFE80CF0090B0202CD
:102890004FF000414FF00000A1F5002170BD194636
:1028A0001046012851EB010418BFD4F5001484BF71
:1028B000002001F0004170BD0808A0F500114FEAAA
:1028C0003101704791EA030F10B581F000413FF5E7
:1028D00043AE83F0004300F009B8000010B591EA60
:1028E000030F48BF83F000433FF536AE841A71EB07
:1028F000030C07D212198CF0004C43EB0C03001BA5
:1029000061EB0C01DFF8A4E14FEA1154A4EB135C76
:102910001EEA430F18BF9EEA445F00F0B08023EA2E
:102920006E03524221EA0451C3EB6E0338BF5B1EB3
:10293000DCF1200E25D322FA0CFE10EB0E0043FA38
:102940000CFE41EB0E01CCF1200E03FA0EFE10EB53
:102950000E0051F10001CCF1200E29D412FA0EF232
:1029600001EB0451BDE8104058BF7047401C1CBF2C
:10297000B2F1004F704700280CBF491C20F0010045
:10298000704712EB020E43EB030218BF4FF0010E2B
:102990004EEA4202ACF1200CDCF11E0E54D943FA8F
:1029A0000CFE10EB0E0051F1FF31CCF11E0ED5D50F
:1029B0000EF1010E12FA0EFE404141EB010101EB56
:1029C000445C5FEA5C5C10D910EBDE7001EB0451F3
:1029D00038BFBEF1004FBDE8104018BF7047002857
:1029E0000CBF491C20F00100704730D24FEAD42CB4
:1029F00011F5001124F400641BD0B1FA81F20B3AF6
:102A0000A41AA41ED2F12003914030FA03F3194313
:102A1000904001EBCC71002C01EB0451BDE810405B
:102A2000A8BF704701F1C0414FF0000001F0004124
:102A30007047B0FA80F310FA03F100D110BDE41A28
:102A4000173C4805C90AE4E701EB045110BD4910E1
:102A500001EB0451BDE810404FEA300002E04FF0B6
:102A6000000170474A0008BF0042F8D0B2F5001FCD
:102A700028BF704701F000414FF0000070479EEA08
:102A8000445F07D011EA5E0FBDE8104004BF00218B
:102A900000207047BDE8104070B5FFF7BFFE00BFD3
:102AA00040DFF63E83F00041104670470000E0FF33
:102AB00043004FEAD30C4FEA3C0C43401FBF400792
:102AC0000CF1605113F0FE4F70471CF0006F03D102
:102AD00000200CF0004170470CF0004343EA5070B6
:102AE00010B540EACC0000F00EF800BF00000092E4
:102AF0004FEA0001FFF7E0BE4FF000414FF0000049
:102B0000A1F5002170470EF1020E2EF0030E5EF8C3
:102B1000044B244204D44FEA4102B2F17F4F11D852
:102B20004FEA4003B3F17F4F0CD80ED14FEAD07C6F
:102B3000B2F17F4F0CEB4C0C0CF1020C08BF4CEBCC
:102B4000D17C04E04FF0080C01E04FEAD17C0CEBA3
:102B50004C0324FA03F404F00704B4F1040C06D285
:102B60000EEB840CBDE810404CF0010C6047DFE830
:102B70000CF0070802024FF00040A0F5800010BDE5
:102B80000846420018BFD2F1807288BF00F00040B2
:102B900010BDFF2141EAD050C0057047FDF730BDA0
:102BA00002400000000000A00000000005400000FE
:102BB000000000C8000000000C4000000000409C25
:102BC00000000000194000000020BCBE0000000012
:102BD00034400000BFC91B8E00000004B540000057
:102BE000504BCFD06607E2CF010000006C410000DF
:102BF0003E8251AADFEEA73401000000D942000056
:102C0000DCB5A0E23A301F97FFFFFFFFB44500009C
:102C1000FD25A0C8E9A3C14FFFFFFFFFFF3F000054
:102C20000000008000000000FF3F00000000008066
:102C3000000000003A7474003A7474003A7474002E
:102C40007C2C00080000002034000000280100084F
:102C5000B02C0008340000205C070000440100088C
:102C60001C00000043000000F8FFFFFF0C00000004
:102C70000E0000000F0000002E0000000000000009
:102C800001020304010203040607080902040608FE
:102C90000000000028FF642E3118027028B5077963
:102CA000A20003C3000000000000000000000000BC
:04000005080000ED02
:00000001FF
