:020000040800F2
:100000006806002089010008850200087D020008BA
:1000100081020008430200085904000800000000A3
:10002000000000000000000000000000890200083D
:10003000470200080000000087020008E1030008F2
:10004000A3010008A3010008A3010008A301000800
:10005000A3010008A3010008A3010008A3010008F0
:10006000A3010008A3010008A3010008A3010008E0
:10007000A3010008A3010008A3010008A3010008D0
:10008000A3010008A3010008A3010008A3010008C0
:10009000A3010008A3010008A3010008A3010008B0
:1000A000A3010008A3010008A3010008A3010008A0
:1000B000A3010008A3010008A3010008A301000890
:1000C000A3010008A3010008A3010008A301000880
:1000D000A3010008A3010008A3010008A301000870
:1000E000A3010008A3010008A301000800F002F822
:1000F00000F03AF80AA090E8000C82448344AAF188
:100100000107DA4501D100F02FF8AFF2090EBAE885
:100110000F0013F0010F18BFFB1A43F0010318473B
:100120005003000070030000103A24BF78C878C163
:10013000FAD8520724BF30C830C144BF04680C60ED
:10014000704700000023002400250026103A28BF35
:1001500078C1FBD8520728BF30C148BF0B60704739
:100160001FB51FBD10B510BD00F031F81146FFF7E7
:10017000F7FF00F073F900F04FF803B4FFF7F2FF58
:1001800003BC00F057F800000948804709480047C1
:10019000FEE7FEE7FEE7FEE7FEE7FEE7FEE7FEE737
:1001A000FEE7FEE704480549054A064B7047000094
:1001B000F9030008ED000008680000206806002030
:1001C000680200206802002070477047704775463B
:1001D00000F02CF8AE4605006946534620F00700B3
:1001E000854618B020B5FFF7DDFFBDE820404FF091
:1001F00000064FF000074FF000084FF0000B21F011
:100200000701AC46ACE8C009ACE8C009ACE8C009DD
:10021000ACE8C0098D46704710B50446AFF30080C6
:100220002046BDE81040FFF7A8BF00000048704717
:100230000400002001491820ABBEFEE726000200A2
:10024000704700BFFEE770470B4908604FF0E021A0
:10025000096941F001014FF0E022116100BF064938
:1002600009680029FBD14FF0E021096921F0010163
:100270004FF0E022116170470000002000BFFEE750
:1002800000BFFEE770477047704710B500F002F8F6
:1002900010BD00000CB500200190009033480068AC
:1002A00040F480303149086000BF3048006800F4F5
:1002B000003000900198401C0190009818B90198F6
:1002C000B0F5A06FF1D12948006800F4003010B1FA
:1002D0000120009001E0002000900098012843D107
:1002E0002348006840F01000214908600846006873
:1002F00020F0070008600846006840F0020008602F
:100300001A484068194948600846406848600846ED
:10031000406840F4806048600846406820F47C10E3
:1003200048600846406840F4E810486008460068A5
:1003300040F08070086000BF0C48006800F000705A
:100340000028F9D00948406820F0030007494860B8
:100350000846406840F00200486000BF034840681B
:1003600000F00C000828F9D10CBD0000001002407C
:100370000020024030B500BF4821B1F1807F01D399
:1003800001201DE021F07F40401E4FF0E02250612F
:1003900050170F22002807DA13071D0E0E4B00F02E
:1003A0000F04241F1D5503E013071C0E0B4B1C5498
:1003B00000BF00204FF0E022906107201061002074
:1003C0000028D9D14FF0E020006920F001004FF063
:1003D000E021086130BD000018ED00E000E400E01D
:1003E0000448006820B103480068401E01490860C5
:1003F000704700000000002010B51348006840F06E
:1004000001001149086008464068104908400E493B
:100410004860084600680E4908400B4908600846D5
:10042000006820F4802008600846406820F4FE0040
:1004300048604FF41F008860FFF727FF4FF000600F
:100440000449086010BD0000001002400000FFF8E1
:10045000FFFFF6FE08ED00E000BFFEE7FFF78AFFB2
:1004600002E00248FFF7F0FEFBE7000040420F0009
:10047000900400080000002004000000280100088B
:1004800094040008040000206406000044010008F1
:040490000000000068
:04000005080000ED02
:00000001FF
