:020000040800F2
:100000006806002089010008D50600081B040008C6
:10001000D1060008A7020008C90800080000000077
:10002000000000000000000000000000F9060008C9
:10003000AB02000800000000D706000851080008C5
:10004000A3010008A3010008A3010008A301000800
:10005000A3010008A3010008A3010008A3010008F0
:10006000A3010008A3010008A3010008A3010008E0
:10007000A3010008A3010008A3010008A3010008D0
:10008000A3010008A3010008A3010008A3010008C0
:10009000A3010008A3010008A3010008A3010008B0
:1000A000A3010008A3010008A3010008A3010008A0
:1000B000A3010008A3010008A3010008A301000890
:1000C000A3010008A3010008A3010008A301000880
:1000D000A3010008A3010008A3010008A301000870
:1000E000A3010008A3010008A301000800F002F822
:1000F00000F03AF80AA090E8000C82448344AAF188
:100100000107DA4501D100F02FF8AFF2090EBAE885
:100110000F0013F0010F18BFFB1A43F0010318473B
:1001200094080000B4080000103A24BF78C878C1D1
:10013000FAD8520724BF30C830C144BF04680C60ED
:10014000704700000023002400250026103A28BF35
:1001500078C1FBD8520728BF30C148BF0B60704739
:100160001FB51FBD10B510BD00F063F81146FFF7B5
:10017000F7FF00F0ABFB00F081F803B4FFF7F2FFEC
:1001800003BC00F089F8000009488047094800478F
:10019000FEE7FEE7FEE7FEE7FEE7FEE7FEE7FEE737
:1001A000FEE7FEE704480549054A064B7047000094
:1001B00069080008ED0000086800002068060020BB
:1001C000680200206802002010B5203AC0F00B80C1
:1001D000B1E81850203AA0E81850B1E81850A0E84B
:1001E0001850BFF4F5AF5FEA027C24BFB1E81850A5
:1001F000A0E8185044BF18C918C0BDE810405FEA15
:10020000827C24BF51F8043B40F8043B08BF704790
:10021000D20728BF31F8023B48BF11F8012B28BF95
:1002200020F8023B48BF00F8012B70477047704729
:100230007047754600F02CF8AE46050069465346F7
:1002400020F00700854618B020B5FFF7ABFFBDE8EA
:1002500020404FF000064FF000074FF000084FF02D
:10026000000B21F00701AC46ACE8C009ACE8C009BE
:10027000ACE8C009ACE8C0098D46704710B504462B
:10028000AFF300802046BDE81040FFF776BF0000C6
:10029000004870470400002001491820ABBEFEE76B
:1002A00026000200704700BFFEE770470B49086058
:1002B0004FF0E021096941F001014FF0E0221161A6
:1002C00000BF064909680029FBD14FF0E021096908
:1002D00021F001014FF0E022116170470000002081
:1002E0002DE9F041024600250026002000230024CD
:1002F000002791F803C00CF00F0591F803C00CF033
:10030000100CBCF1000F03D091F802C04CEA0505B7
:1003100091F800C0BCF1000F31D0146800202BE030
:100320004FF0010C0CFA00F3B1F800C00CEA030620
:100330009E4220D183004FF00F0C0CFA03F7BC4310
:1003400005FA03FC4CEA040491F803C0BCF1280F41
:1003500006D14FF0010C0CFA00FCC2F814C00AE000
:1003600091F803C0BCF1480F05D14FF0010C0CFA15
:1003700000FCC2F810C0401C0828D1D31460B1F8AA
:1003800000C0BCF1FF0F34DD546800202EE000F106
:10039000080C4FF0010808FA0CF3B1F800C00CEAA1
:1003A00003069E4221D183004FF00F0C0CFA03F795
:1003B000BC4305FA03FC4CEA040491F803C0BCF109
:1003C000280F05D100F1080C08FA0CF8C2F81480C7
:1003D00091F803C0BCF1480F07D100F1080C4FF0B1
:1003E000010808FA0CF8C2F81080401C0828CED387
:1003F0005460BDE8F0810246002093680B400BB1C9
:10040000012000E0002070474161704701617047A2
:100410000AB1016100E04161704700BFFEE710B51D
:10042000012000F0ADF810BD08B501211C2000F03E
:1004300053F94FF4F150ADF8000003208DF802009D
:1004400010208DF8030069460F48FFF749FF4FF26F
:100450002000ADF8000003208DF8020010208DF878
:10046000030069460948FFF73BFF4FF40050ADF821
:10047000000003208DF8020010208DF8030069466B
:100480000348FFF72DFF08BD00080140000C0140A4
:100490000010014010B5382000F072F80C2000F078
:1004A0006FF8062000F06CF8012000F069F810BD2C
:1004B00070B504460E460EB9E5B202E004F1400004
:1004C000C5B245F0800000F05BF870BD70B5054620
:1004D0000E46144631462846FFF7EAFF204600F054
:1004E000A3F870BD70B505460E4614463146284641
:1004F000FFF7DEFF03E014F8010B00F095F8207819
:100500000028F8D170BD000010B51A48406820F4EA
:100510007000184948600846406840F48000486010
:1005200020211548FFF770FF4FF480511348FFF763
:100530006DFF4FF400511148FFF768FF41F288301A
:10054000FFF7B4FE00BF4FF400510A48FFF753FF16
:100550000028F8D10748406820F470000549486039
:100560000846406840F44010486049140348FFF7CB
:100570004BFF10BD0010014000080140000C01407D
:1005800010B50446FFF7C0FF20212448FFF73CFFC9
:100590004FF480512248FFF737FF04F001024FF477
:1005A00080411F48FFF734FFC4F340024FF400417D
:1005B0001B48FFF72DFFC4F380024FF4007117486A
:1005C000FFF726FFC4F3C0024FF480611348FFF722
:1005D0001FFFC4F300124FF400611048FFF718FF2B
:1005E000C4F340124FF480510C48FFF711FFC4F3DD
:1005F000801220210A48FFF70BFFE2094FF4005157
:100600000848FFF705FF4FF400510548FFF7FEFECD
:100610004FF400510248FFF7F7FE10BD00080140FB
:10062000000C01400010014010B50446FFF76CFFBC
:1006300020212448FFF7EAFE4FF480512248FFF7BB
:10064000E3FE04F001024FF480411F48FFF7E0FE93
:10065000C4F340024FF400411B48FFF7D9FEC4F336
:1006600080024FF400711748FFF7D2FEC4F3C002B6
:100670004FF480611348FFF7CBFEC4F300124FF430
:1006800000611048FFF7C4FEC4F340124FF48051DC
:100690000C48FFF7BDFEC4F3801220210A48FFF783
:1006A000B7FEE2094FF400510848FFF7B1FE4FF4DE
:1006B00000510548FFF7AAFE4FF400510248FFF72A
:1006C000A3FE10BD00080140000C014000100140D5
:1006D00000BFFEE77047704729B1064A926902439E
:1006E000044B9A6104E0034A92698243014B9A6188
:1006F0007047000000100240704710B500F002F88B
:1007000010BD00000CB50020019000903348006837
:1007100040F480303149086000BF3048006800F480
:10072000003000900198401C0190009818B9019881
:10073000B0F5A06FF1D12948006800F4003010B185
:100740000120009001E0002000900098012843D192
:100750002348006840F010002149086008460068FE
:1007600020F0070008600846006840F002000860BA
:100770001A48406819494860084640684860084679
:10078000406840F4806048600846406820F47C106F
:1007900048600846406840F4E81048600846006831
:1007A00040F08070086000BF0C48006800F00070E6
:1007B0000028F9D00948406820F003000749486044
:1007C0000846406840F00200486000BF03484068A7
:1007D00000F00C000828F9D10CBD00000010024008
:1007E0000020024030B500BF4821B1F1807F01D325
:1007F00001201DE021F07F40401E4FF0E0225061BB
:1008000050170F22002807DA13071D0E0E4B00F0B9
:100810000F04241F1D5503E013071C0E0B4B1C5423
:1008200000BF00204FF0E0229061072010610020FF
:100830000028D9D14FF0E020006920F001004FF0EE
:10084000E021086130BD000018ED00E000E400E0A8
:100850000448006820B103480068401E0149086050
:10086000704700000000002010B51348006840F0F9
:1008700001001149086008464068104908400E49C7
:100880004860084600680E4908400B490860084661
:10089000006820F4802008600846406820F4FE00CC
:1008A00048604FF41F008860FFF727FF4FF000609B
:1008B0000449086010BD0000001002400000FFF86D
:1008C000FFFFF6FE08ED00E000BFFEE786B0142251
:1008D0002CA101A8FFF778FC0024FFF783FFFFF7A6
:1008E000A3FDFFF7D7FD2CA200210120FFF7FAFDA1
:1008F0002DA201210220FFF7F5FD2D48FFF7D6FCC0
:10090000FFF78DFD3DE04FF47A70B4FBF0F5B4FBDA
:10091000F0F100FB11406421B0FBF1F64FF47A7066
:10092000B4FBF0F100FB11406421B0FBF1F201FBDC
:1009300012000A21B0FBF1F70A20B4FBF0F100FB32
:10094000114801A8425D01210C20FFF7BFFD01A85D
:10095000825D01210D20FFF7B9FD01A810F80820E4
:1009600001210E20FFF7B2FD01A8C25D01210F2079
:10097000FFF7ACFD641C1820FFF702FE0C48FFF7E0
:1009800095FCC0E73031323334353637383941429F
:10099000434445460000000053544D3332204C433D
:1009A00044313630320A000048656C6C6F210A0011
:1009B00040420F00D409000800000020040000009D
:1009C00028010008D809000804000020640600007F
:0809D0004401000800000000D2
:04000005080000ED02
:00000001FF
