:020000040800F2
:100000005004002005010008DD030008D5030008A6
:10001000D9030008C1010008310D000800000000EC
:10002000000000000000000000000000D1060008F1
:10003000C501000800000000ED030008DD0900080C
:100040001F0100081F0100081F0100081F01000810
:100050001F0100081F0100081F0100081F01000800
:100060001F0100081F0100081F0100081F010008F0
:100070001F0100081F0100081F0100081F010008E0
:100080001F0100081F0100081F0100081F010008D0
:100090001F0100081F0100081F0100081F010008C0
:1000A0001F0100081F0100081F0100081F010008B0
:1000B0001F0100081F0100081F0100081F010008A0
:1000C0001F0100081F0100081F0100081F01000890
:1000D0001F0100081F0100081F0100081F01000880
:1000E0001F0100081F0100081F010008DFF810D0E1
:1000F00000F030F800480047FD0E0008AFF3008024
:10010000500400200648804706480047FEE7FEE707
:10011000FEE7FEE7FEE7FEE7FEE7FEE7FEE7FEE7B7
:10012000F5090008ED00000830B50B460146002037
:100130002022012409E021FA02F59D4205D303FAA9
:1001400002F5491B04FA02F52844151EA2F101022A
:10015000F1DC30BD064C074D06E0E06840F00103DD
:1001600094E8070098471034AC42F6D3FFF7C2FF7B
:10017000540F0008740F000810B5012000F058F962
:10018000002000F055F910BD08B501460020009090
:10019000034800900098084400900098008808BD2B
:1001A000006C004008B500220092044A0092009AB8
:1001B00002440092009A116008BD0000006C0040EB
:1001C00000BFFEE7704700000B4908604FF0E021D8
:1001D000096941F001014FF0E022116100BF0649B9
:1001E00009680029FBD14FF0E021096921F00101E4
:1001F0004FF0E022116170471400002010B586B066
:100200000446012144F2040000F002F94FF40070AA
:10021000ADF8140018208DF8170003208DF8160093
:1002200005A9144800F046F84FF48060ADF81400BA
:1002300004208DF8170003208DF8160005A90D483D
:1002400000F038F801940020ADF80800ADF80A007D
:10025000ADF80C00ADF810000C20ADF80E0001A9AF
:10026000054800F0AFFC0121034800F091FC06B006
:1002700010BD0000000801400038014008B5012110
:10028000102000F0C5F84FF40050ADF80000032036
:100290008DF8020010208DF803006946044800F034
:1002A00009F801225103024800F08FF808BD000050
:1002B000001001402DE9F0410246002500260020F3
:1002C00000230024002791F803C00CF00F0591F8DB
:1002D00003C00CF0100CBCF1000F03D091F802C069
:1002E0004CEA050591F800C0BCF1000F31D014684C
:1002F00000202BE04FF0010C0CFA00F3B1F800C025
:100300000CEA03069E4220D183004FF00F0C0CFA3A
:1003100003F7BC4305FA03FC4CEA040491F803C05C
:10032000BCF1280F06D14FF0010C0CFA00FCC2F80A
:1003300014C00AE091F803C0BCF1480F05D14FF09A
:10034000010C0CFA00FCC2F810C0401C0828D1D3E4
:100350001460B1F800C0BCF1FF0F34DD5468002018
:100360002EE000F1080C4FF0010808FA0CF3B1F888
:1003700000C00CEA03069E4221D183004FF00F0C0F
:100380000CFA03F7BC4305FA03FC4CEA040491F8A9
:1003900003C0BCF1280F05D100F1080C08FA0CF8D5
:1003A000C2F8148091F803C0BCF1480F07D100F1E6
:1003B000080C4FF0010808FA0CF8C2F81080401C35
:1003C0000828CED35460BDE8F0810AB1016100E095
:1003D0004161704700BFFEE700BFFEE770470000C5
:1003E000014908627047000000000E42704700009B
:1003F00029B1064AD2690243044BDA6104E0034A98
:10040000D2698243014BDA6170470000001002405C
:1004100029B1064A92690243044B9A6104E0034AF7
:1004200092698243014B9A617047000000100240BC
:1004300001490860704700004004424230B5002185
:100440000022002400232D4D6D6805F00C0121B120
:10045000042905D0082923D105E0294D056022E0B3
:10046000274D05601FE0254D6D6805F47012234D82
:100470006D6805F48034022505EB92421CB9214DCC
:10048000554305600BE01D4D6D6805F400351DB149
:100490001C4D5543056002E0194D5543056002E0CF
:1004A000174D056000BF00BF144D6D6805F0F001E9
:1004B0000909154D6B5C0568DD4045600F4D6D68A1
:1004C00005F4E061090A104D6B5C4568DD4085600C
:1004D0000A4D6D6805F46051C90A0B4D6B5C4568A7
:1004E000DD40C560054D6D6805F44041890B074D41
:1004F0006B5CC568B5FBF3F5056130BD00100240CB
:1005000000127A0000093D000000002010000020C9
:1005100010B501460022002300204A11012A02D111
:10052000094C236806E0022A02D1074C236A01E045
:10053000054C636A01F01F02012494401C400CB179
:10054000012000E0002010BD0010024000210B4AF5
:1005500011700A4A203A82F82010012802D004289B
:1005600008D103E00121054A117004E00521034A86
:10057000117000E000BF00BF704700002010024073
:1005800001490860704700003C0442420249096A80
:100590000143014A116270470010024010B5012169
:1005A0004FF0C050FFF724FF0120FFF719FF042090
:1005B000FFF7EAFD4AF68661884222D0FFF7DCFDAC
:1005C0000120FFF7C3FF00BF4120FFF7A1FF002874
:1005D000FAD04FF48070FFF7D9FF0120FFF7D0FF6A
:1005E00000F05AF800F062F847F6FF7000F044F8A7
:1005F00000F052F84AF686610420FFF7D3FD002090
:1006000010BD0120FCE700000348008840F0100006
:100610000149088070470000042800400348008812
:100620004FF6EF71084001490880704704280040E8
:1006300000210022002308480188001D0388001FB4
:100640000288914204D0001D008840EA02407047B1
:1006500043EA0140FBE700001828004000B50246CD
:10066000FFF7D2FF100C03490880091D0A80FFF72D
:10067000D5FF00BD1828004000B50246FFF7C4FFB3
:10068000C2F3034003490880091D0A80FFF7C6FF33
:1006900000BD00000828004000BF0348008800F0AB
:1006A00020000028F9D0704704280040074800883F
:1006B0004FF6F77108400549088000BF03480088DD
:1006C00000F008000028F9D070470000042800401E
:1006D000704710B500F002F810BD00000CB5002006
:1006E000019000903348006840F480303149086040
:1006F00000BF3048006800F4003000900198401CB2
:100700000190009818B90198B0F5A06FF1D129486F
:10071000006800F4003010B10120009001E00020DA
:1007200000900098012843D12348006840F0100051
:10073000214908600846006820F007000860084664
:10074000006840F0020008601A4840681949486093
:100750000846406848600846406840F48060486049
:100760000846406820F47C1048600846406840F421
:10077000E81048600846006840F08070086000BFDC
:100780000C48006800F000700028F9D00948406863
:1007900020F00300074948600846406840F0020026
:1007A000486000BF0348406800F00C000828F9D1F9
:1007B0000CBD0000001002400020024030B587B0A0
:1007C000002547A000F0B6FA4BA000F0B3FA0421D0
:1007D00001A800F069FA4DA000F0ACFA022102A8CD
:1007E00000F062FA4EA000F0A5FA022103A800F082
:1007F0005BFA4FA000F09EFA022104A800F054FA20
:1008000050A000F097FA022105A800F04DFA52A07E
:1008100000F090FA022106A800F046FA40F2B27405
:100820001AE004F0030028B96420B4FBF0F100FBE7
:10083000114030B94FF4C870B4FBF0F100FB114027
:1008400010B94FF4B77001E040F26D1040F2A321EF
:10085000484305EBC015641C0198A042E1D80198FB
:1008600000F0030030B964210198B0FBF1F201FB04
:10087000120038B94FF4C8710198B0FBF1F201FBD6
:10088000120018B91D203949886002E01C20374940
:100890008860012408E0354850F8240040F2A32184
:1008A000484305EBC015641C0298A042F3D8039896
:1008B000401E40F2A321484305EBC0154FF461618F
:1008C000049848430599C1EB011100EB810006999A
:1008D000084405442846FFF7C1FE07B030BD0000BC
:1008E000506C65617365205365742074686520746D
:1008F000696D653A0A000000456E7465722074687F
:100900006520796561723A0A00000000456E7465E1
:100910007220746865206D6F6E74683A0A0000007A
:10092000456E74657220746865206461793A0A00C6
:10093000456E7465722074686520686F75723A0A36
:1009400000000000456E74657220746865206D6952
:100950006E7574653A0A0000456E7465722074689D
:1009600065207365636F6E643A0A0000180000200A
:1009700030B500BF4821B1F1807F01D301201DE0D7
:1009800021F07F40401E4FF0E022506150170F22AF
:10099000002807DA13071D0E0E4B00F00F04241F6A
:1009A0001D5503E013071C0E0B4B1C5400BF002009
:1009B0004FF0E02290610720106100200028D9D17B
:1009C0004FF0E020006920F001004FF0E0210861C5
:1009D00030BD000018ED00E000E400E004480068CD
:1009E00020B103480068401E0149086070470000BC
:1009F0001400002010B51348006840F001001149B0
:100A0000086008464068104908400E49486008469A
:100A100000680E4908400B4908600846006820F449
:100A2000802008600846406820F4FE0048604FF4CB
:100A30001F008860FFF74DFE4FF00060044908601A
:100A400010BD0000001002400000FFF8FFFFF6FE9E
:100A500008ED00E0F0B589B006464348B6FBF0F576
:100A6000B6FBF0F100FB11674FF46160B7FBF0F0EB
:100A700006904FF46160B7FBF0F100FB11703C2170
:100A8000B0FBF1F007904FF46160B7FBF0F100FBB1
:100A900011703C21B0FBF1F201FB1200089040F212
:100AA000B27416E004F0030028B96420B4FBF0F13E
:100AB00000FB114030B94FF4C870B4FBF0F100FBFB
:100AC000114010B94FF4B77001E040F26D102D1ACB
:100AD000641C04F0030028B96420B4FBF0F100FBAF
:100AE000114030B94FF4C870B4FBF0F100FB114075
:100AF00010B94FF4B77001E040F26D10A842D1D99F
:100B0000039404F0030028B96420B4FBF0F100FB67
:100B1000114030B94FF4C870B4FBF0F100FB114044
:100B200018B91D201149886002E01C200F49886017
:100B3000012404E00D4850F824002D1A641C0B48D1
:100B400050F82400A842F5D90494681C0590DDE90A
:100B500006120898CDE90012029005A003A90EC95B
:100B600000F0E8F809B0F0BD805101001800002045
:100B7000252E34642D252E32642D252E3264202519
:100B80002E32643A252E32643A252E32640A000051
:100B900021B1828942F40052828104E082894DF6BB
:100BA000FF731A408281704702460020B1F5007F32
:100BB00000D100BF13880B400BB1012000E00020E2
:100BC000704700002DE9F04786B005460E46002428
:100BD000A24600BFA1460027B08900B100BF2F4642
:100BE0002C8A4CF6FF700440F08804432C82AC89B8
:100BF0004EF6F3100440B0883189084371890843E8
:100C00000443AC81AC8A4FF6FF400440B0890443F2
:100C1000AC8201A8FFF712FC1F48874202D1DDF821
:100C200010A001E0DDF80CA0A88900F4004040B15C
:100C30000AEBCA0000EB0A1031684900B0FBF1F87A
:100C400007E00AEBCA0000EB0A1031688900B0FB2C
:100C5000F1F86420B8FBF0F004012009642101FBE5
:100C60001089A88900F4004040B1322000EBC9008F
:100C7000B0FBF1F000F00700044308E0322000EB85
:100C800009106421B0FBF1F000F00F0004432C8147
:100C900006B0BDE8F08700000038014001468888B2
:100CA000C0F30800704700007FB504460D460020E1
:100CB00000900190029003900DE000BF20211948A0
:100CC000FFF772FF0028F9D01648FFF7E7FF31461B
:100CD000761C4DF82100AE42EFD3042D17D10098B9
:100CE00030384FF47A7148430199303901EBC10231
:100CF00002EB011100EB81010298303800EB80001B
:100D000001EB4001039830380844206008E0019866
:100D100030380099303901EB810100EB410020604F
:100D20007FBD000000380140C1F308028280704797
:100D300000BFFEE70FB4054B10B503A9044A0298A3
:100D400000F018F810BC5DF814FB0000C90E000894
:100D50004C00002002E008C8121F08C1002AFAD186
:100D600070477047002001E001C1121F002AFBD12B
:100D7000704700002DE9FF4F89B09B4604460025CF
:100D800006E025280BD05A460B999047641C6D1C31
:100D900020780028F5D10DB02846BDE8F08F002757
:100DA000B8460122474900E0074314F8013F203BC1
:100DB00002FA03F00842F7D120782E2819D114F84E
:100DC000010F47F004072A280ED06FF02F02207879
:100DD000A0F1300109290CD808EB880102EB410190
:100DE00000EB0108641CF2E70A98641C50F8048BBD
:100DF0000A9020780028CED0642808D0692806D030
:100E000075281ED05A460B9990476D1C58E00A99D8
:100E10004FF00A0901C90A91002802DA40422D2147
:100E200002E0390504D52B218DF82010012103E0C3
:100E3000F90704D02021F7E78A4608AE0DE000212B
:100E4000FAE70A994FF00A0901C90A91F7E74946FA
:100E5000FFF76AF9303106F8011D0028F7D1ADEB34
:100E6000060000F12009780701D44FF00108C845B9
:100E700002DDA8EB090000E000208046002706E024
:100E800008A85A46C05D0B9990476D1C7F1C5745BA
:100E9000F6DB04E030205A460B9990476D1CB8F100
:100EA0000001A8F10108F5DC05E016F8010B5A462F
:100EB0000B9990476D1CB9F10001A9F10109F4DC0F
:100EC000641C65E70928010070B504460D4600BFA3
:100ED00080210948FFF768FE0128F9D1A1B2064830
:100EE000FFF722FF00BF40210348FFF75DFE012806
:100EF000F9D1002070BD000000380140FFF738FD37
:100F0000FFF7BCF94FF4E130FFF778F9FFF746FB44
:100F100004460CB9FFF752FC16E000224FF40051D2
:100F20000A48FFF752FA4CF25030FFF74DF9012210
:100F300051030648FFF749FA0548FFF745F9FFF75F
:100F400077FB0546FFF786FDE7E70000001001404C
:100F500040420F00740F0008000000205000000005
:100F6000540D0008C40F00085000002000040000C9
:100F7000640D0008000000000102030401020304E4
:100F8000060708090204060800000000000000002F
:100F90001F0000001C0000001F0000001E000000D9
:100FA0001F0000001E0000001F0000001F000000C6
:100FB0001E0000001F0000001E0000001F000000B7
:040FC000000000002D
:04000005080000ED02
:00000001FF
