:020000040800F2
:10000000401E002001010008E1020008E50200088E
:10001000E9020008ED020008F102000800000000FB
:10002000000000000000000000000000F5020008D1
:10003000F902000800000000C7780008FD0200086F
:100040001B0100081B0100081B0100081B01000820
:100050001B0100081B0100081B0100081B01000810
:100060001B0100081B0100081B0100081B01000800
:100070001B0100081B0100081B0100081B010008F0
:100080001B0100081B0100081B0100081B010008E0
:100090001B0100081B0100081B0100081B010008D0
:1000A0001B0100081B0100081B0100081B010008C0
:1000B0001B0100081B0100081B0100081B010008B0
:1000C0001B0100081B0100081B0100081B010008A0
:1000D0001B0100081B0100081B0100081B01000890
:1000E0001B0100081B0100081B010008DFF80CD0F1
:1000F00007F00AFD004800473D110008401E00209F
:100100000648804706480047FEE7FEE7FEE7FEE7B1
:10011000FEE7FEE7FEE7FEE7FEE7FEE72501000853
:10012000ED00000882B041F20400C4F2020050F871
:10013000041C002241F0010140F8041C0168CFF6C4
:10014000FF021140016050F8041C4FF6FF72CFF619
:10015000F662114040F8041C50F8041C21F4802180
:1001600040F8041C016821F4FE0101604FF41F01F6
:10017000416000210191009150F8041C41F480314C
:1001800040F8041C50F8041C01F40031009101995E
:1001900001310191009919B90199B1F5A06FF1D11F
:1001A00050F8041C890354BF0021012100910099DB
:1001B000012953D142F20001C4F202010A6842F05F
:1001C00010020A600A6822F003020A600A6842F01C
:1001D00002020A600168016001680160016841F47F
:1001E00080610160016821F47C110160016841F4C3
:1001F000E811016050F8041C41F0807140F8041CC3
:1002000050F8041C89010CD450F8041C89015CBF0F
:1002100050F8041C5FEA811103D450F8041C8901D2
:10022000EED5016821F003010160016841F002018F
:10023000016000BF016801F00C0108290ED00168BF
:1002400001F00C01082909D0016801F00C0108290E
:1002500004D0016801F00C010829EBD14EF60850DA
:10026000CEF200004FF00061016002B0704700BFA5
:1002700041F20400C4F20200016801F00C010829F7
:1002800041F20021C0F27A0119D102680368C2F379
:100290008342DB0302F1020206D440F60011C0F2F1
:1002A0003D0151430BE000BF03689B0302D451435F
:1002B00005E000BF40F60011C0F23D01514340F29D
:1002C0000402C2F200021160006847F65A53C0F3FC
:1002D0000310C0F60003185C21FA00F010607047AC
:1002E000704700BFFEE700BFFEE700BFFEE700BFAC
:1002F000FEE700BF704700BF704700BF80B501F048
:1003000003F906F0B1FCBDE8804001F00FB9000030
:10031000A0F18040A0F584304FEAB020062888BFC5
:10032000704710B506A151F820400121204600F089
:10033000F3FB20460021BDE8104000F0EDBB00BFFC
:100340000400000008000000100000002000000071
:1003500040000000800000000001000080B5012086
:10036000012100F0D9FB01200021BDE8804000F010
:10037000D3BB00BF70B591F803C00CF00F035FEA68
:10038000CC6244BF8A78134309885FEA016E00F0AB
:10039000F08002685FFA8CF4282C17D0482C2FD1FB
:1003A000CC075FD18C0764D44C076AD40C0770D497
:1003B000CC0677D48C0600F17E804C0600F1848058
:1003C000BEF1000F00F18980D2E000BFCC0740F001
:1003D0008B808C0700F190804C0700F196800C0711
:1003E00000F19C80CC0600F1A2808C0600F1A88070
:1003F0004C0600F1AE80BEF1000F00F1B380B7E013
:1004000022F00F04CD0718BF44EA030222F0F004E3
:100410008D0748BF44EA031222F470644D0748BFB9
:1004200044EA032222F470440D0748BF44EA033231
:1004300022F47024CD0648BF44EA034222F470043B
:100440008D0648BF44EA035222F070644D0648BF4F
:1004500044EA0362BEF1000F44BF22F0704242EA58
:10046000037285E022F00F021A43012404618C0715
:100470009AD522F0F00242EA0312022404614C07EA
:1004800094D522F4706242EA0322042404610C072A
:100490008ED522F4704242EA033208240461CC066D
:1004A0007FF588AF22F4702242EA034210240461EF
:1004B0008C067FF582AF22F4700242EA03522024B8
:1004C00004614C067FF57CAF22F0706242EA036261
:1004D00040240461BEF1000F4AD522F0704280260C
:1004E00042EA0372066143E022F00F021A4301243C
:1004F00044618C077FF570AF22F0F00242EA0312EC
:10050000022444614C077FF56AAF22F4706242EA2C
:100510000322042444610C077FF564AF22F4704287
:1005200042EA033208244461CC067FF55EAF22F430
:10053000702242EA0342102444618C067FF558AFD2
:1005400022F4700242EA0352202444614C067FF5F3
:1005500052AF22F0706242EA036240244461BEF16D
:10056000000F05D522F07042802642EA03724661F0
:100570000260B1F5807F38BF70BD4268CC0500F1E4
:10058000100E00F114040DD522F00F025FFA8CF664
:100590001A43282E254602D0482E03D175464FF423
:1005A00080762E608D050ED522F0F0025FFA8CF673
:1005B00042EA0312482E754602D0282E03D1254662
:1005C0004FF400762E604D050ED522F470625FFA6E
:1005D0008CF642EA0322482E754602D0282E03D11B
:1005E00025464FF480662E600D050ED522F470422C
:1005F0005FFA8CF642EA0332482E754602D0282E66
:1006000003D125464FF400662E60CD040ED522F4AA
:1006100070225FFA8CF642EA0342482E754602D0F9
:10062000282E03D125464FF480562E608D040ED51A
:1006300022F470025FFA8CF642EA0352482E7546A5
:1006400002D0282E03D125464FF400562E604D04CB
:100650000ED522F070625FFA8CF642EA0362482EF1
:10066000754602D0282E03D125464FF480462E60D1
:1006700009B2B1F1FF3F01DD426070BD22F070426E
:100680005FFA8CF1482942EA037202D02829F3D19B
:10069000A6464FF40041CEF80010426070BD00BF86
:1006A0004FF6FF71C0F20241016070478068084058
:1006B00018BF0120704700BF806880B2704700BF3C
:1006C000C068084018BF0120704700BFC06880B2F2
:1006D000704700BF01617047416170471023002AD5
:1006E00008BF1423C1507047C160704701F58032C4
:1006F00082618161826181698069704740F2000C8A
:10070000C4F2010CDCF800304FF680721A4041EA66
:1007100000101043CCF80000704700BF1C21C4F249
:1007200020210860704700BFB0B50422C4F2010266
:10073000134602F1180E002848BF73461C6800F4E7
:100740004013B3F5401F1FFA80FC07D1156824F051
:10075000706325F07064146017E000BFC3020BD40F
:100760006FF00F0303EA50430CFA03F324EA030388
:1007700043F0706309E000BFC0F30343032505FAAB
:1007800003F324EA030343F070636FF00F0404EAF9
:10079000504400290CFA04F518BF2B43002848BF29
:1007A00072461360B0BD00BF10B50C22082402EAE7
:1007B000810201F0FC01C4F201044FF00F0C51F86A
:1007C00004E00CFA02F32EEA03030B510B5990409C
:1007D0001843085110BD00BFDC21C4F2202108607D
:1007E0007047000041F20000C4F2020001680022DC
:1007F00041F0010101604168CFF6FF021140416004
:1008000001684FF6FF72CFF6F66211400160016891
:1008100021F480210160416821F4FE0141604FF420
:100820001F018160704700BF41F20001C4F2020164
:100830000A68B0F5803F22F480320A600A6822F428
:1008400080220A6005D0B0F5802F18BF70474FF4A2
:10085000A0200A6810430860704700BF81B041F2D1
:100860000000C4F202000021009100BF0168009A5C
:1008700001320092009AB2F5A06F23D011F400313A
:1008800020D10168009A01320092009AB2F5A06F5F
:1008900018D011F4003115D10168009A013200928C
:1008A000009AB2F5A06F0DD011F400310AD10168A1
:1008B000009A01320092009AB2F5A06F02D011F4B2
:1008C0000031D3D00068C0F3404001B0704700BF92
:1008D000420941F20001012AC4F2020103D0022AB6
:1008E00014BF24312031096800F01F0021FA00F004
:1008F00000F00100704700BF41F20001C4F20201A4
:100900000A6822F0F80242EAC0000860704700BF9F
:100910000021C4F242210860704700BF41F2040286
:10092000C4F202021368084323F47C1318431060D6
:10093000704700BF6021C4F242210860704700BFC9
:1009400041F20401C4F202010A6822F003021043DA
:100950000860704741F20400C4F20200006800F031
:100960000C00704741F20401C4F202010A6822F04F
:10097000F00210430860704741F20401C4F2020122
:100980000A6822F4E06210430860704741F20401F3
:10099000C4F202010A6822F4605242EAC000086010
:1009A000704700BF002941F20901C4F202010A7830
:1009B0000CBF22EA0000104308707047D821C4F22F
:1009C00042210860704700BF41F20401C4F20201F5
:1009D0000A6822F4404210430860704741F2200147
:1009E000C4F20201002201280A700A7006D004280D
:1009F00018BF704705200870704700BF01200870BD
:100A0000704700BF40F28041C4F242210860704745
:100A100041F22001C4F202010A68104308607047E5
:100A200040F23C41C4F242210860704710B541F2E7
:100A30000404C4F20204226802F00C02082A41F203
:100A40000022C0F27A021DD12368D4F800C0C3F39B
:100A5000834E5FEACC330EF1020C07D440F600124D
:100A6000C0F23D020CFB02F20CE000BF23689B03C6
:100A700002D40CFB02F205E040F60012C0F23D0287
:100A80000CFB02F20260236847F66A51C3F30313BA
:100A9000C0F60001CB5CDA4042602368C3F3022356
:100AA000CB5C22FA03F383602368C3F3C223C95CDF
:100AB00047F6565322FA01F1C1602268C0F60003DE
:100AC000C2F381329A5CB1FBF2F1016110BD00BF4B
:100AD000002941F21401C4F202010A680CBF22EAA3
:100AE0000000104308607047002941F21801C4F269
:100AF00002010A680CBF22EA000010430860704738
:100B0000002941F21C01C4F202010A680CBF22EA6A
:100B10000000104308607047002941F20C01C4F244
:100B200002010A680CBF22EA000010430860704707
:100B3000002941F21001C4F202010A680CBF22EA46
:100B4000000010430860704740F24041C4F2422167
:100B5000086070474C21C4F242210860704700BF12
:100B600041F20701C4F202010870704741F224000B
:100B7000C4F20200016841F080710160704700BF5B
:100B800041F20801C4F202010968084018BF0120BF
:100B9000704700BF41F20A01C4F2020108707047B9
:100BA00080B544F6FF31C4F2000188421EDD44F6F0
:100BB0000041C4F20001884230D045F20001C4F285
:100BC0000001884236D043F60001C4F20101884298
:100BD00018BF80BD4FF480400121FFF79DFF4FF407
:100BE00080400021BDE88040FFF796BF44F20041FD
:100BF000C4F20001884229D044F60001C4F2000189
:100C000088422FD14FF480200121FFF791FF4FF44C
:100C100080200021BDE88040FFF78ABF4FF400200C
:100C20000121FFF785FF4FF400200021BDE880403F
:100C3000FFF77EBF4FF480100121FFF779FF4FF4DB
:100C400080100021BDE88040FFF772BF4FF40030F4
:100C50000121FFF76DFF4FF400300021BDE8804017
:100C6000FFF766BF80BD00BF70B586B00446008A3E
:100C70000D46C98820F4405008432082A0894EF6D2
:100C8000F3110840A9882A896B8908431043184347
:100C9000A081A08AA98920F44070084301AEA082F7
:100CA0003046FFF7C3FE43F6000106F10800C4F228
:100CB00001018C4208BF06F10C0000681922B4F94A
:100CC0000C1050432A680123B1F1FF3FC8BF022333
:100CD00002FA03F1B0FBF1F048F21F51C5F2EB113B
:100CE000A0FB01235A096FF0630302FB0300B4F970
:100CF0000C300326B3F1FF3FC8BF042600FA06F00C
:100D000000F13200A0FB01014FF00700C8BF0F2027
:100D100000EA511040EA0210208106B070BD00BF09
:100D20004FF4165100224FF4402380E80E008281D8
:100D3000704700BF80B5028A0B8822F4706C4A8825
:100D4000B1F804E043EA0C03C9881A4342EA0E02F0
:100D50001143018280BD00BF0021416001607047E6
:100D60008289002918BF012122F4005242EA413150
:100D700081817047C1F3421301F01F0C1421022B33
:100D800008BF1021012B4FF0010308BF0C21002ADE
:100D900003FA0CF243580CBF23EA02021A434250F2
:100DA000704700BF002A828A0CBF22EA010111436A
:100DB00081827047028A22F00F020282028A114366
:100DC00001827047828922F4006282818289114304
:100DD000818170478289002918BF012122F0020217
:100DE00042EA410181817047028A22F02002028298
:100DF000028A114301827047028A002918BF01212B
:100E000022F4804242EA8131018270476FF35F2110
:100E10008180704780886FF35F207047818941F03F
:100E200001018181704700BF028BD2B20283028B25
:100E300042EA012101837047028B22F0FF02028304
:100E4000028B114301837047828A002918BF012158
:100E500022F0200242EA411181827047828A0029F1
:100E600018BF012122F0100242EA0111818270476D
:100E7000828A002918BF012122F0080242EAC1013A
:100E8000818270478289002918BF01216FF3DF3208
:100E900042EAC13181817047828A002918BF01214D
:100EA00022F4006242EAC12181827047828A22F0E4
:100EB00004028282828A114381827047828A0029D9
:100EC00018BF012122F0020242EA410181827047EB
:100ED0000088084018BF0120704700BFC943018047
:100EE000704700BFC1F34212022A07D0012A14BF83
:100EF00000F1140200F10C0202E000BF00F1100248
:100F00001288008801F01F03090ADA40C840104027
:100F100000F00100704700BF090A012202FA01F146
:100F2000C94301807047000084B040F6000A40F2D7
:100F3000080541F67818C4F2010A4FF0000BC2F21E
:100F400000050DF10E060FF27C09C2F20008002721
:100F50000FE000BF002000210022C823CDF800B020
:100F6000019605F073FD28462146324602F076FFD1
:100F700001372846314602F053FF49463A460446B7
:100F800006F0E4FD50460121FFF790FB0028E1D177
:100F9000002000210022C823CDF800B0019605F002
:100FA00055FD50460121FFF781FB0028D2D1204694
:100FB00006F08DFD82B2404621460023009604F0E3
:100FC00071FFC7E72564000082B00DF1060601AC91
:100FD00009A500BF0020002122460023009604F04E
:100FE0005BFEBDF806100029F4D1BDF804200146CF
:100FF000284606F09BFDEDE725732C2025640A00AA
:1010000080B500F009F800F02DF84FF4E130BDE8AC
:10101000804000F047B8000040F20400C2F2000037
:10102000006844F6D351C1F26201A0FB01014FF008
:10103000FF3000EB9110B0F1807F01D3FEE700BFDD
:101040004EF21001CEF2000148604EF62350CEF26F
:101050000000F022027000208860072008607047BE
:1010600070470000B0B582B014200121FFF73CFDAD
:1010700042F2000040F60004C1F20300C4F2010491
:1010800001AD019004F500602946FFF773F90120D6
:10109000C4F60300019020462946FFF76BF902B021
:1010A000B0BD000070B586B0044644F204000121D2
:1010B000FFF71AFD40F2002040F60005C1F60300DC
:1010C000C4F2010505AE059028463146FFF752F9F6
:1010D00040F20040C0F20340059028463146FFF739
:1010E00049F9019400204FF4402105F54054029045
:1010F0000391ADF8100001A92046FFF7B5FD204689
:101100000121FFF72DFE06B070BD00BFB0B543F65C
:1011100000040546C4F2010420468021FFF7D8FEF2
:101120000128F9D1A9B22046FFF770FE20464021E0
:10113000FFF7CEFE0128F9D10020B0BD2DE9F04324
:101140008BB0FFF75DFF0DF12A04204600F062F836
:101150001420CDE9000440F20800C2F2000000F1C2
:10116000200223A103234FF0030802F0A7FD41F260
:10117000B040C2F200000227CDE9007041F2B06039
:1011800040F6297200264FF080090C25C2F20000BB
:101190001BA1C0F6000200230894CDE90259CDE955
:1011A00004660696CDF81C8004F032FB41F278709C
:1011B000C2F20000CDE9007041F6781040F6C97225
:1011C000C2F2000010A1C0F6000200230894CDE98D
:1011D0000259CDE904660696CDF81C8004F018FB90
:1011E000204600F0D5FA00200BB0BDE8F08300BF28
:1011F0004D656D506172746974696F6E0000000016
:101200005461736B5F3100005461736B5F32000097
:1012100070470000B0B58AB0044606F08FFB40F678
:101220008870C2F200000025057041F2B820C2F2B9
:101230000000057047F68050C0F60000016841F2DA
:10124000B920C2F20000057041B147F67C50C0F6EB
:101250000000006810B1890006F02EFC41F29840B1
:10126000C2F20000056041F29C40C2F2000005603D
:1012700041F2A040C2F20000056041F29040C2F28B
:101280000000056041F29440C2F20000056041F2A6
:10129000A440C2F20000056041F2A840C2F2000082
:1012A000056003F0ABFB40F6B870C2F2000000210D
:1012B00042184550C031B1F5407F15815560958287
:1012C000C2E903551584C2E906559585C2E9095559
:1012D0001587C2E90C55A2F84450C2E90F55A2F88F
:1012E0005050C2E91255A2F85C50C2E91555A2F857
:1012F0006850C2E91855A2F87450C2E91B55A2F80B
:101300008050C2E91E55A2F88C50C2E92155A2F8BE
:101310009850C2E92455A2F8A450C2E92755A2F872
:10132000B050C2E92A55A2F8BC50C2F8B450C2F875
:10133000B850BDD1204605F0F5F82088002858D1D6
:1013400047F68C5340F6BC6047F6845147F6885206
:10135000C0F60003C2F20000C0F60001C0F60002B1
:101360001D6800230968126803603F204FF0030CDA
:101370008DE8070040F6C06047F6CF5141F6010204
:10138000CDE90433CDE9063CC2F20000C0F600010D
:10139000C0F6000200230894039504F039FA20886F
:1013A00038BB204605F09EF9208810BB204602F08D
:1013B0005BFC2088E8B9204602F074FD2088C0B9A3
:1013C000204602F04DFE208898B9204603F008FB25
:1013D000208870B9204603F099FE208848B920463D
:1013E00004F09CF9208820B9204606F0D1F8208826
:1013F00010B10AB0B0BD00BF01F0F2FF0AB0BDE805
:10140000B040FFF705BF00BF40F6B8710020C2F240
:10141000000100228B188850C032B2F5407F18813D
:1014200058609882C3E903001884C3E906009885D0
:10143000C3E909001887C3E90C00A3F84400C3E915
:101440000F00A3F85000C3E91200A3F85C00C3E941
:101450001500A3F86800C3E91800A3F87400C3E9F5
:101460001B00A3F88000C3E91E00A3F88C00C3E9A9
:101470002100A3F89800C3E92400A3F8A400C3E95D
:101480002700A3F8B000C3E92A00A3F8BC00C3F802
:10149000B400C3F8B800BDD1704700BF80B58AB0B2
:1014A00047F68C5140F6BC6C47F68452C0F60001FA
:1014B000C2F2000CC0F6000247F68853D1F800E0F3
:1014C00000211268C0F60003CCF8001008904FF01D
:1014D000030C3F201B688DE80D00CDE90411CDE918
:1014E000061C40F6C06047F6CF5141F60102C2F239
:1014F0000000C0F60001C0F600020023CDF80CE0A9
:1015000004F086F90AB080BD41F2B820C2F20000B2
:101510000078012818BF704740F68870C2F20000BA
:101520000178F9299CBF01310170704710B541F273
:10153000B820C2F200000078012818BF10BD06F0E4
:10154000A3FA40F68871C2F200010A780446BAB3E1
:1015500041F2B920C2F200000078013A10430006BF
:101560000A702DD103F052FA40F6B87300EB400137
:10157000C2F2000353F8211041F2C42340F6A372D3
:10158000C2F20003C2F200021B68107041F2C820D0
:101590009942C2F20000016012D041F2CC22D1F88F
:1015A0008C00C2F2000213680130C1F88C00581C94
:1015B00010604EF60450CEF200004FF080510160F2
:1015C0002046BDE8104006F063BA00BF10B540F6F3
:1015D000887041F2B921C2F20000C2F20001007825
:1015E0000978084318BF10BD06F04EFA044603F010
:1015F0000DFA40F6B87300EB4001C2F2000353F855
:10160000211041F2C42340F6A372C2F20003C2F2D9
:1016100000021B68107041F2C8209942C2F200001B
:10162000016012D041F2CC22D1F88C00C2F200024B
:1016300013680130C1F88C00581C10604EF604503D
:10164000CEF200004FF0805101602046BDE810400E
:1016500006F01EBAB0B540F68871C2F200010978F2
:10166000044619B146F662502080B0BD41F2B82060
:10167000C2F20000007801280AD141F2B925C2F275
:1016800000052878F92807D945F209202080B0BD47
:1016900045F689602080B0BD06F0F6F92978013161
:1016A000297006F0F5F900202080B0BDF0B581B0BA
:1016B00040F68875C2F200052978044621B146F645
:1016C0006550208001B0F0BD41F2B820C2F20000A8
:1016D0000078012814D141F2B926C2F20006307810
:1016E000A0B106F0D1F931784F1E377006F0D0F96D
:1016F000380611D046F66350208001B0F0BD00BF1F
:1017000045F68960208001B0F0BD00BF46F6645008
:10171000208001B0F0BD00BF28783178084333D174
:1017200006F0B2F9054603F071F940F6B87300EB24
:101730004001C2F2000353F8211041F2C42340F6E5
:10174000A372C2F20003C2F200021B68107041F2E1
:10175000C8209942C2F20000016012D041F2CC22AE
:10176000D1F88C00C2F2000213680130C1F88C007D
:10177000581C10604EF60450CEF200004FF080511D
:101780000160284606F084F90020208001B0F0BDF9
:10179000B0B541F2B825C2F200052978044619B166
:1017A00045F68A602080B0BD03F030F940F6A371A1
:1017B000C2F20001087040F6A271C2F20001087086
:1017C00040F6B87100EB4000C2F2000151F8200071
:1017D00041F2C821C2F20001086041F2C421C2F204
:1017E000000108600120287006F05CF843F699209B
:1017F0002080B0BD0146002247F2F8500A807047B1
:1018000040F6BC64C2F2000406F03EF921680131E2
:10181000216006F03DF906F087F8F5E72DE9F04183
:1018200082B041F2C428C2F20008D8F80060054630
:101830000C46002086F8342086F8350073B10DF18F
:10184000060C3046194602226346022704F0B8FF10
:10185000BDF8060020B186F8367004E0022000E0F2
:10186000032086F8360096F8370040F6B877D6E9B8
:10187000032300EB4001C2F2000707EB81014BB1EB
:101880000889002AA0F101000881DA6014BF136101
:101890004B600FE001F1080332B118880A6001388B
:1018A00018800020106105E000221A80C1E90022A2
:1018B00003F0F2F80020F0603061DCB3D8F80010DB
:1018C000C5E90000C5E904002883E861208A0122F7
:1018D0000028EC60CA870D63A9603FD091F83720DB
:1018E000A16801302082F1B104F108008B6893F8FF
:1018F00037309A423AD34968A9B18B6893F83730A8
:101900009A4233D3496871B18B6893F837309A4261
:101910002CD3496839B18B6893F837309A4225D374
:1019200049680029E2D1204650F80C1F29604D601B
:101930003CE000BFD8F8001091F83420C887072A8F
:1019400008631BD0022A23D147F6C850C0F6000016
:10195000C1F8C00002B0BDE8F08100BF00202282C3
:10196000C5E90000A56004F10C001FE00A68CAB1D7
:101970000846C5E90021556018E000BF47F6E3506E
:10198000C0F60000C1F8C00002B0BDE8F08100BFA1
:1019900047F6C650C0F60000C1F8C00002B0BDE86E
:1019A000F08100BF00220D60C5E900210560A0683C
:1019B000D8F8001080686268006AC1F8C020E06151
:1019C00002B0BDE8F08100BFB0B582B0044669B195
:1019D0000DF1060320460222022504F0F1FEBDF8B7
:1019E000060028B184F8365005E000BF022000E070
:1019F000032084F8360094F8370040F6B875D4E92F
:101A0000032300EB4001C2F2000505EB81016BB13D
:101A10000889002AA0F101000881DA6014BF13616F
:101A20004B600020C4E9030002B0B0BD01F108031F
:101A300052B118880A600138188000201061002017
:101A4000C4E9030002B0B0BD00221A80C1E900223F
:101A500003F022F80020C4E9030002B0B0BD00BFCB
:101A600010B5002AC287016350D0531E9BB2032BCE
:101A700002F0030C28D322F0030E0023002200BF43
:101A8000043294B2C1E904330B83C1E900338860A6
:101A9000C1E90C330B87C1E90733C1E90930C1E95A
:101AA0001433A1F85830C1E90F33C1E91130C1E94D
:101AB0001C33A1F87830CB67C1E91733C1E919307D
:101AC000744501F18001DBD1BCF1000F1ED0002272
:101AD000BCF1010FC1E904220A83CA61C1E90022F5
:101AE000886013D0BCF1020FC1E90C220A87CA63D7
:101AF000C1E90822886208BF10BD0022C1E9142292
:101B0000A1F85820CA65C1E91022886410BD00BF41
:101B100080B5B0F808C0BCF1000F2DD08A680CF178
:101B2000010C92F837E00268A0F808C0E2B19368AF
:101B300093F837309E4529D35268AAB1936893F839
:101B400037309E4522D3526872B1936893F837308C
:101B50009E451BD352683AB1936893F837309E453F
:101B600014D35268002AE2D150F8043F0022C1E9A0
:101B700000325960016080BD012202810022C1E96A
:101B80000022016040F8041F80BD00BF13682BB124
:101B9000C1E900325960116080BD00BF00231160AF
:101BA000C1E90032016080BD40B18268436892683B
:101BB000C1F8C030126AC261704700BF91F83400AA
:101BC00007280DD0022819BF47F6C650C0F60000FE
:101BD00047F6C850C0F60000C1F8C000704700BF0B
:101BE00047F6E350C0F60000C1F8C000704700BFE0
:101BF000F0B581B00F4691F836108B1F022B25D31C
:101C00000239012900F2228297F8341003294AD1BF
:101C1000FB8F002B47D0396BCE68864241D09CB2F7
:101C2000012C40D0CE6A864232D0022C3BD0CE6C02
:101C3000864231D0032C36D0CE6E864230D0043B63
:101C40001E0401F18001E7D12DE000BF97F83410A8
:101C500003296ED1FB8F002B6BD0396BCE68864287
:101C600065D09CB2012C64D0CE6A864212D0022C80
:101C70005FD0CE6C864211D0032C5AD0CE6E8642F5
:101C800054D0043B1E0401F18001E7D151E000BFB4
:101C9000203106E020314AE0403102E0403146E0A8
:101CA00060310861CA6100210028F965A7F8601059
:101CB0003A6400F0E680F88F002800F0DF80396B8E
:101CC00010F0030EA0F1010C00F0D480CC68228A41
:101CD000012A03D10023A360E3600AE0D1E90036C2
:101CE00023B1002E66D05E60336002E000233360D3
:101CF000A660013A22820022BEF1010F0A604A600A
:101D000002D120316046B5E0CC6A228A012A03D193
:101D10000023A360E36058E0D1E90836002B51D0DE
:101D2000002E00F08D805E6033604EE0603108610F
:101D3000CA6100210028F965A7F860103A6400F034
:101D40007C81F88F002800F07581396B10F0030E4C
:101D5000A0F1010C00F06A81CC68228A012A03D12B
:101D60000023A360E3600AE0D1E9003623B12EB37B
:101D70005E60336003E000BF00233360A660013A79
:101D800022820022BEF1010F0A604A6002D1203196
:101D900060464BE1CC6A228A012A03D10023A3606A
:101DA000E36030E0D1E9083653B3002E4CD05E60DA
:101DB000336028E000255D608EE700BF00255D6090
:101DC000D0E700BF00233360A660013A22820022E0
:101DD000BEF1020F0A624A6202D14031023849E084
:101DE000CB6C1A8A012A03D10026C3E902663AE0C5
:101DF000D1E9104664B39EB36660346033E000BF3F
:101E000000233360A660013A22820022BEF1020F55
:101E10000A624A6202D14031023807E1CB6C1A8A69
:101E2000012A03D10026C3E90266F8E0D1E9104691
:101E300094B1002E00F0F08066603460EFE000BFE7
:101E400000255D6066E700BF00255D60A8E700BF74
:101E5000002535609E6006E0002535609E60DEE06E
:101E600000266660DC60013A1A820022C1E9102275
:101E7000603103381FFA8CF2032A45D20020F8871C
:101E80003863384604F038FD97F83600400723D40D
:101E900097F8370002F0EEFD40F6A271C2F20001A1
:101EA00097F837000978884218D140F6B87100EBEE
:101EB0004000C2F2000101EB8000014631F8082F1A
:101EC000002A00F0978001320A8050F8042F002188
:101ED000F960D7603A619CE00020B2E040F6B8714A
:101EE00000EB4000C2F2000101EB8000014631F836
:101EF000082F002A00F0868001320A800168002243
:101F00003A610F6184E000BF6C3100220BE000BF3A
:101F1000C4E90222013B0438238241E9032203047D
:101F200001F18001AAD051F8603C1C8A012C03D138
:101F3000C3E902220CE000BF51E91B6536B1002D58
:101F400019BF75602E607260DE6001E02A609D60DE
:101F5000661E51F8404C1E82238A41F86C2C012BDE
:101F600041F8682C02D1C4E902220DE051E9136561
:101F700026B13DB175602E6006E000BF2A60A56005
:101F800002E000BF7260E6605E1E51F8203C2682CF
:101F90001C8A41F84C2C012C41F8482C02D1C3E991
:101FA00002220DE051E90B6526B13DB175602E604E
:101FB00006E000BF2A609D6002E000BF7260DE6044
:101FC000661E0C681E82238A41F82C2C012B41F8D6
:101FD000282C9DD051E9036526B13DB175602E6076
:101FE00098E700BF2A60A56094E700BF7260E660D2
:101FF00090E700BF01220A800021F96040F8047BCD
:10200000396106E001220A800021396140F8047B31
:10201000F9600760002014E000266660DC60013A89
:102020001A820022C1E91022603103381FFA8CF2B3
:10203000032A0DD20020F8873863384604F05CFC90
:10204000042087F836004FF48070B88601B0F0BDE8
:102050006C3100220BE000BFC4E90222013B0438CE
:10206000238241E90322030401F18001E2D051F807
:10207000603C1C8A012C03D1C3E902220CE000BFA2
:1020800051E91B6536B1002D19BF75602E60726075
:10209000DE6001E02A609D60661E51F8404C1E82A1
:1020A000238A41F86C2C012B41F8682C02D1C4E939
:1020B00002220DE051E9136526B13DB175602E6035
:1020C00006E000BF2A60A56002E000BF7260E66023
:1020D0005E1E51F8203C26821C8A41F84C2C012CB3
:1020E00041F8482C02D1C3E902220DE051E90B6509
:1020F00026B13DB175602E6006E000BF2A609D608C
:1021000002E000BF7260DE60661E0C681E82238AD9
:1021100041F82C2C012B41F8282C9DD051E9036566
:1021200026B13DB175602E6098E700BF2A60A560BA
:1021300094E700BF7260E66090E700BF80B5B1F839
:102140003EC0BCF1000F21D0D1F830E0DEF80C30F9
:1021500083421FD01FFA8CF3012B17D0DEF82C100E
:10216000814215D0022B11D0DEF84C10814217D0DD
:10217000032B08BF80BDDEF86C10814218D0ACF193
:10218000040C5FEA0C410EF1800EDFD180BD00BF70
:102190000EF1200ECEF81000CEF81C2080BD00BF3E
:1021A0000EF1400ECEF81000CEF81C2080BD00BF0E
:1021B0000EF1600ECEF81000CEF81C2080BD00BFDE
:1021C00070B5B0F83EE0BEF1000F4CD0026B1EF0CF
:1021D0000303AEF1010C42D0D1680C8A012C03D16B
:1021E00000258D60CD600AE0D2E9005625B12EB3FE
:1021F0006E60356003E000BF002535608E60013CF5
:102200000C820021012B1160516007D12032E6467B
:102210001FFA8CF1032926D351E000BFD16A0C8A42
:10222000012C03D100258D60CD600EE0D2E9085667
:1022300045B16EB36E60356007E000BF00266E608A
:10224000D0E700BF002535608E60013C0C82002184
:10225000022B116251620BD14032AEF1020E1FFA15
:102260008CF103292BD20021C187016370BD00BF0F
:10227000D16C0B8A012B03D100248C6012E000BFCB
:10228000D2E9104544B15DB165602C600BE000BF40
:1022900000266E60C8E700BF00242C608D6002E05D
:1022A00000256560CC60013B0B820021C2E9101162
:1022B0006032AEF1030E1FFA8CF10329D3D36C32D6
:1022C0004FF0000C0DE000BFC3E902CC0139AEF1C4
:1022D000040E198242E903CC5FEA0E4102F180024A
:1022E000C1D052F8601C0B8A012B03D1C1E902CC8A
:1022F00010E000BF52E91B4544B1002D19BF6560D5
:102300002C60C4F804C0CC6004E000BFC5F800C075
:102310008D6000BF5C1E52F8403C0C82198A42F866
:102320006CCC012942F868CC02D1C3E902CC0FE0A1
:1023300052E9134524B13DB165602C6008E000BF4F
:10234000C5F800C09D6003E0C4F804C0DC6000BFB5
:102350004C1E52F8201C1C820B8A42F84CCC012BDC
:1023600042F848CC02D1C1E902CC0FE052E90B455A
:1023700024B13DB165602C6008E000BFC5F800C025
:102380008D6003E0C4F804C0CC6000BF5C1E13681D
:102390000C82198A42F82CCC012942F828CC3FF44F
:1023A00093AF52E903451CB135B165602C608DE7F0
:1023B000C5F800C09D6089E7C4F804C0DC6085E70B
:1023C00010B5044604F098FA94F83600400748BF68
:1023D00010BD94F8370002F04DFB40F6A271C2F236
:1023E000000194F837000978884215D140F6B87199
:1023F00000EB4000C2F2000101EB8000014631F821
:10240000082FFAB101320A8050F8042F0021E16050
:10241000D4602261046010BD40F6B87100EB40004A
:10242000C2F2000101EB8000014631F8082F9AB199
:1024300001320A800168002222610C61E1600460BF
:1024400010BD00BF01220A800021E16040F8044B6A
:102450002161046010BD00BF01220A8000212161BA
:1024600040F8044BE160046010BD00BF836847F68C
:10247000C652C0F60002C1F8C0200BB199680A6AC2
:10248000C2617047B0B5C28F80F83710002A08BF0C
:10249000B0BD006B4FF0000C0CE000BF53F80C1FF8
:1024A000016048609E46CEF80000013A110400F138
:1024B00020004BD0C3681D8A022DF6D3D0E900144A
:1024C00003F1080E41B1002C19BF4C602160C1F826
:1024D00004C0D96004E000BFC4F800C0CEF80040DA
:1024E000C0E900CC8468996894F8374000291D82BF
:1024F000D4D08D6895F83750AC421BD34968002979
:10250000CCD08D6895F83750AC4213D34968002978
:10251000C4D08D6895F83750AC420BD34968002978
:10252000BCD08D6895F83750AC4203D34968002978
:10253000DFD1B3E70B682BB18E46C0E9003158609C
:10254000B1E700BF0860C0E900C1ACE7B0BD00BFA3
:1025500080B50289012A03D10023C0E9003318E0C5
:10256000D1E900ECBEF1000F08D0BCF1000F0BD098
:10257000CEF804C0CCF800E00BE000BF0023CCF89C
:102580000030C0F800C004E00023CEF80430C0F8EA
:1025900004E0013A02810020C1E9000080BD00BFD3
:1025A0000021C0E900110181704700BFB0F808C0E8
:1025B00000220CF10103038103680A60002B4B60C9
:1025C00018BF1960BCF1000F016008BF416070477F
:1025D0002DE9F0410C4691F836108B1F022B27D3C2
:1025E0000239012988BFBDE8F08194F83430E18FC9
:1025F000032B4ED100293FD0236B0D46DF68874265
:1026000045D0AFB2012F44D0DE6A86423AD0022FC5
:102610003FD0DE6C864237D0032F3AD0DF6E874240
:1026200034D0043D2F0403F18003E7D131E000BF33
:1026300094F83410032940F07C80E38F002B00F0E5
:102640007880216BCF68874271D09FB2012F70D004
:10265000CE6A864266D0022F6BD0CE6C864263D0A3
:10266000032F66D0CF6E874260D0043B1F0401F178
:102670008001E7D15DE000BF0020E065A4F86000C4
:102680002264B4E0203302E0403300E0603318619C
:10269000DA6100200029E065A4F86000226400F0FF
:1026A000A680206B11F00303A1F1010C00F09A80C9
:1026B000C668358A012D03D10022C6E902220EE048
:1026C000D0E9007227B13AB17A60176007E000BF25
:1026D00000271760B26002E000227A60F7606A1E8D
:1026E00032820022012B0260426007D12030614615
:1026F0001FFA8CF2032AC0F07A8018E1C66A358A84
:10270000012D03D10022C6E9022262E0D0E908725D
:1027100027B1002A5AD07A6017605AE00027176064
:10272000B26056E0203102E0403100E060310861E3
:10273000CA614FF000082046C4F85C80A4F86080AD
:10274000226404F0D9F8E08F002800F07381216B37
:1027500010F00303A0F1010C00F06881CD682E8A0F
:10276000012E03D10022C5E902220EE0D1E9007258
:1027700027B13AB17A60176007E000BF0027176001
:10278000AA6002E000227A60EF60721E2A820022B4
:10279000012B0A604A6003D12031604646E100BF48
:1027A000CD6A2E8A012E03D10022C5E902228AE0D9
:1027B000D1E9087237B1002A00F082807A60176090
:1027C00081E000BF00271760AA607CE000227A60E9
:1027D000F7606A1E32820022022B026242625FD1DF
:1027E000403002391FFA8CF2032A80F0A0800025C5
:1027F0002046E587256304F07FF894F8360040070B
:1028000047D494F8370002F035F940F6A271C2F2CD
:10281000000194F837000978884215D140F6B87164
:1028200000EB4000C2F2000101EB8000014631F8EC
:10283000082FEAB101320A8050F8042F0021E1602C
:10284000D460226123E000BF40F6B87100EB400085
:10285000C2F2000101EB8000014631F8082F7AB185
:1028600001320A800168002222610C610EE000BF83
:1028700001220A800021E16040F8044B216106E05A
:1028800001220A800021216140F8044BE1600460CC
:1028900000254FF4007084F83650A086BDE8F08122
:1028A000C36C1E8A012E03D10022C3E9022232E04A
:1028B000D0E9107227B35AB37A6017602BE000BFDB
:1028C00000227A60EF60721E2A820022022B0A62C6
:1028D0004A6203D140310238A8E000BFCB6C1E8AA7
:1028E000012E03D10022C3E9022298E0D1E910723F
:1028F00057B1002A00F090807A6017608FE000BF27
:10290000002717609A6006E0002717609A6086E04B
:1029100000227A60DF60721E1A820022C0E9102253
:10292000603003391FFA8CF2032AFFF460AF6C3079
:1029300000220BE0C7E90222013B04393B8240E957
:1029400003220B0400F180003FF451AF50F8603CCB
:102950001F8A012F02D1C3E902220BE050E91B6557
:1029600036B1002D19BF75602E607260DE6001E027
:102970002A609D60013F50F8405C1F822B8A40F81E
:102980006C2C012B40F8682C02D1C5E902220DE025
:1029900050E9137627B13EB17E60376006E000BF94
:1029A0003260AE6002E000BF7A60EF605F1E50F8F8
:1029B000203C2F821F8A40F84C2C012F40F8482CD5
:1029C00002D1C3E902220DE050E90B6526B13DB109
:1029D00075602E6006E000BF2A609D6002E000BFC7
:1029E0007260DE607E1E07681E823B8A40F82C2CD7
:1029F000012B40F8282C9DD050E9036526B13DB14C
:102A000075602E6098E700BF2A60BD6094E700BF44
:102A10007260FE6090E700BF00227A60DF60721E85
:102A20001A820022C1E91022603103381FFA8CF2A9
:102A3000032A0BD20425A4F83E80C4F830804FF45A
:102A4000007084F83650A086BDE8F0816C31002219
:102A50000BE000BFC6E90222013B0438338241E9A2
:102A60000322030401F18001E4D051F8603C1E8A86
:102A7000012E03D1C3E902220CE000BF51E91B750E
:102A800037B1002D19BF7D602F607A60DF6001E0F3
:102A90002A609D60771E51F8405C1F822B8A41F8A6
:102AA0006C2C012B41F8682C02D1C5E902220DE003
:102AB00051E9137627B13EB17E60376006E000BF72
:102AC0003260AE6002E000BF7A60EF605F1E51F8D6
:102AD000203C2F821E8A41F84C2C012E41F8482CB4
:102AE00002D1C3E902220DE051E90B7527B13DB1D6
:102AF0007D602F6006E000BF2A609D6002E000BF9D
:102B00007A60DF60771E0E681F82338A41F82C2CB2
:102B1000012B41F8282C9DD051E9037527B13DB117
:102B20007D602F6098E700BF2A60B56094E700BF22
:102B30007A60F76090E700BF80B5B1F83EC0BCF1A5
:102B4000000F21D0D1F830E0DEF80C3083421FD0E6
:102B50001FFA8CF3012B17D0DEF82C10814215D010
:102B6000022B11D0DEF84C10814217D0032B08BF86
:102B700080BDDEF86C10814218D0ACF1040C5FEA25
:102B80000C410EF1800EDFD180BD00BF0EF1200E92
:102B9000CEF81000CEF81C2080BD00BF0EF1400E14
:102BA000CEF81000CEF81C2080BD00BF0EF1600EE4
:102BB000CEF81000CEF81C2080BD00BF2DE9F041FA
:102BC0000C4691F83610DDF818C08F1F022F804692
:102BD0002AD3881E012888BFBDE8F08194F834000C
:102BE000032847D1E18F002949D0206BC7684745AA
:102BF00000F0B3808DB2012D41D0C76A474500F087
:102C0000A780022D3BD0C76C474500F0A380032D61
:102C100035D0C76E474500F09F8004390F0400F19E
:102C20008000E3D12BE000BF94F8340003283DD1AD
:102C3000E18F00293FD0206BC768474500F0C18075
:102C40008DB2012D37D0C76A474500F0B580022DFF
:102C500031D0C76C474500F0B180032D2BD0C76E33
:102C6000474500F0AD8004390F0400F18000E3D146
:102C700021E000BFE265A4F86030C4F840C0B8F1BC
:102C8000000F00F01B81E08F002800F00781216B0E
:102C900010F0030EA0F1010C00F0FC80CD682A8A30
:102CA000012A23D10023AB60EB6034E0E265A4F895
:102CB0006030C4F840C0204603F01EFEB8F1000F9B
:102CC00000F0EA81E08F002800F0D681216B10F03F
:102CD000030EA0F1010C00F0CB81CD682A8A012AF5
:102CE0000CD10023AB60EB6045E000BFD1E90037B9
:102CF00073B1002F5CD05F603B600CE0D1E900371E
:102D0000B3B3002F00F088805F603B6033E000BF0A
:102D100000233B60AF60013A2A820022BEF1010F1E
:102D20000A604A6002D120316046B3E0CD6A2A8A47
:102D3000012A03D10023AB60EB6052E0D1E90837F0
:102D4000002B4BD0002F00F08B805F603B6048E091
:102D5000203002E0403000E06030C0E904820383AC
:102D6000C0F81CC0B8F1000F7FF48DAFA6E000BF23
:102D700000233B60AF60013A2A820022BEF1010FBE
:102D80000A604A6002D12031604671E1CD6A2A8A28
:102D9000012A03D10023AB60EB6044E0D1E908379E
:102DA000002B3DD0002F63D05F603B603BE000BF55
:102DB00000265E6078E700BF203002E0403000E08F
:102DC0006030C0E904820383C0F81CC0204603F0D1
:102DD00093FDB8F1000F7FF475AF5DE100233B6018
:102DE000AF60013A2A820022BEF1020F0A624A62F3
:102DF00002D1403102384DE0CB6C1A8A012A03D14E
:102E00000027C3E902773EE0D1E9105765B3BFB3AD
:102E10006F603D6037E000BF00265E6063E700BF83
:102E200000233B60AF60013A2A820022BEF1020F0C
:102E30000A624A6202D14031023819E1CB6C1A8A27
:102E4000012A03D10027C3E902770AE1D1E910572B
:102E500095B1002F00F002816F603D6001E100BF7D
:102E600000265E6068E700BF00263E609F600AE0C3
:102E700000265E6090E700BF00263E609F60F0E0A5
:102E800000276F60DD60013A1A820022C1E910223A
:102E9000603103381FFA8CF2032A51D20020D8F88F
:102EA0000810E087206347F6C650C0F60000C4F85B
:102EB000C00009B18868006AC8F81C00204603F009
:102EC0001BFD94F83600400700F1C08094F83700ED
:102ED00001F0D0FD40F6A271C2F2000194F8370073
:102EE0000978884216D140F6B87100EB4000C2F272
:102EF000000101EB8000014631F8082F002A00F0A4
:102F0000958001320A8050F8042F0021E160D460DE
:102F100022619AE040F6B87100EB4000C2F2000175
:102F200001EB8000014631F8082F002A00F086806E
:102F300001320A800168002222610C6184E000BF36
:102F40006C3100220BE000BFC5E90222013B0438CE
:102F50002B8241E90322030401F180019ED051F844
:102F6000603C1D8A012D03D1C3E902220CE000BFA1
:102F700051E91B7637B1002E19BF7E6037607A6049
:102F8000DF6001E032609E606F1E51F8405C1F827E
:102F90002B8A41F86C2C012B41F8682C02D1C5E931
:102FA00002220DE051E9137627B13EB17E60376011
:102FB00006E000BF3260AE6002E000BF7A60EF6002
:102FC0005F1E51F8203C2F821D8A41F84C2C012DA8
:102FD00041F8482C02D1C3E902220DE051E90B76F9
:102FE00027B13EB17E60376006E000BF32609E6070
:102FF00002E000BF7A60DF606F1E0D681F822B8ABF
:1030000041F82C2C012B41F8282C9DD051E9037656
:1030100027B13EB17E60376098E700BF3260AE6096
:1030200094E700BF7A60EF6090E700BF01220A805A
:103030000021E16040F8044B216106E001220A8092
:103040000021216140F8044BE1600460002084F815
:1030500036000020A086BDE8F08100BF00276F6029
:10306000DD60013A1A820022C1E910226031033882
:103070001FFA8CF2032A17D20020D8F80810E08734
:10308000206347F6C650C0F60000C4F8C00009B17E
:103090008868006AC8F81C00042084F83600002004
:1030A000A086BDE8F08100BF6C3100220BE000BFBC
:1030B000C5E90222013B04382B8241E903220304C3
:1030C00001F18001D8D051F8603C1D8A012D03D157
:1030D000C3E902220CE000BF51E91B7637B1002E94
:1030E00019BF7E6037607A60DF6001E032609E6009
:1030F0006F1E51F8405C1F822B8A41F86C2C012B0B
:1031000041F8682C02D1C5E902220DE051E913769D
:1031100027B13EB17E60376006E000BF3260AE602E
:1031200002E000BF7A60EF605F1E51F8203C2F8202
:103130001D8A41F84C2C012D41F8482C02D1C3E9DD
:1031400002220DE051E90B7627B13EB17E60376077
:1031500006E000BF32609E6002E000BF7A60DF6080
:103160006F1E0D681F822B8A41F82C2C012B41F811
:10317000282C9DD051E9037627B13EB17E6037609F
:1031800098E700BF3260AE6094E700BF7A60EF60FE
:1031900090E700BFB0B5B1F83EE0BEF1000F1FD020
:1031A000DDF810C0096B00BFCC6884421BD01FFA49
:1031B0008EF4012C14D0CD6A854213D0022C0FD08E
:1031C000CD6C854216D0032C08BFB0BDCC6E8442B6
:1031D00018D0AEF1040E5FEA0E4401F18001E3D194
:1031E000B0BD00BF2031C1E904020B83C1F81CC08F
:1031F000B0BD00BF4031C1E904020B83C1F81CC05F
:10320000B0BD00BF6031C1E904020B83C1F81CC02E
:10321000B0BD00BF10B5044690F8370001F02AFC9D
:1032200040F6A271C2F2000194F837000978884292
:1032300016D140F6B87100EB4000C2F2000101EB7C
:103240008000014631F8082F02B301320A8050F89D
:10325000042F0021E160D4602261046010BD00BF32
:1032600040F6B87100EB4000C2F2000101EB8000B3
:10327000014631F8082F9AB101320A800168002214
:1032800022610C61E160046010BD00BF01220A8070
:10329000002140F8044BE1602161046010BD00BFD3
:1032A00001220A800021216140F8044BE1600460A2
:1032B00010BD00BF90F8371040F6B87201EB410125
:1032C000C2F2000202EB81010A4632F8083F4BB11C
:1032D0000133138051F8043F0022C0E90323D86072
:1032E0000860704701231380002241F8040BC0E9F5
:1032F00003220860704700BF90F8371040F6B8729C
:1033000001EB4101C2F2000202EB81010A4632F8F0
:10331000083F4BB1013313800A680023C0E903233F
:1033200010610860704700BF012313800022C0E9CC
:103330000322086041F8040F704700BF0189022989
:1033400038BF70470AD1D0E900120023C1E9033227
:10335000C2E90313C0E90021704700BFD0E90012A1
:103360004FF0000CCB68C3F810C0C1E903C2D160B4
:10337000C0E90031704700BF10B5044690F837002F
:1033800040F6B87CD4E9032300EB4001C2F2000C04
:103390000CEB810163B10889002AA0F101000881CA
:1033A000DA6014BF13614B600020C4E9030010BD54
:1033B00001F1080352B118880A6001381880002012
:1033C00010610020C4E9030010BD00BF00221A8074
:1033D000C1E9002201F060FB0020C4E9030010BD38
:1033E000704700002DE9F041174640F68872C2F29E
:1033F000000212781C462AB142F6E1602080BDE846
:10340000F08100BF054678B30E4604F03DFB8046D0
:1034100044F64640C4F24170C5E90006002605F1B5
:103420000800C5E90876FFF7BBF840F6B460C2F2C1
:10343000000047F6C6520168C0F60002EA610029A2
:103440006E6118BF4D61A96140F6B861C2F200011A
:103450000A880560501C0880404604F019FB0020D3
:103460002080BDE8F08100BF45F6C3502080BDE854
:10347000F08100BF47F6C651C0F60001C16140F6B9
:10348000B461C2F200010A680023002A436118BF38
:1034900050618261086070472DE9F04381B01446A5
:1034A00040F68872C2F2000212783AB1002743F265
:1034B000C9263846268001B0BDE8F083054678B3BA
:1034C0000E46012934D8286844F64641C4F24171B9
:1034D000884235D104F0D8FA2F8A814605F10808D0
:1034E000B6B3012E40D157B13E4600BFA8680022B6
:1034F00081682846FFF76CF8013E3004F6D1294672
:1035000051F8143F084650F8042F8BB3002A0FBF20
:1035100003F118029A615361024608462FE000BF8A
:10352000002745F6C3563846268001B0BDE8F08333
:10353000002745F625663846268001B0BDE8F083B1
:10354000002745F6C4563846268001B0BDE8F08312
:10355000C7B3484604F09CFA47F25E163846268008
:1035600001B0BDE8F08300BF484604F091FAE0E7FF
:1035700040F6B461C2F200010A6012B114320021B7
:10358000116040F6B861C2F200010A8800260660A8
:10359000501E088044F64E7047F6EC51C4F24E506F
:1035A000C0F60001C5E9000140462E62FEF7F8FFB3
:1035B000484604F06DFAFEF709F83846268001B057
:1035C000BDE8F083294651F8143F084650F8042F0F
:1035D00043B1002A0FBF03F118029A6153610246FA
:1035E000084606E040F6B461C2F200010A6012B17A
:1035F00014320021116040F6B861C2F200010A885D
:1036000000260660501E088044F64E7047F6EC51C6
:10361000C4F24E50C0F60001C5E9000140462E62DA
:10362000FEF7BEFF484604F033FA002738462680EE
:1036300001B0BDE8F08300BF50F8143F014651F8D7
:10364000042F4BB1002A0FBF03F118029A61536196
:103650000A46014607E000BF40F6B460C2F200002F
:10366000026012B114320020106000200860704720
:10367000014644F64E7047F6EC52C4F24E50C0F686
:103680000002C1E90002002201F108000A62FEF70F
:1036900087BF00BF2DE9F04F89B00C4640F6887116
:1036A000C2F200010978DDF84C9049B1002446F2DD
:1036B000AE112046A9F8001009B0BDE8F08F00BF98
:1036C000054600282CD0286844F64641C4F24171D2
:1036D00088422FD1DDF848801E461746B8F1000F0A
:1036E0001CBF0020C8F8000006F00F0B04F0CCF956
:1036F000ABF1010ABAF1070F024631D806F4807324
:10370000DFE80AF004222E3A2E2E2E5A286A24EAE6
:103710000001A14270D1002B1CBF2043286234E07D
:10372000002445F6C3512046A9F8001009B0BDE8B1
:10373000F08F00BF002445F6C4512046A9F80010C0
:1037400009B0BDE8F08F00BF286A414624EA0008AE
:10375000B8F1000F66D0002B1CBF2043286235E073
:10376000104604F095F9002445F625612046A9F895
:10377000001009B0BDE8F08F286A00EA0401A142F8
:103780003AD1002B1CBF6040286241F2C420C2F233
:1037900000000068B8F1000FC0F884401CBF686AE0
:1037A000C8F80000104604F073F900212046A9F87B
:1037B000001009B0BDE8F08F286A414610EA0408FD
:1037C00030D0002B1CBF80EA0800286241F2C420E0
:1037D000C2F2000000680029C0F884801CBF686A3B
:1037E0000860104604F054F9002144462046A9F828
:1037F000001009B0BDE8F08F30B2B0F1FF3F61DDDD
:1038000041F2B920C2F200000078B8B1104604F0CD
:103810003FF9002446F663512046A9F8001009B08C
:10382000BDE8F08F30B2B0F1FF3F4BDD41F2B9207F
:10383000C2F20000007888460028E7D141F2C42097
:10384000C2F20000006800210093A0F88860C0E97F
:10385000204101A82946144601223B46FDF7DEFF20
:10386000204604F015F9FDF7B1FE04F00DF941F220
:10387000C427C2F20007396891F83520032A63D8BB
:10388000DFE802F0022C3E50B8F1000F1CBF096CBB
:10389000C8F800100021A9F800103968D1F8844058
:1038A000009900293FF47FAFBAF1020F58D3BBF162
:1038B000080F03D0BBF1040F7FF453AF296AA14373
:1038C00050E000BF104604F0E3F8002446F2B011C7
:1038D0002046A9F8001009B0BDE8F08FB8F1000F3C
:1038E0001CBF096CC8F8001004F0D2F8002446F29E
:1038F000A9112046A9F8001009B0BDE8F08F00BF5B
:10390000B8F1000F1CBF096CC8F8001004F0C0F833
:10391000002445F6C2512046A9F8001009B0BDE8C0
:10392000F08F00BFB8F1000F1CBF0021C8F80010D5
:1039300004F0AEF8002447F2D9212046A9F800107F
:1039400009B0BDE8F08F00BF04F0A2F8002446F6ED
:103950002B612046A9F8001009B0BDE8F08F00BF28
:10396000296A214329621EE710B541F2C42EC2F232
:10397000000EDEF800E09C46029B0024CEE92024E5
:103980000122AEF888C0BDE81040FDF747BF00BF78
:103990002DE9F041144640F68872C2F20002127816
:1039A00032B1002746F2AA11B8B22180BDE8F081F9
:1039B000064658B10D460027B1F5004F45F6256182
:1039C0000CDA8DB1B5F5807F0ED0EDE7002745F616
:1039D000C351B8B22180BDE8F08100BFB5F5014FF9
:1039E00002D0B5F5004FDFD1306844F64641C4F24D
:1039F0004171884214D104F047F8318A8046B9B148
:103A0000B5F5807F1ED10027B0680022816830465E
:103A1000FEF7EEF8308A01370028F5D119E000BF33
:103A2000002745F6C451B8B22180BDE8F08100BF3F
:103A3000404604F02DF8002746F2AB11B8B22180C1
:103A4000BDE8F081B068002281683046FEF7D0F80A
:103A50000127404604F01CF828B2002858BFFDF7A3
:103A6000B5FD0021B8B22180BDE8F081B0B540F6C7
:103A70008871C2F200010978044629B1002546F296
:103A8000AE1128462180B0BD03F0FEFF41F2C421F3
:103A9000C2F200010968D1F8845003F0F9FF002157
:103AA00028462180B0BD00BF80B582B09C46A8B139
:103AB000022A03D3A2F50043022B1FD2D0F800E064
:103AC00044F64643C4F241739E450FD10023CDF81E
:103AD00000C000F01BF802B080BD00BF45F6C35027
:103AE000ACF80000002002B080BD00BF45F6C45015
:103AF000ACF80000002002B080BD00BF45F6256094
:103B0000ACF80000002002B080BD00BF2DE9F04FEE
:103B100081B0DDF828901E4692460F46044603F019
:103B2000B3FFBAF5004F804606DABAF1000F0BD0AA
:103B3000BAF1010F0CD085E048F20100824507D0B0
:103B4000BAF5004F40F07E80206A384302E000BFA3
:103B5000206AB8432062208A6662002866D0A56881
:103B6000AF68002F4CD04FF0000B00BFB7F88800B3
:103B700000F00F000138072800F270806D68DFE860
:103B800000F0050D6D156D6D6D1D00BF216AD7F834
:103B9000800020EA010181422ED114E0206AD7F88A
:103BA000801021EA000070B926E000BF216AD7F832
:103BB00080000140814206D01EE000BF206AD7F895
:103BC0008010084018D0C7F8840097F83600A7F88E
:103BD00034B0811F02293E6408D30238012808D876
:103BE0003846FEF7EDFB002001E000BF042087F817
:103BF00036003846FEF7E4FA15B1AF68002FB5D1AC
:103C0000404603F045FF0FFA8AF0002858BFFDF741
:103C1000DDFC03F039FF246A03F03AFF0020A9F825
:103C20000000204601B0BDE8F08F00BF404603F021
:103C30002FFF0020A9F80000246A204601B0BDE84B
:103C4000F08F00BF404603F023FF45F62560A9F83A
:103C500000000024204601B0BDE8F08F404603F08C
:103C600017FF43F6FF20F2E740F6B461C2F200010D
:103C700000220A6040F6B861C2F200010A800280A8
:103C8000704700BF10B50446C0F8841090F83600A5
:103C90000021A186811F0229226407D3023801284E
:103CA00007D82046FEF78CFB002000E0042084F8B3
:103CB00036002046BDE81040FEF782BA2DE9F04FED
:103CC00081B0894640F68871C2F200010978174632
:103CD0000B9A29B145F2B960108001B0BDE8F08FB0
:103CE000BFB11D46022B05D245F2BC60108001B069
:103CF000BDE8F08FDDF828B0BBF1040F06D245F225
:103D0000C160108001B0BDE8F08F00BF8246B807E7
:103D100006D045F2BB60108001B0BDE8F08F00BF57
:103D20005FEA8B701CBF45F2C1601080A91E681E3F
:103D300089B200F0030203293C46009220D34FF6DB
:103D4000FC7100EA010E4FEA4B080BEB4B034FEA04
:103D50008B0000213E4600BF06EB0B0434605C4440
:103D600006EB080CF21846F80BC05C4446F81B2022
:103D7000321804315C44F2508AB272452646EBD1C7
:103D8000009A20466AB104EB0B00012A206008D09B
:103D900000EB0B01022A01601ABF01EB0B00086067
:103DA00008460024046003F06FFE44F24D51C2F255
:103DB0004D018AE8820240F68C71C2F200010A6865
:103DC000CAF80C70AAF81450AAF81250AAF810B049
:103DD000002ACAF8184018BFC2F818A0CAF81C2058
:103DE00040F69072C2F200021388C1F800A0591C7C
:103DF000118003F04DFE0B9A0020108001B0BDE849
:103E0000F08F00BF40F68C71C2F200010A680023F7
:103E1000002A836118BF9061C2610860704700BFCB
:103E200070B50C4660B1064603F02EFEB18A69B14A
:103E3000F56801392A68B182F260002609E000BF06
:103E4000002545F2BF662846268070BD002545F254
:103E5000C26603F01DFE2846268070BD70B514466C
:103E600090B10E46A1B1054603F00EFEA98A6A8AFA
:103E7000914211D2EA6801313260EE60A9820025D8
:103E800003F006FE258070BD45F2BF65258070BD3C
:103E900045F2BE65258070BD45F2BA6503F0F8FDB8
:103EA000258070BD40F68C71C2F2000100220A60CC
:103EB00040F69071C2F200010A8002807047000053
:103EC0002DE9F04100286BD000296FD04C1E23044F
:103ED00086464ED08B1E9BB204F0030C032B80460B
:103EE00023D34FF6FC7304EA030E00240646002594
:103EF00006F14008374647F8308F334643F8207FB5
:103F00003746043547F8103FABB2C6E90074348138
:103F1000F46074613483F46174623485F4627463B0
:103F20003487F46373454646E2D1BCF1000FC646C0
:103F30001FD008F1100E0024BCF1010FC8E900E405
:103F4000A8F80840C8F80C4013D008F1200EBCF1C6
:103F5000020FC8E904E4A8F81840C8F81C4008D0CB
:103F600008F1300E0023C8E908E3A8F82830C8F8A3
:103F70002C3040F69477C2F200073E68002300EB35
:103F80000115CEE9003345F8106CBE883860701812
:103F9000AEF80830CEF80C30B8801380BDE8F08160
:103FA00045F21E731380BDE8F08100BF45F21D731A
:103FB0001380BDE8F08100BFB0B54A1E130448D09D
:103FC000023989B2032902F0030C01D2024622E031
:103FD0004FF6FC7102EA010E0021002300F14002BD
:103FE000044644F8302F054645F8204F044644F86F
:103FF000105F0433C0E900410181C1604161018368
:10400000C16141620185C16241630187C16398B2A8
:1040100070451046E2D1BCF1000F104619D002F1F4
:1040200010000021BCF1010FC2E900011181D16033
:104030000FD002F12000BCF1020FC2E9040111838C
:10404000D16106D002F130000021C2E908011185DA
:10405000D1620021C0E900110181C160B0BD00BF83
:104060002DE9F04147F69051C0F60001D1F80080EB
:10407000B8F1000F68D047F69451C0F60001B1F8CE
:1040800000E0BEF1000F65D0AEF10104210443460B
:1040900049D0AEF1020189B204F0030C0329414674
:1040A00023D34FF6FC7104EA0103002446460025A1
:1040B00006F14001374647F8301F324642F8207F6C
:1040C0003746043547F8102FAAB2C6E90074348188
:1040D000F46074613483F46174623485F4627463EF
:1040E0003487F4639A420E46E2D1BCF1000F0B46CE
:1040F00019D001F110030024BCF1010FC1E9003413
:104100000C81CC600FD001F12003BCF1020FC1E99A
:1041100004340C83CC6106D001F130030022C1E9E4
:1041200008320A85CA6240F694720021C2F2000287
:10413000C3E900111981D960C2F80080A2F804E037
:10414000D1800180BDE8F08145F21E710180BDE89B
:10415000F08100BF45F21D710180BDE8F08100BF14
:1041600010B5044603F090FC0021A181BDE8104089
:1041700003F08EBC01464089002808BF704740F616
:104180009472C2F20002D2F800C00B68C3F800C0FB
:10419000D388D1F804C01B1AD3809388C2F800C01A
:1041A000034493800022C1F80A20C1E9002270472D
:1041B00001810021C0F80A10C0E90011704700BF5A
:1041C00010B584464089A8B1DCF804E0002ABEF8A6
:1041D0000840DEF804000C801CBFDEF80C101160F3
:1041E000DEF80010CCF8041071B1BCF80A100139E7
:1041F0000DE000BF0020088046F29251002A18BF4F
:104200001060198010BD00BF0021CCF80010ACF880
:104210000A1040F69471C2F200010A688C88CEF848
:104220000020621C8A80CA88C1F800E0013ACA8076
:104230000021198010BD00BFF0B544890689DDF862
:1042400018C0B44218D240F69475C2F20005AE8888
:10425000C6B1D5F800E0013EAE80EE88DEF8007011
:1042600001362F60EE809CB1DB0615D4036805464D
:10427000C3F800E0002312E046F29350ACF80000CF
:10428000F0BD00BF45F21D70ACF80000F0BD00BFEE
:10429000C0E900EE012307E0054655F8043FCEF8DB
:1042A0000030631CC5F800E08589059CAB42438162
:1042B00088BF83810020CEF80410AEF80820CEF825
:1042C0000C40ACF80000F0BDF0B581B0144640F6EB
:1042D0008872C2F20002127822B142F6E1602080B8
:1042E00001B0F0BD054688B30F4603F0CDFB06468E
:1042F00045F24D50C5F65400C5E90007402000279F
:10430000A88405F108002F62AF62FEF749F940F674
:104310009C70C2F2000047F6C6520168C0F6000267
:10432000EA6100296F6118BF4D61A96140F6A07173
:10433000C2F200010A880560501C0880304603F074
:10434000A7FB0020208001B0F0BD00BF45F6C350A0
:10435000208001B0F0BD00BF47F6C651C0F6000195
:10436000C16140F69C71C2F200010A680023002A74
:10437000436118BF50618261086070472DE9F043C6
:1043800081B0144640F68872C2F2000212783AB147
:10439000002743F2C9253846258001B0BDE8F083E7
:1043A0000646D8B10D46306845F24D51C5F6540168
:1043B00088421BD103F068FB378A8146012D06F144
:1043C00008081BD095BBDFB3484603F061FB47F2FA
:1043D0005E153846258001B0BDE8F083002745F61C
:1043E000C3553846258001B0BDE8F083002745F667
:1043F000C4553846258001B0BDE8F083356A002DEC
:1044000078D095F8370096F82410884272D095F845
:104410003600072856D8012202FA00F010F0CC0F1F
:104420001ED02846FEF72EF864E000BF484603F091
:104430002FFB45F625653846258001B0BDE8F083A1
:10444000314651F8143F084650F8042F73B1002A42
:104450000FBF03F118029A615361024608460CE04F
:1044600010F0320F3AD085F8371043E040F69C71D7
:10447000C2F200010A6012B114320021116040F64C
:10448000A071C2F200010A8800250560501E088054
:1044900044F64E7047F6F251C4F24E50C0F6000199
:1044A000C6E900014020B08440463562B562FEF79F
:1044B00077F8484603F0ECFA00273846258001B02B
:1044C000BDE8F083484603F0E3FA002746F62A6584
:1044D0003846258001B0BDE8F08300BF2846FEF7CE
:1044E0004BFF96F8240085F8370000F0C3FA284601
:1044F000FEF7E0FE4FB13D46B068002281683046CD
:10450000FEF766F8013D2804F6D1314651F8143F14
:10451000084650F8042F4BB1002A0FBF03F11802D0
:104520009A6153610246084607E000BF40F69C715D
:10453000C2F200010A6012B114320021116040F68B
:10454000A071C2F200010A8800250560501E088093
:1045500044F64E7047F6F251C4F24E50C0F60001D8
:10456000C6E900014020B08440463562B562FEF7DE
:1045700017F8484603F08CFAFDF728F838462580EE
:1045800001B0BDE8F08300BF50F8143F014651F878
:10459000042F4BB1002A0FBF03F118029A61536137
:1045A0000A46014607E000BF40F69C70C2F20000D8
:1045B000026012B1143200201060002008607047C1
:1045C000014644F64E7047F6F252C4F24E50C0F621
:1045D0000002C1E90002002008628862402201F165
:1045E00008008A84FDF7DCBF2DE9F04F89B00E4644
:1045F00040F68871C2F200010978DDF848A039B1AF
:1046000046F2AE10AAF8000009B0BDE8F08F00BF76
:104610000546B8B342F400401746B0F5004F39D113
:10462000286845F24D51C5F6540188423AD11C46DE
:10463000002B1CBF0020206003F026FA41F2C42B9F
:1046400095F82520C2F2000BDBF8001080468AB3F3
:10465000D5F82090494543D038B2B0F1FF3F51DD45
:1046600041F2B920C2F200000078002854D0404640
:1046700003F00EFA46F66350AAF8000009B0BDE850
:10468000F08F00BF45F6C350AAF8000009B0BDE89E
:10469000F08F00BF45F62560AAF8000009B0BDE81C
:1046A000F08F00BF45F6C450AAF8000009B0BDE87D
:1046B000F08F00BF296291F83700002C85F82400A4
:1046C0004FF0010085F825001CBFA86A2060404615
:1046D00003F0DEF90020AAF8000009B0BDE8F08F71
:1046E000501C85F82500002C1CBFA86A206040469D
:1046F00003F0CEF945F28270AAF8000009B0BDE8D7
:10470000F08F00BF404603F0C3F946F2B010AAF89C
:10471000000009B0BDE8F08F99F8370091F8371024
:1047200088422BD999F8360007280FD8012202FABF
:1047300000F010F0CC0F03D04846FDF7A3FE1DE0BB
:1047400010F0320F0CD089F8371017E0404603F014
:104750009FF946F62A60AAF8000009B0BDE8F08F7C
:104760004846FEF709FEDBF8000090F8370089F8AC
:10477000370000F07FF94846FEF7BEFD01A8294644
:1047800004223346FDF74AF8404603F081F9FCF76E
:104790001DFF03F079F9DBF8002092F835100329AA
:1047A00008D8DFE801F0030B0F1500BF4FF0000140
:1047B0005CB912E046F62B610FE000BF46F2A9118A
:1047C0001CB90AE045F6C2513CB1126C04E000BFCE
:1047D00047F2D9210CB100222260AAF8001003F0A0
:1047E00057F909B0BDE8F08FF0B581B0144640F636
:1047F0008872C2F20002127832B1002746F2AA1182
:10480000B8B2218001B0F0BD054608B341F4807014
:104810000F46B0F5807F23D1286845F24D51C5F68B
:104820005401884224D103F02FF9298A064639B36E
:10483000B7F5807F2ED10027A8680022816828461E
:10484000FDF7D6F9288A01370028F5D129E000BF05
:10485000002745F6C351B8B2218001B0F0BD00BFBA
:10486000002745F62561B8B2218001B0F0BD00BF38
:10487000002745F6C451B8B2218001B0F0BD00BF99
:10488000304603F005F9002746F2AB11B8B221809B
:1048900001B0F0BDA868002281682846FDF7A8F99C
:1048A0000127304603F0F4F8FCF790FE0021B8B27F
:1048B000218001B0F0BD00BF2DE9F04182B0144667
:1048C00040F68872C2F2000212782AB146F20E2730
:1048D000278002B0BDE8F0810646D8B10D463068A9
:1048E00045F24D51C5F65401884219D103F0CCF878
:1048F00041F2C427C2F200073968326A8046914209
:1049000014D0404603F0C4F845F28177278002B006
:10491000BDE8F08145F6C357278002B0BDE8F081BD
:1049200045F6C457278002B0BDE8F08196F82520EF
:104930000020B062501E020686F8250008D04046CE
:1049400003F0A6F845F28377278002B0BDE8F08136
:10495000308AC8B391F8370096F82420904214D0DA
:104960000846FEF709FD96F82400396881F83700FB
:1049700000F080F83868FEF79DFC386840F6A271B8
:1049800090F83700C2F200010870B0680027816813
:10499000002291F83700002386F82400012086F8D1
:1049A0002500304631620097FEF708F9404603F0D3
:1049B0006FF828B200283FF58BAFFCF707FE002701
:1049C000278002B0BDE8F08100274046376286F8B4
:1049D000257003F05DF8278002B0BDE8F08100BFCC
:1049E00040F69C71C2F2000100220A6040F6A071FC
:1049F000C2F200010A8002807047000040F6A870F1
:104A0000C2F200000021C0E90011704710B540F665
:104A1000A871C2F20001086830B1002403F03BF82D
:104A20002044C0B210BD00BF083100246FF07F02E7
:104A300051F8040C50B9086870B9486890B9886892
:104A40005440002801F11001F2D0E7E7203403F0D0
:104A500022F82044C0B210BD403403F01CF82044BA
:104A6000C0B210BD44F0600403F015F82044C0B299
:104A700010BD00BF1F2140F6A8738143C0F3421050
:104A8000C2F200034FF0010C53F820200CFA01F1A0
:104A9000114343F8201070471F2140F6A87381434B
:104AA000C0F34210C2F200034FF0010C53F8202073
:104AB0000CFA01F122EA010143F8201070470000CE
:104AC0002DE9F041174640F68872C2F200021278D2
:104AD0001C462AB142F6E1602080BDE8F08100BFAB
:104AE000054698B3C7B30E4602F0CEFF804645F2A6
:104AF0005150C5F24550C5E9000605F12000394680
:104B0000FFF756FB05F10800FDF74AFD47F6C650D2
:104B1000C0F60000E86140F6B070C2F20000016823
:104B2000002200296A6118BF4D61A96140F6B47185
:104B3000C2F200010A880560501C0880404602F05D
:104B4000A7FF00202080BDE8F08100BF45F6C350DC
:104B50002080BDE8F08100BF46F294502080BDE87F
:104B6000F08100BF47F6C651C0F60001C16140F6B2
:104B7000B071C2F200010A680023002A436118BF25
:104B800050618261086070472DE9F047144640F695
:104B90008872C2F20002127832B1002743F2C925AE
:104BA00038462580BDE8F087064668B30D46306874
:104BB00045F25151C5F2455188422DD102F064FFB2
:104BC000378A814685B3012D3AD106F1080857B1DD
:104BD0003D4600BFB068002281683046FDF7F8FC12
:104BE000013D2804F6D1314651F8143F084650F8EB
:104BF000042F7BB3002A0FBF03F118029A6153619F
:104C0000024608462DE000BF002745F6C35538464A
:104C10002580BDE8F08700BF002745F6C45538461B
:104C20002580BDE8F08700BF002F45D0484602F040
:104C30002FFF47F25E1538462580BDE8F08700BF9C
:104C4000484602F025FF45F6256538462580BDE833
:104C5000F08700BF40F6B071C2F200010A6012B1E5
:104C600014320021116040F6B471C2F200010A88CA
:104C700000250560501E06F1200A08805046FFF707
:104C800079FA44F64E7047F6F951C4F24E50C0F628
:104C90000001C6E9000150460021FFF789FA4046AD
:104CA000FDF77EFC484602F0F3FEFCF78FFC384629
:104CB0002580BDE8F08700BF314651F8143F084613
:104CC00050F8042F43B1002A0FBF03F118029A6174
:104CD00053610246084606E040F6B071C2F2000198
:104CE0000A6012B114320021116040F6B471C2F2B0
:104CF00000010A8800250560501E0880304600F03B
:104D000025F8484602F0C4FE002738462580BDE855
:104D1000F08700BF50F8143F014651F8042F4BB103
:104D2000002A0FBF03F118029A6153610A46014637
:104D300007E000BF40F6B070C2F20000026012B19E
:104D4000143200201060002008607047B0B500F1F8
:104D5000200504462846FFF70DFA44F64E7047F644
:104D6000F951C4F24E50C0F60001C4E900012846D2
:104D70000021FFF71DFA04F10800BDE8B040FDF77F
:104D80000FBC00BF70B540F68872C2F20002127804
:104D90000C462AB100254FF46C512846218070BD85
:104DA0000546A8B1286845F25151C5F245518842DF
:104DB00014D102F069FE064605F12000FFF7DAF98A
:104DC0000546304602F064FE00212846218070BD71
:104DD000002545F6C3512846218070BD002545F6C3
:104DE000C4512846218070BD2DE9F04F89B00F468F
:104DF00040F68871C2F200010978DDF84C9049B1A3
:104E000046F2AE10A9F800000025284609B0BDE81A
:104E1000F08F00BF044698B39A46ABB342F400400B
:104E20001646B0F5004F33D1206845F25151C5F216
:104E30004551884230D1DDF84880B8F1000F1CBFE1
:104E40000020C8F8000002F01FFE834604F1200095
:104E5000514642464B46FFF7B3F9B9F80010F9B195
:104E600030B2B0F1FF3F23DD41F2B920C2F20000C1
:104E7000007818B3584602F00BFE46F66350C1E7BF
:104E800045F6C350BEE700BF46F2D520BAE700BFE3
:104E900045F62560B6E700BF45F6C450B2E700BF4F
:104EA0000546584602F0F4FD284609B0BDE8F08FEB
:104EB000584602F0EDFD46F2B010A3E701A82146E6
:104EC00005223B46FCF7AAFC584602F0E1FDFCF740
:104ED0007DFB02F0D9FD41F2C421C2F20001096854
:104EE00091F83520032A11D8DFE802F002162432A7
:104EF000B1F86020CD6DAAF80020B8F1000F1CBFFA
:104F0000096CC8F8001000212CE000BF002546F60F
:104F10002B61AAF8005025E00025AAF80050B8F14E
:104F2000000F1EBF096CC8F80010002546F2A91139
:104F300018E000BF0025AAF80050B8F1000F1EBF0E
:104F4000096CC8F80010002545F6C2510AE000BF00
:104F50000025B8F1000FAAF8005018BFC8F800509B
:104F600047F2D921A9F8001002F092FD284609B0B5
:104F7000BDE8F08FF0B581B0144640F68872C2F2F9
:104F80000002127832B1002746F2AA11B8B221808D
:104F900001B0F0BD054608B341F480700F46B0F58E
:104FA000807F23D1286845F25151C5F2455188428E
:104FB00024D102F069FD298A064639B3B7F5807F0E
:104FC0002ED10027A868002281682846FCF710FE31
:104FD000288A01370028F5D129E000BF002745F6CF
:104FE000C351B8B2218001B0F0BD00BF002745F623
:104FF0002561B8B2218001B0F0BD00BF002745F6A1
:10500000C451B8B2218001B0F0BD00BF304602F0FB
:105010003FFD002746F2AB11B8B2218001B0F0BDD0
:10502000A868002281682846FCF7E2FD0127304687
:1050300002F02EFDFCF7CAFA0021B8B2218001B0BF
:10504000F0BD00BF10B582B0DDF810C070B1D0F86F
:1050500000E045F25154C5F24554A6450CD1002458
:10506000CDE9004C00F00EF802B010BD45F6C3507B
:10507000ACF8000002B010BD45F6C450ACF800001A
:1050800002B010BD2DE9F04F83B0DDE90C499A461E
:1050900093460E46074602F0F7FC3D8A80461DB354
:1050A0005FEA8A50CDF8089058BF0125B86800BF64
:1050B000D0E90191384632465B460094FDF77EFD0B
:1050C000013D28044846F3D1404602F0E1FC0FFAC6
:1050D0008AF0002858BFFCF779FA0299002008806E
:1050E00003B0BDE8F08F00BF07F120000AF0100305
:1050F00031465A460094CDF80490FFF79DF840469B
:1051000003B0BDE8F04F02F0C3BC00BF40F6B07181
:10511000C2F2000100220A6040F6B471C2F200013E
:105120000A800280704700002DE9F04381B01746E5
:1051300040F68872C2F2000212781C4632B142F682
:10514000E160208001B0BDE8F08300BF054688B370
:105150000E4602F099FC804644F25350C4F24D10C2
:105160004FF00009C5E9000605F10800C5E9087916
:10517000FDF716FA41F2BC20C2F2000047F6C65213
:105180000168C0F60002EA610029C5F8149018BF52
:105190004D61A96141F2C021C2F200010A88056097
:1051A000501C0880404602F073FC0020208001B0B3
:1051B000BDE8F08345F6C350208001B0BDE8F08320
:1051C00047F6C651C0F60001C16141F2BC21C2F2EE
:1051D00000010A680023002A436118BF5061826100
:1051E000086070472DE9F04381B0144640F688729C
:1051F000C2F2000212783AB1002743F2C9253846BC
:10520000258001B0BDE8F083064668B30D463068DE
:1052100044F25351C4F24D1188422DD102F034FCB6
:10522000378A814606F1080875B3012D38D157B188
:105230003D4600BFB068002281683046FDF7C8F9DE
:10524000013D2804F6D1314651F8143F084650F884
:10525000042F7BB3002A0FBF03F118029A61536138
:10526000024608462DE000BF002745F6C3553846E4
:10527000258001B0BDE8F083002745F6C4553846C7
:10528000258001B0BDE8F083002F3FD0484602F0F2
:10529000FFFB47F25E153846258001B0BDE8F0837C
:1052A000484602F0F5FB45F625653846258001B0F5
:1052B000BDE8F08341F2BC21C2F200010A6012B1E4
:1052C00014320021116041F2C021C2F200010A88AB
:1052D00000250560501E088044F64E7047F6FC51CC
:1052E000C4F24E50C0F60001C6E900014046C6E9CE
:1052F0000855FDF755F9484602F0CAFBFCF766F978
:105300003846258001B0BDE8F08300BF314651F832
:10531000143F084650F8042F43B1002A0FBF03F191
:1053200018029A6153610246084606E041F2BC2128
:10533000C2F200010A6012B114320021116041F280
:10534000C021C2F200010A8800250560501E0880B5
:1053500044F64E7047F6FC51C4F24E50C0F60001C0
:10536000C6E900014046C6E90855FDF719F9484667
:1053700002F08EFB00273846258001B0BDE8F0839F
:1053800050F8143F014651F8042F4BB1002A0FBFCB
:1053900003F118029A6153610A46014607E000BF13
:1053A00041F2BC20C2F20000026012B114320020AF
:1053B0001060002008607047014644F64E700022DD
:1053C000C4F24E50C1E9082247F6FC52C0F6000272
:1053D000086001F108004A60FDF7E2B82DE9F043EA
:1053E00089B00E4640F68871C2F200010978DDF8F6
:1053F000409049B146F2AE10A9F8000000263046B0
:1054000009B0BDE8F08300BF044638B342F4004061
:105410001746B0F5004F25D1206844F25351C4F22D
:105420004D11884222D11D46002B1CBF0020286050
:1054300002F02AFB216A8046E1B14E1E266215B1B8
:10544000606A2860266A404602F022FB0020A9F824
:105450000000304609B0BDE8F08300BF45F6C350F8
:10546000CAE700BF45F62560C6E700BF45F6C45051
:10547000C2E700BF38B2B0F1FF3F0BDD41F2B92007
:10548000C2F20000007858B1404602F001FB46F637
:105490006350B1E7404602F0FBFA46F2B010ABE7CA
:1054A00001A8214606223346FCF7B8F9404602F02F
:1054B000EFFAFCF78BF802F0E7FA41F2C421C2F2EE
:1054C00000010A6892F83510032907D8DFE801F0D7
:1054D0000212161C4FF000019DB91AE046F62B612E
:1054E000A9F8001002F0D4FA0026304609B0BDE851
:1054F000F08300BF46F2A9111DB90AE045F6C2517A
:105500003DB1126C04E000BF47F2D9210DB1002279
:105510002A60A9F80010266A02F0BAFA304609B0EB
:10552000BDE8F083F0B581B0144640F68872C2F24F
:105530000002127832B1002746F2AA11B8B22180D7
:1055400001B0F0BD054608B341F480700F46B0F5D8
:10555000807F23D1286844F25351C4F24D11884210
:1055600024D102F091FA298A064639B3B7F5807F33
:105570002ED10027A868002281682846FCF738FB56
:10558000288A01370028F5D129E000BF002745F619
:10559000C351B8B2218001B0F0BD00BF002745F66D
:1055A0002561B8B2218001B0F0BD00BF002745F6EB
:1055B000C451B8B2218001B0F0BD00BF304602F046
:1055C00067FA002746F2AB11B8B2218001B0F0BDF6
:1055D000A868002281682846FCF70AFB01273046AC
:1055E00002F056FAFBF7F2FF0021B8B2218001B0B9
:1055F000F0BD00BF944658B1026844F25353C4F260
:105600004D139A420AD10022634600F00DB800BF44
:1056100045F6C350ACF800000020704745F6C45072
:10562000ACF80000002070472DE9F04782B09846A2
:1056300015468A46064602F027FA378A8146EFB1B8
:105640005FEA8A5058BF0127B06800BFD0E9014126
:105650003046002200230095FDF7B0FA013F3804E0
:105660002046F3D1376A484602F012FA0FFA8AF060
:10567000002858BFFBF7AAFF15E000BF306A471C9F
:105680000CD3484602F004FA002746F6C5513846C6
:10569000A8F8001002B0BDE8F08700BF4846C6E990
:1056A000087502F0F5F900213846A8F8001002B09C
:1056B000BDE8F08770B5144640F68872C2F2000269
:1056C00012781AB146F6C650208070BD064698B1D1
:1056D0000D46306844F25351C4F24D1188420FD147
:1056E0000020208002F0D0F9316A69B13562BDE84E
:1056F000704002F0CDB900BF45F6C350208070BDA8
:1057000045F6C450208070BD318A0029EED047F2A2
:105710005E112180BDE8704002F0BAB941F2BC21AF
:10572000C2F2000100220A6041F2C021C2F200016F
:105730000A800280704700002DE9F041144640F6CF
:105740008872C2F20002127822B147F2491020801A
:10575000BDE8F0810D463E2904D946F27320208031
:10576000BDE8F0810746064640B902F08DF941F2E6
:10577000C421C2F200010E6802F08AF902F084F935
:1057800096F836108046072920D80120884010F06E
:10579000CC0F0FD096F8340007282FD8012101FA3A
:1057A00000F010F0780F0BD030462946FCF76AFE67
:1057B00024E000BF10F0320F10D086F837501DE003
:1057C00010F0860F18BF86F8375017E0404602F0F9
:1057D0005FF946F62A602080BDE8F0813046FDF78B
:1057E000CBFD284686F83750FFF744F930461FB105
:1057F000FDF760FD02E000BFFDF77EFD404602F0D0
:1058000047F9FBF7E3FE00202080BDE8F08100BFF0
:105810002DE9F04F87B00F4640F68871C2F20001C3
:105820000978189D31B147F24A10288007B0BDE8C9
:10583000F08F00BF0446A8B11646CAB1DDF8448017
:10584000B8F1000F1AD047F69850C0F60000DDF806
:105850004C900068484517D946F62D60288007B05F
:10586000BDE8F08F47F2AD10288007B0BDE8F08F9B
:1058700047F24F10288007B0BDE8F08F46F62C6045
:10588000288007B0BDE8F08FDDF848A0CA4517D2E0
:105890009B46109B402B0DD20DF1500E40F6C06080
:1058A000DDF85CC09EE80640C2F2000084420DD0E4
:1058B0003F2B0BD146F27320288007B0BDE8F08F54
:1058C00046F62E60288007B0BDE8F08F2046CDE96F
:1058D000022ECDE90431CDF818C000F065F8069825
:1058E000002100F003000328298004D14FEA890138
:1058F000404602F0E1F8CDF8009008EB8A0A069DD8
:105900003046594642465346019502F053F80499F1
:10591000206084F837100299039861650599C4E9FD
:10592000010AC4E90A6B002604F16400C4E908789E
:10593000C4F83890A587E667FEF73AFC204602F0E7
:105940001BF802F0A1F894F8371005460846FFF757
:1059500091F82046FDF7AEFC41F2D020C2F20000E3
:105960000168C4F8B860002918BFC1F8B840C4F88D
:10597000BC1041F2D421C2F200010A880460501C1C
:1059800041F2B822C2F2000214780880284602F0E0
:105990007FF8012C1CBF07B0BDE8F08F07B0BDE851
:1059A000F04FFBF713BE00BFB0B547F601610446E8
:1059B0000025C0F60001C0E90055C0E90255C0E964
:1059C0000455C0E90655C5870564C565A0F8605053
:1059D0006430C4E908150021C4E90A552563FEF7BF
:1059E000E7FB4FF00040C4E91150402084F8370035
:1059F00047F6C650C0F60000A563A587C4E91D554B
:105A0000C4E91F55C4F88450C4F88750A58684F8AB
:105A10003650C4E91355C4E9155584F89F50C4F8AD
:105A20009B50C4F89750C4F89350C4F88F50C4F8F2
:105A30008B50C4E92A55C4E92C55C4E92E55C4F845
:105A4000C000B0BD41F2D021C2F200010A680023BB
:105A5000002AC0F8B83018BFC2F8B800C0F8BC209F
:105A6000086070472DE9F04140F68872C2F20002EA
:105A700012780C4622B147F24E162680BDE8F0811E
:105A8000054640F6C060C2F20000854222D045B90A
:105A900001F0FAFF41F2C421C2F200010D6801F0E9
:105AA000F7FF01F0F1FF95F83610804607291FD85F
:105AB000DFE801F02616040429160404284600F045
:105AC0001BFF95F83400C11E04290DD22846FCF7AF
:105AD00077FB18E047F24C162680BDE8F08100BF46
