:020000040800F2
:10000000A01D002001010008E1020008E50200082F
:10001000E9020008ED020008F102000800000000FB
:10002000000000000000000000000000F5020008D1
:10003000F9020008000000003F580008FD02000817
:100040001B0100081B0100081B0100081B01000820
:100050001B0100081B0100081B0100081B01000810
:100060001B0100081B0100081B0100081B01000800
:100070001B0100081B0100081B0100081B010008F0
:100080001B0100081B0100081B0100081B010008E0
:100090001B0100081B0100081B0100081B010008D0
:1000A0001B0100081B0100081B0100081B010008C0
:1000B0001B0100081B0100081B0100081B010008B0
:1000C0001B0100081B0100081B0100081B010008A0
:1000D0001B0100081B0100081B0100081B01000890
:1000E0001B0100081B0100081B010008DFF80CD0F1
:1000F00005F0AAFC00480047090D0008A01D0020DB
:100100000648804706480047FEE7FEE7FEE7FEE7B1
:10011000FEE7FEE7FEE7FEE7FEE7FEE72501000853
:10012000ED00000882B041F20400C4F2020050F871
:10013000041C002241F0010140F8041C0168CFF6C4
:10014000FF021140016050F8041C4FF6FF72CFF619
:10015000F662114040F8041C50F8041C21F4802180
:1001600040F8041C016821F4FE0101604FF41F01F6
:10017000416000210191009150F8041C41F480314C
:1001800040F8041C50F8041C01F40031009101995E
:1001900001310191009919B90199B1F5A06FF1D11F
:1001A00050F8041C890354BF0021012100910099DB
:1001B000012953D142F20001C4F202010A6842F05F
:1001C00010020A600A6822F003020A600A6842F01C
:1001D00002020A600168016001680160016841F47F
:1001E00080610160016821F47C110160016841F4C3
:1001F000E811016050F8041C41F0807140F8041CC3
:1002000050F8041C89010CD450F8041C89015CBF0F
:1002100050F8041C5FEA811103D450F8041C8901D2
:10022000EED5016821F003010160016841F002018F
:10023000016000BF016801F00C0108290ED00168BF
:1002400001F00C01082909D0016801F00C0108290E
:1002500004D0016801F00C010829EBD14EF60850DA
:10026000CEF200004FF00061016002B0704700BFA5
:1002700041F20400C4F20200016801F00C010829F7
:1002800041F20021C0F27A0119D102680368C2F379
:100290008342DB0302F1020206D440F60011C0F2F1
:1002A0003D0151430BE000BF03689B0302D451435F
:1002B00005E000BF40F60011C0F23D01514340F29D
:1002C0000002C2F200021160006845F68E23C0F3FE
:1002D0000310C0F60003185C21FA00F010607047AC
:1002E000704700BFFEE700BFFEE700BFFEE700BFAC
:1002F000FEE700BF704700BF704700BF80B500F049
:10030000D1FE04F05FFCBDE8804000F0DDBE0000DF
:10031000A0F18040A0F584304FEAB020062888BFC5
:10032000704710B506A151F820400121204600F089
:10033000F3FB20460021BDE8104000F0EDBB00BFFC
:100340000400000008000000100000002000000071
:1003500040000000800000000001000080B5012086
:10036000012100F0D9FB01200021BDE8804000F010
:10037000D3BB00BF70B591F803C00CF00F035FEA68
:10038000CC6244BF8A78134309885FEA016E00F0AB
:10039000F08002685FFA8CF4282C17D0482C2FD1FB
:1003A000CC075FD18C0764D44C076AD40C0770D497
:1003B000CC0677D48C0600F17E804C0600F1848058
:1003C000BEF1000F00F18980D2E000BFCC0740F001
:1003D0008B808C0700F190804C0700F196800C0711
:1003E00000F19C80CC0600F1A2808C0600F1A88070
:1003F0004C0600F1AE80BEF1000F00F1B380B7E013
:1004000022F00F04CD0718BF44EA030222F0F004E3
:100410008D0748BF44EA031222F470644D0748BFB9
:1004200044EA032222F470440D0748BF44EA033231
:1004300022F47024CD0648BF44EA034222F470043B
:100440008D0648BF44EA035222F070644D0648BF4F
:1004500044EA0362BEF1000F44BF22F0704242EA58
:10046000037285E022F00F021A43012404618C0715
:100470009AD522F0F00242EA0312022404614C07EA
:1004800094D522F4706242EA0322042404610C072A
:100490008ED522F4704242EA033208240461CC066D
:1004A0007FF588AF22F4702242EA034210240461EF
:1004B0008C067FF582AF22F4700242EA03522024B8
:1004C00004614C067FF57CAF22F0706242EA036261
:1004D00040240461BEF1000F4AD522F0704280260C
:1004E00042EA0372066143E022F00F021A4301243C
:1004F00044618C077FF570AF22F0F00242EA0312EC
:10050000022444614C077FF56AAF22F4706242EA2C
:100510000322042444610C077FF564AF22F4704287
:1005200042EA033208244461CC067FF55EAF22F430
:10053000702242EA0342102444618C067FF558AFD2
:1005400022F4700242EA0352202444614C067FF5F3
:1005500052AF22F0706242EA036240244461BEF16D
:10056000000F05D522F07042802642EA03724661F0
:100570000260B1F5807F38BF70BD4268CC0500F1E4
:10058000100E00F114040DD522F00F025FFA8CF664
:100590001A43282E254602D0482E03D175464FF423
:1005A00080762E608D050ED522F0F0025FFA8CF673
:1005B00042EA0312482E754602D0282E03D1254662
:1005C0004FF400762E604D050ED522F470625FFA6E
:1005D0008CF642EA0322482E754602D0282E03D11B
:1005E00025464FF480662E600D050ED522F470422C
:1005F0005FFA8CF642EA0332482E754602D0282E66
:1006000003D125464FF400662E60CD040ED522F4AA
:1006100070225FFA8CF642EA0342482E754602D0F9
:10062000282E03D125464FF480562E608D040ED51A
:1006300022F470025FFA8CF642EA0352482E7546A5
:1006400002D0282E03D125464FF400562E604D04CB
:100650000ED522F070625FFA8CF642EA0362482EF1
:10066000754602D0282E03D125464FF480462E60D1
:1006700009B2B1F1FF3F01DD426070BD22F070426E
:100680005FFA8CF1482942EA037202D02829F3D19B
:10069000A6464FF40041CEF80010426070BD00BF86
:1006A0004FF6FF71C0F20241016070478068084058
:1006B00018BF0120704700BF806880B2704700BF3C
:1006C000C068084018BF0120704700BFC06880B2F2
:1006D000704700BF01617047416170471023002AD5
:1006E00008BF1423C1507047C160704701F58032C4
:1006F00082618161826181698069704740F2000C8A
:10070000C4F2010CDCF800304FF680721A4041EA66
:1007100000101043CCF80000704700BF1C21C4F249
:1007200020210860704700BFB0B50422C4F2010266
:10073000134602F1180E002848BF73461C6800F4E7
:100740004013B3F5401F1FFA80FC07D1156824F051
:10075000706325F07064146017E000BFC3020BD40F
:100760006FF00F0303EA50430CFA03F324EA030388
:1007700043F0706309E000BFC0F30343032505FAAB
:1007800003F324EA030343F070636FF00F0404EAF9
:10079000504400290CFA04F518BF2B43002848BF29
:1007A00072461360B0BD00BF10B50C22082402EAE7
:1007B000810201F0FC01C4F201044FF00F0C51F86A
:1007C00004E00CFA02F32EEA03030B510B5990409C
:1007D0001843085110BD00BFDC21C4F2202108607D
:1007E0007047000041F20000C4F2020001680022DC
:1007F00041F0010101604168CFF6FF021140416004
:1008000001684FF6FF72CFF6F66211400160016891
:1008100021F480210160416821F4FE0141604FF420
:100820001F018160704700BF41F20001C4F2020164
:100830000A68B0F5803F22F480320A600A6822F428
:1008400080220A6005D0B0F5802F18BF70474FF4A2
:10085000A0200A6810430860704700BF81B041F2D1
:100860000000C4F202000021009100BF0168009A5C
:1008700001320092009AB2F5A06F23D011F400313A
:1008800020D10168009A01320092009AB2F5A06F5F
:1008900018D011F4003115D10168009A013200928C
:1008A000009AB2F5A06F0DD011F400310AD10168A1
:1008B000009A01320092009AB2F5A06F02D011F4B2
:1008C0000031D3D00068C0F3404001B0704700BF92
:1008D000420941F20001012AC4F2020103D0022AB6
:1008E00014BF24312031096800F01F0021FA00F004
:1008F00000F00100704700BF41F20001C4F20201A4
:100900000A6822F0F80242EAC0000860704700BF9F
:100910000021C4F242210860704700BF41F2040286
:10092000C4F202021368084323F47C1318431060D6
:10093000704700BF6021C4F242210860704700BFC9
:1009400041F20401C4F202010A6822F003021043DA
:100950000860704741F20400C4F20200006800F031
:100960000C00704741F20401C4F202010A6822F04F
:10097000F00210430860704741F20401C4F2020122
:100980000A6822F4E06210430860704741F20401F3
:10099000C4F202010A6822F4605242EAC000086010
:1009A000704700BF002941F20901C4F202010A7830
:1009B0000CBF22EA0000104308707047D821C4F22F
:1009C00042210860704700BF41F20401C4F20201F5
:1009D0000A6822F4404210430860704741F2200147
:1009E000C4F20201002201280A700A7006D004280D
:1009F00018BF704705200870704700BF01200870BD
:100A0000704700BF40F28041C4F242210860704745
:100A100041F22001C4F202010A68104308607047E5
:100A200040F23C41C4F242210860704710B541F2E7
:100A30000404C4F20204226802F00C02082A41F203
:100A40000022C0F27A021DD12368D4F800C0C3F39B
:100A5000834E5FEACC330EF1020C07D440F600124D
:100A6000C0F23D020CFB02F20CE000BF23689B03C6
:100A700002D40CFB02F205E040F60012C0F23D0287
:100A80000CFB02F20260236845F69E21C3F30313B8
:100A9000C0F60001CB5CDA4042602368C3F3022356
:100AA000CB5C22FA03F383602368C3F3C223C95CDF
:100AB00045F68A2322FA01F1C1602268C0F60003DC
:100AC000C2F381329A5CB1FBF2F1016110BD00BF4B
:100AD000002941F21401C4F202010A680CBF22EAA3
:100AE0000000104308607047002941F21801C4F269
:100AF00002010A680CBF22EA000010430860704738
:100B0000002941F21C01C4F202010A680CBF22EA6A
:100B10000000104308607047002941F20C01C4F244
:100B200002010A680CBF22EA000010430860704707
:100B3000002941F21001C4F202010A680CBF22EA46
:100B4000000010430860704740F24041C4F2422167
:100B5000086070474C21C4F242210860704700BF12
:100B600041F20701C4F202010870704741F224000B
:100B7000C4F20200016841F080710160704700BF5B
:100B800041F20801C4F202010968084018BF0120BF
:100B9000704700BF41F20A01C4F2020108707047B9
:100BA00084B041F2000441F6E008C4F201040027D9
:100BB0000DF10E05C2F20008002603E0294602F0FE
:100BC000E1FE2BE020464FF400510022FFF786FDA6
:100BD00000200021012200230097019503F0E4FE8C
:100BE00020464FF400510122FFF778FD002000213C
:100BF000012200230097019503F0D6FE301F0F2835
:100C00000CD8DFE800F00D0B0B0B0B130B0B0B0BD1
:100C1000090B0B0B0B1900BF4046CFE70136D1E79C
:100C20004046294603F096FB0136CBE7404629466D
:100C300003F04EF90136C5E70020BFE784B041F26A
:100C40000004C4F2010400250DF10E0620464FF405
:100C500000510022FFF742FD002000210122002365
:100C60000095019603F0A0FE20464FF400510122AA
:100C7000FFF734FD0020002101220023009501969A
:100C800003F092FEE2E7000080B500F005F8BDE851
:100C9000804000F025B8000040F20000C2F20000E1
:100CA000006844F6D351C1F26201A0FB01014FF08C
:100CB000FF3000EB9110B0F1807F01D3FEE700BF61
:100CC0004EF21001CEF2000148604EF62350CEF2F3
:100CD0000000F02202700020886007200860704742
:100CE00080B582B010200121FFF7FEFE42F2000025
:100CF000C1F20300019041F20000C4F2010001A919
:100D0000FFF738FB02B080BD2DE9F0418AB0FFF754
:100D1000BBFF0DF12604204600F04EF841F22040C2
:100D2000C2F200000221CDE9001041F2206040F63D
:100D3000A132032500264FF080080C27C2F20000E4
:100D400016A1C0F6000200230894CDE90278CDE98F
:100D500004660696079502F0E9FC41F2E060C2F2F3
:100D60000000CDE9005041F6E00040F63D42C2F2FD
:100D700000000DA1C0F6000200230894CDE902781E
:100D8000CDE904660696079502F0D0FC204600F0F7
:100D9000B1FB00200AB0BDE8F08100BF4C454431F2
:100DA0005F5461736B0000004C4544325F546173C3
:100DB0006B00000070470000B0B58AB0044604F034
:100DC00079FD45F6D020C0F6000000684CF6CD4114
:100DD000CCF6CC41A0FB010140F62070C2F200002D
:100DE0000025057041F23820C2F20000057041F282
:100DF0003920C2F200000570C80841F23C21C2F25D
:100E00000001086045F6B420C0F60000016841F218
:100E10004020C2F20000057041B145F6B020C0F696
:100E20000000006810B1890004F002FE41F20840A1
:100E3000C2F20000056041F20C40C2F20000056001
:100E400041F21040C2F20000056041F20040C2F2DF
:100E50000000056041F20440C2F20000056041F26A
:100E60001440C2F20000056041F21840C2F20000D6
:100E7000056002F08DFB40F63870C2F200000021E0
:100E800042184550C031B1F5407F158155609582BB
:100E9000C2E903551584C2E906559585C2E909558D
:100EA0001587C2E90C55A2F84450C2E90F55A2F8C3
:100EB0005050C2E91255A2F85C50C2E91555A2F88B
:100EC0006850C2E91855A2F87450C2E91B55A2F83F
:100ED0008050C2E91E55A2F88C50C2E92155A2F8F3
:100EE0009850C2E92455A2F8A450C2E92755A2F8A7
:100EF000B050C2E92A55A2F8BC50C2F8B450C2F8AA
:100F0000B850BDD1204603F0BBFA208800283FD15D
:100F100045F6C02340F6586045F6B82145F6BC2298
:100F2000C0F60003C2F20000C0F60001C0F60002E5
:100F30001D6800230968126803603F204FF0030C0E
:100F40008DE8070040F6606045F6033141F26552D6
:100F5000CDE90433CDE9063CC2F20000C0F6000141
:100F6000C0F6000200230894039502F0DFFB2088FE
:100F700070B9204603F064FB208848B9204602F08F
:100F8000D3F9208820B9204604F0BEFA208808B1A1
:100F90000AB0B0BD02F0F6F80AB0BDE8B040FFF705
:100FA00009BF00BF40F638710020C2F200010022E4
:100FB0008B188850C032B2F5407F188158609882F3
:100FC000C3E903001884C3E906009885C3E9090052
:100FD0001887C3E90C00A3F84400C3E90F00A3F885
:100FE0005000C3E91200A3F85C00C3E91500A3F8A0
:100FF0006800C3E91800A3F87400C3E91B00A3F854
:101000008000C3E91E00A3F88C00C3E92100A3F807
:101010009800C3E92400A3F8A400C3E92700A3F8BB
:10102000B000C3E92A00A3F8BC00C3F8B400C3F8B9
:10103000B800BDD1704700BF80B58AB045F6C02169
:1010400040F6586C45F6B822C0F60001C2F2000C1A
:10105000C0F6000245F6BC23D1F800E0002112687A
:10106000C0F60003CCF8001008904FF0030C3F20AE
:101070001B688DE80D00CDE90411CDE9061C40F692
:10108000606045F6033141F26552C2F20000C0F6DD
:101090000001C0F600020023CDF80CE002F046FB90
:1010A0000AB080BD41F23820C2F200000078012869
:1010B00018BF704740F62070C2F200000178F9298D
:1010C0009CBF01310170704710B541F23820C2F267
:1010D00000000078012818BF10BD04F091FC40F614
:1010E0002071C2F200010A780446BAB341F23920F5
:1010F000C2F200000078013A104300060A702DD1B8
:1011000002F04EFA40F6387300EB4001C2F20003E1
:1011100053F8211041F2442340F62D72C2F200032D
:10112000C2F200021B68107041F248209942C2F2DC
:101130000000016012D041F24C22D1F88400C2F2CA
:10114000000213680130C1F88400581C10604EF68C
:101150000450CEF200004FF0805101602046BDE8FF
:10116000104004F051BC00BF10B540F6207041F2B1
:101170003921C2F20000C2F2000100780978084368
:1011800018BF10BD04F03CFC044602F009FA40F61A
:10119000387300EB4001C2F2000353F8211041F212
:1011A000442340F62D72C2F20003C2F200021B6813
:1011B000107041F248209942C2F20000016012D042
:1011C00041F24C22D1F88400C2F2000213680130CF
:1011D000C1F88400581C10604EF60450CEF2000096
:1011E0004FF0805101602046BDE8104004F00CBC77
:1011F000B0B540F62071C2F200010978044619B179
:1012000046F662502080B0BD41F23820C2F20000A4
:10121000007801280AD141F23925C2F20005287868
:10122000F92807D945F209202080B0BD45F689602C
:101230002080B0BD04F0E4FB29780131297004F06E
:10124000E3FB00202080B0BDF0B581B040F62075F2
:10125000C2F200052978044621B146F66550208087
:1012600001B0F0BD41F23820C2F200000078012840
:1012700014D141F23926C2F200063078A0B104F050
:10128000BFFB31784F1E377004F0BEFB380611D01B
:1012900046F66350208001B0F0BD00BF45F689607E
:1012A000208001B0F0BD00BF46F66450208001B040
:1012B000F0BD00BF28783178084333D104F0A0FB9B
:1012C000054602F06DF940F6387300EB4001C2F2BA
:1012D000000353F8211041F2442340F62D72C2F26C
:1012E0000003C2F200021B68107041F248209942CC
:1012F000C2F20000016012D041F24C22D1F8840009
:10130000C2F2000213680130C1F88400581C10605A
:101310004EF60450CEF200004FF080510160284696
:1013200004F072FB0020208001B0F0BD70B51446BF
:101330000D46064604F064FB45F6D021C0F60001D8
:1013400009684CF6CD42CCF6CC42A1FB0212711ECC
:10135000B1FA81F141F240234909C2F20003197048
:1013600041F23C21C2F20001002D08BFD5080D60FA
:1013700004F04AFB0020208070BD00BF2DE9F0473B
:1013800040F62076C2F200063178044621B148F2D8
:10139000D1452580BDE8F08741F23927C2F2000728
:1013A000387828B146F663552580BDE8F08700BF40
:1013B00041F24020C2F200000078012816D104F06A
:1013C0001FFB40F62C71C2F20001097840F6387814
:1013D00001EB4102C2F2000808EB82010B89814651
:1013E000022B09D246F67A1560E000BF46F67B155F
:1013F0002580BDE8F08700BF8C4658F822005CF8D5
:10140000042F022B06D102614FF0000E92461346C4
:1014100005E000BFC3680025824696461D61002591
:101420000B6041F23C21C560D060CCF80000586DE3
:10143000C2F200010968CAF810E0002818BF01468E
:101440004846996504F0E0FA30783978084330D19D
:1014500004F0D6FA814602F0A3F840F62D71C2F2EC
:101460000001087041F2442100EB4000C2F200018B
:1014700058F82000096841F24822C2F2000288426E
:10148000106012D041F24C22D0F88410C2F2000257
:1014900013680131C0F88410581C10604EF60450D7
:1014A000CEF200004FF0805101600025484604F064
:1014B000ABFA2580BDE8F0870189022938BF704763
:1014C0000AD1D0E900120023C1E90332C2E90313B3
:1014D000C0E90021704700BFD0E900124FF0000CB6
:1014E000CB68C3F810C0C1E903C2D160C0E90031C4
:1014F000704700BFB0B541F23825C2F20005297827
:10150000044619B145F68A602080B0BD02F048F863
:1015100040F62D71C2F20001087040F62C71C2F243
:101520000001087040F6387100EB4000C2F2000183
:1015300051F8200041F24821C2F20001086041F256
:101540004421C2F2000108600120287004F066F90D
:1015500043F699202080B0BD0146002247F2F850A2
:101560000A80704740F65864C2F2000404F048FA5A
:1015700021680131216004F047FA04F091F9F5E7A0
:101580002DE9F04182B041F24428C2F20008D8F8B7
:10159000006005460C46002086F8342086F83500A9
:1015A00073B10DF1060C304619460222634602273C
:1015B00003F0B4F8BDF8060020B186F8367004E0F8
:1015C000022000E0032086F8360096F8370040F647
:1015D0003877D6E9032300EB4001C2F2000707EB9E
:1015E00081014BB10889002AA0F101000881DA606D
:1015F00014BF13614B600FE001F1080332B118888A
:101600000A60013818800020106105E000221A806D
:10161000C1E9002202F00AF80020F0603061DCB37A
:10162000D8F80010C5E90000C5E904002883E86186
:10163000208A01220028EC60CA870D63A9603FD090
:1016400091F83720A16801302082F1B104F108003F
:101650008B6893F837309A423AD34968A9B18B68BE
:1016600093F837309A4233D3496871B18B6893F855
:1016700037309A422CD3496839B18B6893F83730A8
:101680009A4225D349680029E2D1204650F80C1F20
:1016900029604D603CE000BFD8F8001091F834207C
:1016A000C887072A08631BD0022A23D145F6FC20ED
:1016B000C0F60000C1F8B80002B0BDE8F08100BF7C
:1016C00000202282C5E90000A56004F10C001FE0A3
:1016D0000A68CAB10846C5E90021556018E000BF94
:1016E00045F61730C0F60000C1F8B80002B0BDE8FA
:1016F000F08100BF45F6FA20C0F60000C1F8B8003E
:1017000002B0BDE8F08100BF00220D60C5E90021F4
:101710000560A068D8F8001080686268006AC1F8A7
:10172000B820E06102B0BDE8F08100BFB0B582B082
:10173000044669B10DF1060320460222022502F09B
:10174000EDFFBDF8060028B184F8365005E000BF73
:10175000022000E0032084F8360094F8370040F6B9
:101760003875D4E9032300EB4001C2F2000505EB14
:1017700081016BB10889002AA0F101000881DA60BB
:1017800014BF13614B600020C4E9030002B0B0BD78
:1017900001F1080352B118880A600138188000204E
:1017A00010610020C4E9030002B0B0BD00221A801D
:1017B000C1E9002201F03AFF0020C4E9030002B0B1
:1017C000B0BD00BF10B5002AC287016350D0531EC0
:1017D0009BB2032B02F0030C28D322F0030E00234C
:1017E000002200BF043294B2C1E904330B83C1E983
:1017F00000338860C1E90C330B87C1E90733C1E9C5
:101800000930C1E91433A1F85830C1E90F33C1E9F7
:101810001130C1E91C33A1F87830CB67C1E9173327
:10182000C1E91930744501F18001DBD1BCF1000F31
:101830001ED00022BCF1010FC1E904220A83CA6153
:10184000C1E90022886013D0BCF1020FC1E90C226B
:101850000A87CA63C1E90822886208BF10BD002256
:10186000C1E91422A1F85820CA65C1E91022886490
:1018700010BD00BF80B5B0F808C0BCF1000F2DD07E
:101880008A680CF1010C92F837E00268A0F808C0F1
:10189000E2B1936893F837309E4529D35268AAB1D4
:1018A000936893F837309E4522D3526872B193689B
:1018B00093F837309E451BD352683AB1936893F83A
:1018C00037309E4514D35268002AE2D150F8043FC5
:1018D0000022C1E900325960016080BD012202810D
:1018E0000022C1E90022016040F8041F80BD00BF52
:1018F00013682BB1C1E900325960116080BD00BF8F
:1019000000231160C1E90032016080BD40B18268EE
:1019100043689268C1F8B830126AC261704700BF6C
:1019200091F8340007280DD0022819BF45F6FA2097
:10193000C0F6000045F6FC20C0F60000C1F8B80073
:10194000704700BF45F61730C0F60000C1F8B80078
:10195000704700BFF0B581B00F4691F836108B1F6D
:10196000022B25D30239012900F2228297F8341084
:1019700003294AD1FB8F002B47D0396BCE688642B2
:1019800041D09CB2012C40D0CE6A864232D0022C8B
:101990003BD0CE6C864231D0032C36D0CE6E864200
:1019A00030D0043B1E0401F18001E7D12DE000BFDF
:1019B00097F8341003296ED1FB8F002B6BD0396B55
:1019C000CE68864265D09CB2012C64D0CE6A864235
:1019D00012D0022C5FD0CE6C864211D0032C5AD08C
:1019E000CE6E864254D0043B1E0401F18001E7D143
:1019F00051E000BF203106E020314AE0403102E0F2
:101A0000403146E060310861CA6100210028F96573
:101A1000A7F860103A6400F0E680F88F002800F024
:101A2000DF80396B10F0030EA0F1010C00F0D480C0
:101A3000CC68228A012A03D10023A360E3600AE074
:101A4000D1E9003623B1002E66D05E60336002E03B
:101A500000233360A660013A22820022BEF1010F0A
:101A60000A604A6002D120316046B5E0CC6A228A21
:101A7000012A03D10023A360E36058E0D1E90836CE
:101A8000002B51D0002E00F08D805E6033604EE060
:101A900060310861CA6100210028F965A7F860106B
:101AA0003A6400F07C81F88F002800F07581396B72
:101AB00010F0030EA0F1010C00F06A81CC68228ABC
:101AC000012A03D10023A360E3600AE0D1E90036D4
:101AD00023B12EB35E60336003E000BF00233360A8
:101AE000A660013A22820022BEF1010F0A604A601C
:101AF00002D1203160464BE1CC6A228A012A03D10F
:101B00000023A360E36030E0D1E9083653B3002E30
:101B10004CD05E60336028E000255D608EE700BF3A
:101B200000255D60D0E700BF00233360A660013A66
:101B300022820022BEF1020F0A624A6202D14031C3
:101B4000023849E0CB6C1A8A012A03D10026C3E986
:101B500002663AE0D1E9104664B39EB36660346031
:101B600033E000BF00233360A660013A22820022E6
:101B7000BEF1020F0A624A6202D14031023807E127
:101B8000CB6C1A8A012A03D10026C3E90266F8E069
:101B9000D1E9104694B1002E00F0F0806660346008
:101BA000EFE000BF00255D6066E700BF00255D60D7
:101BB000A8E700BF002535609E6006E0002535607F
:101BC0009E60DEE000266660DC60013A1A82002238
:101BD000C1E91022603103381FFA8CF2032A45D282
:101BE0000020F8873863384602F034FE97F8360054
:101BF000400723D497F8370001F006FD40F62C711A
:101C0000C2F2000197F837000978884218D140F6EF
:101C1000387100EB4000C2F2000101EB8000014688
:101C200031F8082F002A00F0978001320A8050F81E
:101C3000042F0021F960D7603A619CE00020B2E0F7
:101C400040F6387100EB4000C2F2000101EB800069
:101C5000014631F8082F002A00F0868001320A8000
:101C6000016800223A610F6184E000BF6C310022FC
:101C70000BE000BFC4E90222013B0438238241E9A2
:101C80000322030401F18001AAD051F8603C1C8AB0
:101C9000012C03D1C3E902220CE000BF51E91B650E
:101CA00036B1002D19BF75602E607260DE6001E0F4
:101CB0002A609D60661E51F8404C1E82238A41F8BE
:101CC0006C2C012B41F8682C02D1C4E902220DE0F2
:101CD00051E9136526B13DB175602E6006E000BF85
:101CE0002A60A56002E000BF7260E6605E1E51F8E7
:101CF000203C26821C8A41F84C2C012C41F8482CAF
:101D000002D1C3E902220DE051E90B6526B13DB1D4
:101D100075602E6006E000BF2A609D6002E000BF93
:101D20007260DE60661E0C681E82238A41F82C2CCD
:101D3000012B41F8282C9DD051E9036526B13DB116
:101D400075602E6098E700BF2A60A56094E700BF29
:101D50007260E66090E700BF01220A800021F9600E
:101D600040F8047B396106E001220A8000213961D4
:101D700040F8047BF9600760002014E000266660EC
:101D8000DC60013A1A820022C1E910226031033876
:101D90001FFA8CF2032A0DD20020F88738633846E8
:101DA00002F058FD042087F836004FF48070B886A2
:101DB00001B0F0BD6C3100220BE000BFC4E902228B
:101DC000013B0438238241E90322030401F180012D
:101DD000E2D051F8603C1C8A012C03D1C3E90222F5
:101DE0000CE000BF51E91B6536B1002D19BF7560CD
:101DF0002E607260DE6001E02A609D60661E51F810
:101E0000404C1E82238A41F86C2C012B41F8682C2F
:101E100002D1C4E902220DE051E9136526B13DB1BA
:101E200075602E6006E000BF2A60A56002E000BF7A
:101E30007260E6605E1E51F8203C26821C8A41F8E2
:101E40004C2C012C41F8482C02D1C3E902220DE0B0
:101E500051E90B6526B13DB175602E6006E000BF0B
:101E60002A609D6002E000BF7260DE60661E0C6842
:101E70001E82238A41F82C2C012B41F8282C9DD05E
:101E800051E9036526B13DB175602E6098E700BF4A
:101E90002A60A56094E700BF7260E66090E700BF2B
:101EA00080B5B1F83EC0BCF1000F21D0D1F830E0D0
:101EB000DEF80C3083421FD01FFA8CF3012B17D0B1
:101EC000DEF82C10814215D0022B11D0DEF84C1018
:101ED000814217D0032B08BF80BDDEF86C10814211
:101EE00018D0ACF1040C5FEA0C410EF1800EDFD18A
:101EF00080BD00BF0EF1200ECEF81000CEF81C20E1
:101F000080BD00BF0EF1400ECEF81000CEF81C20B0
:101F100080BD00BF0EF1600ECEF81000CEF81C2080
:101F200080BD00BF70B5B0F83EE0BEF1000F4CD0F0
:101F3000026B1EF00303AEF1010C42D0D1680C8A93
:101F4000012C03D100258D60CD600AE0D2E9005656
:101F500025B12EB36E60356003E000BF002535600B
:101F60008E60013C0C820021012B1160516007D171
:101F70002032E6461FFA8CF1032926D351E000BF38
:101F8000D16A0C8A012C03D100258D60CD600EE052
:101F9000D2E9085645B16EB36E60356007E000BF08
:101FA00000266E60D0E700BF002535608E60013CE2
:101FB0000C820021022B116251620BD14032AEF132
:101FC000020E1FFA8CF103292BD20021C187016375
:101FD00070BD00BFD16C0B8A012B03D100248C6033
:101FE00012E000BFD2E9104544B15DB165602C60DC
:101FF0000BE000BF00266E60C8E700BF00242C6025
:102000008D6002E000256560CC60013B0B82002101
:10201000C2E910116032AEF1030E1FFA8CF10329F0
:10202000D3D36C324FF0000C0DE000BFC3E902CCFB
:102030000139AEF1040E198242E903CC5FEA0E4188
:1020400002F18002C1D052F8601C0B8A012B03D12F
:10205000C1E902CC10E000BF52E91B4544B1002D9C
:1020600019BF65602C60C4F804C0CC6004E000BFF8
:10207000C5F800C08D6000BF5C1E52F8403C0C8269
:10208000198A42F86CCC012942F868CC02D1C3E924
:1020900002CC0FE052E9134524B13DB165602C60DC
:1020A00008E000BFC5F800C09D6003E0C4F804C0AC
:1020B000DC6000BF4C1E52F8201C1C820B8A42F8C8
:1020C0004CCC012B42F848CC02D1C1E902CC0FE044
:1020D00052E90B4524B13DB165602C6008E000BFBA
:1020E000C5F800C08D6003E0C4F804C0CC6000BF38
:1020F0005C1E13680C82198A42F82CCC012942F824
:1021000028CC3FF493AF52E903451CB135B165606B
:102110002C608DE7C5F800C09D6089E7C4F804C055
:10212000DC6085E710B5044602F094FB94F83600B5
:10213000400748BF10BD94F8370001F065FA40F63B
:102140002C71C2F2000194F837000978884215D149
:1021500040F6387100EB4000C2F2000101EB800054
:10216000014631F8082FFAB101320A8050F8042FE5
:102170000021E160D4602261046010BD40F6387136
:1021800000EB4000C2F2000101EB8000014631F893
:10219000082F9AB101320A800168002222610C6185
:1021A000E160046010BD00BF01220A800021E160EF
:1021B00040F8044B2161046010BD00BF01220A8079
:1021C0000021216140F8044BE160046010BD00BFB4
:1021D000836845F6FA22C0F60002C1F8B8200BB1B8
:1021E00099680A6AC2617047B0B5C28F80F837102B
:1021F000002A08BFB0BD006B4FF0000C0CE000BF20
:1022000053F80C1F016048609E46CEF80000013A6A
:10221000110400F120004BD0C3681D8A022DF6D3B3
:10222000D0E9001403F1080E41B1002C19BF4C6035
:102230002160C1F804C0D96004E000BFC4F800C048
:10224000CEF80040C0E900CC8468996894F8374023
:1022500000291D82D4D08D6895F83750AC421BD32D
:1022600049680029CCD08D6895F83750AC4213D31B
:1022700049680029C4D08D6895F83750AC420BD31B
:1022800049680029BCD08D6895F83750AC4203D31B
:1022900049680029DFD1B3E70B682BB18E46C0E94E
:1022A00000315860B1E700BF0860C0E900C1ACE789
:1022B000B0BD00BF80B50289012A03D10023C0E967
:1022C000003318E0D1E900ECBEF1000F08D0BCF1FA
:1022D000000F0BD0CEF804C0CCF800E00BE000BF3C
:1022E0000023CCF80030C0F800C004E00023CEF892
:1022F0000430C0F804E0013A02810020C1E9000086
:1023000080BD00BF0021C0E900110181704700BFFE
:10231000B0F808C000220CF10103038103680A60D1
:10232000002B4B6018BF1960BCF1000F016008BFA3
:10233000416070472DE9F0410C4691F836108B1F33
:10234000022B27D30239012988BFBDE8F08194F818
:102350003430E18F032B4ED100293FD0236B0D4643
:10236000DF68874245D0AFB2012F44D0DE6A864293
:102370003AD0022F3FD0DE6C864237D0032F3AD0BE
:10238000DF6E874234D0043D2F0403F18003E7D190
:1023900031E000BF94F83410032940F07C80E38FD3
:1023A000002B00F07880216BCF68874271D09FB2FC
:1023B000012F70D0CE6A864266D0022F6BD0CE6CD1
:1023C000864263D0032F66D0CF6E874260D0043B35
:1023D0001F0401F18001E7D15DE000BF0020E0654E
:1023E000A4F860002264B4E0203302E0403300E04F
:1023F00060331861DA6100200029E065A4F860000C
:10240000226400F0A680206B11F00303A1F1010CFF
:1024100000F09A80C668358A012D03D10022C6E9F2
:1024200002220EE0D0E9007227B13AB17A6017605B
:1024300007E000BF00271760B26002E000227A6068
:10244000F7606A1E32820022012B0260426007D1CF
:10245000203061461FFA8CF2032AC0F07A8018E11E
:10246000C66A358A012D03D10022C6E9022262E044
:10247000D0E9087227B1002A5AD07A6017605AE072
:1024800000271760B26056E0203102E0403100E0E2
:1024900060310861CA614FF000082046C4F85C80D2
:1024A000A4F86080226402F0D5F9E08F002800F0E3
:1024B0007381216B10F00303A0F1010C00F068811F
:1024C000CD682E8A012E03D10022C5E902220EE03A
:1024D000D1E9007227B13AB17A60176007E000BF16
:1024E00000271760AA6002E000227A60EF60721E87
:1024F0002A820022012B0A604A6003D12031604603
:1025000046E100BFCD6A2E8A012E03D10022C5E923
:1025100002228AE0D1E9087237B1002A00F08280F5
:102520007A60176081E000BF00271760AA607CE036
:1025300000227A60F7606A1E32820022022B026259
:1025400042625FD1403002391FFA8CF2032A80F0D8
:10255000A08000252046E587256302F07BF994F8EA
:102560003600400747D494F8370001F04DF840F6A4
:102570002C71C2F2000194F837000978884215D115
:1025800040F6387100EB4000C2F2000101EB800020
:10259000014631F8082FEAB101320A8050F8042FC1
:1025A0000021E160D460226123E000BF40F6387171
:1025B00000EB4000C2F2000101EB8000014631F85F
:1025C000082F7AB101320A800168002222610C6171
:1025D0000EE000BF01220A800021E16040F8044BB8
:1025E000216106E001220A800021216140F8044BAC
:1025F000E160046000254FF4007084F83650A08636
:10260000BDE8F081C36C1E8A012E03D10022C3E90C
:10261000022232E0D0E9107227B35AB37A60176011
:102620002BE000BF00227A60EF60721E2A82002237
:10263000022B0A624A6203D140310238A8E000BF8F
:10264000CB6C1E8A012E03D10022C3E9022298E03E
:10265000D1E9107257B1002A00F090807A601760BB
:102660008FE000BF002717609A6006E00027176020
:102670009A6086E000227A60DF60721E1A82002271
:10268000C0E91022603003391FFA8CF2032AFFF4EC
:1026900060AF6C3000220BE0C7E90222013B043935
:1026A0003B8240E903220B0400F180003FF451AF6C
:1026B00050F8603C1F8A012F02D1C3E902220BE0CF
:1026C00050E91B6536B1002D19BF75602E60726030
:1026D000DE6001E02A609D60013F50F8405C1F828F
:1026E0002B8A40F86C2C012B40F8682C02D1C5E9EC
:1026F00002220DE050E9137627B13EB17E603760CB
:1027000006E000BF3260AE6002E000BF7A60EF60BA
:102710005F1E50F8203C2F821F8A40F84C2C012F5E
:1027200040F8482C02D1C3E902220DE050E90B65C4
:1027300026B13DB175602E6006E000BF2A609D6045
:1027400002E000BF7260DE607E1E07681E823B8A68
:1027500040F82C2C012B40F8282C9DD050E9036523
:1027600026B13DB175602E6098E700BF2A60BD605C
:1027700094E700BF7260FE6090E700BF00227A60BD
:10278000DF60721E1A820022C1E910226031033814
:102790001FFA8CF2032A0BD20425A4F83E80C4F859
:1027A00030804FF4007084F83650A086BDE8F08188
:1027B0006C3100220BE000BFC6E90222013B043865
:1027C000338241E90322030401F18001E4D051F88E
:1027D000603C1E8A012E03D1C3E902220CE000BF37
:1027E00051E91B7537B1002D19BF7D602F607A60EC
:1027F000DF6001E02A609D60771E51F8405C1F8217
:102800002B8A41F86C2C012B41F8682C02D1C5E9C8
:1028100002220DE051E9137627B13EB17E603760A8
:1028200006E000BF3260AE6002E000BF7A60EF6099
:102830005F1E51F8203C2F821E8A41F84C2C012E3D
:1028400041F8482C02D1C3E902220DE051E90B7591
:1028500027B13DB17D602F6006E000BF2A609D601A
:1028600002E000BF7A60DF60771E0E681F82338A45
:1028700041F82C2C012B41F8282C9DD051E90375EF
:1028800027B13DB17D602F6098E700BF2A60B56039
:1028900094E700BF7A60F76090E700BF80B5B1F8B9
:1028A0003EC0BCF1000F21D0D1F830E0DEF80C3092
:1028B00083421FD01FFA8CF3012B17D0DEF82C10A7
:1028C000814215D0022B11D0DEF84C10814217D076
:1028D000032B08BF80BDDEF86C10814218D0ACF12C
:1028E000040C5FEA0C410EF1800EDFD180BD00BF09
:1028F0000EF1200ECEF81000CEF81C2080BD00BFD7
:102900000EF1400ECEF81000CEF81C2080BD00BFA6
:102910000EF1600ECEF81000CEF81C2080BD00BF76
:102920002DE9F0410C4691F83610DDF818C08F1FE4
:10293000022F80462AD3881E012888BFBDE8F08177
:1029400094F83400032847D1E18F002949D0206B47
:10295000C768474500F0B3808DB2012D41D0C76AEA
:10296000474500F0A780022D3BD0C76C474500F0DB
:10297000A380032D35D0C76E474500F09F800439F2
:102980000F0400F18000E3D12BE000BF94F8340085
:1029900003283DD1E18F00293FD0206BC768474510
:1029A00000F0C1808DB2012D37D0C76A474500F0D5
:1029B000B580022D31D0C76C474500F0B180032DA2
:1029C0002BD0C76E474500F0AD8004390F0400F1ED
:1029D0008000E3D121E000BFE265A4F86030C4F8D4
:1029E00040C0B8F1000F00F01B81E08F002800F01C
:1029F0000781216B10F0030EA0F1010C00F0FC80A8
:102A0000CD682A8A012A23D10023AB60EB6034E031
:102A1000E265A4F86030C4F840C0204601F01AFF17
:102A2000B8F1000F00F0EA81E08F002800F0D681B5
:102A3000216B10F0030EA0F1010C00F0CB81CD68EA
:102A40002A8A012A0CD10023AB60EB6045E000BF6D
:102A5000D1E9003773B1002F5CD05F603B600CE0C0
:102A6000D1E90037B3B3002F00F088805F603B608E
:102A700033E000BF00233B60AF60013A2A820022AE
:102A8000BEF1010F0A604A6002D120316046B3E016
:102A9000CD6A2A8A012A03D10023AB60EB6052E0A1
:102AA000D1E90837002B4BD0002F00F08B805F60FE
:102AB0003B6048E0203002E0403000E06030C0E998
:102AC00004820383C0F81CC0B8F1000F7FF48DAFFF
:102AD000A6E000BF00233B60AF60013A2A820022DB
:102AE000BEF1010F0A604A6002D12031604671E1F7
:102AF000CD6A2A8A012A03D10023AB60EB6044E04F
:102B0000D1E90837002B3DD0002F63D05F603B60D8
:102B10003BE000BF00265E6078E700BF203002E0A7
:102B2000403000E06030C0E904820383C0F81CC07C
:102B3000204601F08FFEB8F1000F7FF475AF5DE124
:102B400000233B60AF60013A2A820022BEF1020FEF
:102B50000A624A6202D1403102384DE0CB6C1A8AD7
:102B6000012A03D10027C3E902773EE0D1E91057DB
:102B700065B3BFB36F603D6037E000BF00265E60A5
:102B800063E700BF00233B60AF60013A2A82002266
:102B9000BEF1020F0A624A6202D14031023819E1E5
:102BA000CB6C1A8A012A03D10027C3E902770AE114
:102BB000D1E9105795B1002F00F002816F603D60A0
:102BC00001E100BF00265E6068E700BF00263E60AE
:102BD0009F600AE000265E6090E700BF00263E602E
:102BE0009F60F0E000276F60DD60013A1A820022EA
:102BF000C1E91022603103381FFA8CF2032A51D246
:102C00000020D8F80810E087206345F6FA20C0F6C7
:102C10000000C4F8B80009B18868006AC8F81C0050
:102C2000204601F017FE94F83600400700F1C080FE
:102C300094F8370000F0E8FC40F62C71C2F2000175
:102C400094F837000978884216D140F6387100EBC5
:102C50004000C2F2000101EB8000014631F8082F6C
:102C6000002A00F0958001320A8050F8042F0021DC
:102C7000E160D46022619AE040F6387100EB4000D8
:102C8000C2F2000101EB8000014631F8082F002A52
:102C900000F0868001320A800168002222610C6106
:102CA00084E000BF6C3100220BE000BFC5E90222C6
:102CB000013B04382B8241E90322030401F1800126
:102CC0009ED051F8603C1D8A012D03D1C3E9022238
:102CD0000CE000BF51E91B7637B1002E19BF7E60B2
:102CE00037607A60DF6001E032609E606F1E51F8ED
:102CF000405C1F822B8A41F86C2C012B41F8682C18
:102D000002D1C5E902220DE051E9137627B13EB1A7
:102D10007E60376006E000BF3260AE6002E000BF58
:102D20007A60EF605F1E51F8203C2F821D8A41F8C7
:102D30004C2C012D41F8482C02D1C3E902220DE0B0
:102D400051E90B7627B13EB17E60376006E000BFE7
:102D500032609E6002E000BF7A60DF606F1E0D6827
:102D60001F822B8A41F82C2C012B41F8282C9DD056
:102D700051E9037627B13EB17E60376098E700BF26
:102D80003260AE6094E700BF7A60EF6090E700BF0A
:102D900001220A800021E16040F8044B216106E035
:102DA00001220A800021216140F8044BE1600460A7
:102DB000002084F836000020A086BDE8F08100BF26
:102DC00000276F60DD60013A1A820022C1E91022FB
:102DD000603103381FFA8CF2032A17D20020D8F88A
:102DE0000810E087206345F6FA20C0F60000C4F81A
:102DF000B80009B18868006AC8F81C00042084F88B
:102E000036000020A086BDE8F08100BF6C310022B2
:102E10000BE000BFC5E90222013B04382B8241E9E7
:102E20000322030401F18001D8D051F8603C1D8ACF
:102E3000012D03D1C3E902220CE000BF51E91B764A
:102E400037B1002E19BF7E6037607A60DF6001E025
:102E500032609E606F1E51F8405C1F822B8A41F8E1
:102E60006C2C012B41F8682C02D1C5E902220DE03F
:102E700051E9137627B13EB17E60376006E000BFAE
:102E80003260AE6002E000BF7A60EF605F1E51F812
:102E9000203C2F821D8A41F84C2C012D41F8482CF2
:102EA00002D1C3E902220DE051E90B7627B13EB110
:102EB0007E60376006E000BF32609E6002E000BFC7
:102EC0007A60DF606F1E0D681F822B8A41F82C2C00
:102ED000012B41F8282C9DD051E9037627B13EB152
:102EE0007E60376098E700BF3260AE6094E700BF55
:102EF0007A60EF6090E700BFB0B5B1F83EE0BEF198
:102F0000000F1FD0DDF810C0096B00BFCC688442F1
:102F10001BD01FFA8EF4012C14D0CD6A854213D039
:102F2000022C0FD0CD6C854216D0032C08BFB0BD4B
:102F3000CC6E844218D0AEF1040E5FEA0E4401F16B
:102F40008001E3D1B0BD00BF2031C1E904020B8391
:102F5000C1F81CC0B0BD00BF4031C1E904020B8301
:102F6000C1F81CC0B0BD00BF6031C1E904020B83D1
:102F7000C1F81CC0B0BD00BF10B5044690F83700C2
:102F800000F042FB40F62C71C2F2000194F83700C9
:102F90000978884216D140F6387100EB4000C2F241
:102FA000000101EB8000014631F8082F02B3013225
:102FB0000A8050F8042F0021E160D460226104608F
:102FC00010BD00BF40F6387100EB4000C2F20001B6
:102FD00001EB8000014631F8082F9AB101320A80D6
:102FE0000168002222610C61E160046010BD00BF35
:102FF00001220A80002140F8044BE1602161046055
:1030000010BD00BF01220A800021216140F8044B5D
:10301000E160046010BD00BF90F8371040F63872D0
:1030200001EB4101C2F2000202EB81010A4632F8D3
:10303000083F4BB10133138051F8043F0022C0E92F
:103040000323D8600860704701231380002241F8F1
:10305000040BC0E903220860704700BF90F83710E6
:1030600040F6387201EB4101C2F2000202EB81012D
:103070000A4632F8083F4BB1013313800A68002337
:10308000C0E9032310610860704700BF012313806B
:103090000022C0E90322086041F8040F704700BF16
:1030A00010B5044690F8370040F6387CD4E9032385
:1030B00000EB4001C2F2000C0CEB810163B1088906
:1030C000002AA0F101000881DA6014BF13614B608F
:1030D0000020C4E9030010BD01F1080352B11888B3
:1030E0000A6001381880002010610020C4E9030044
:1030F00010BD00BF00221A80C1E9002200F096FA3C
:103100000020C4E9030010BDB0B541F24021C2F275
:1031100000010978012918BFB0BD044602F070FC17
:103120002168054651B140F66060C2F2000081425C
:1031300004D0886D40B10138886505D02846BDE8C7
:10314000B04002F061BC00BF20890228F6D341F2F2
:103150003920C2F2000000780028EFD12046FEF7A7
:10316000ABF9206841F23C22416DC2F200021268C4
:10317000002918BF0A4682652846BDE8B04002F023
:1031800043BC0000704700002DE9F04100286BD0DF
:1031900000296FD04C1E230486464ED08B1E9BB256
:1031A00004F0030C032B804623D34FF6FC7304EA90
:1031B000030E00240646002506F14008374647F86E
:1031C000308F334643F8207F3746043547F8103FA9
:1031D000ABB2C6E900743481F46074613483F46185
:1031E00074623485F46274633487F46373454646CD
:1031F000E2D1BCF1000FC6461FD008F1100E00242A
:10320000BCF1010FC8E900E4A8F80840C8F80C4078
:1032100013D008F1200EBCF1020FC8E904E4A8F8AD
:103220001840C8F81C4008D008F1300E0023C8E947
:1032300008E3A8F82830C8F82C3040F62477C2F20A
:1032400000073E68002300EB0115CEE9003345F886
:10325000106CBE8838607018AEF80830CEF80C30AC
:10326000B8801380BDE8F08145F21E731380BDE87D
:10327000F08100BF45F21D731380BDE8F08100BFEF
:10328000B0B54A1E130448D0023989B2032902F0AE
:10329000030C01D2024622E04FF6FC7102EA010E55
:1032A0000021002300F14002044644F8302F054677
:1032B00045F8204F044644F8105F0433C0E900414C
:1032C0000181C16041610183C16141620185C162C7
:1032D00041630187C16398B270451046E2D1BCF1E9
:1032E000000F104619D002F110000021BCF1010FAF
:1032F000C2E900011181D1600FD002F12000BCF1C0
:10330000020FC2E904011183D16106D002F130003D
:103310000021C2E908011185D1620021C0E9001134
:103320000181C160B0BD00BF2DE9F04145F6C42167
:10333000C0F60001D1F80080B8F1000F68D045F662
:10334000C821C0F60001B1F800E0BEF1000F65D061
:10335000AEF101042104434649D0AEF1020189B225
:1033600004F0030C0329414623D34FF6FC7104EA11
:10337000010300244646002506F14001374647F880
:10338000301F324642F8207F3746043547F8102F69
:10339000AAB2C6E900743481F46074613483F461C4
:1033A00074623485F46274633487F4639A420E461F
:1033B000E2D1BCF1000F0B4619D001F1100300243B
:1033C000BCF1010FC1E900340C81CC600FD001F1D8
:1033D0002003BCF1020FC1E904340C83CC6106D098
:1033E00001F130030022C1E908320A85CA6240F6C1
:1033F00024720021C2F20002C3E900111981D960D0
:10340000C2F80080A2F804E0D1800180BDE8F0811C
:1034100045F21E710180BDE8F08100BF45F21D71CB
:103420000180BDE8F08100BF10B5044602F0E8FA63
:103430000021A181BDE8104002F0E6BA01464089B2
:10344000002808BF704740F62472C2F20002D2F88A
:1034500000C00B68C3F800C0D388D1F804C01B1AA1
:10346000D3809388C2F800C0034493800022C1F83F
:103470000A20C1E90022704701810021C0F80A102A
:10348000C0E90011704700BF10B584464089A8B15B
:10349000DCF804E0002ABEF80840DEF804000C80E6
:1034A0001CBFDEF80C101160DEF80010CCF8041020
:1034B00071B1BCF80A1001390DE000BF002008808E
:1034C00046F29251002A18BF1060198010BD00BF4B
:1034D0000021CCF80010ACF80A1040F62471C2F2BA
:1034E00000010A688C88CEF80020621C8A80CA8895
:1034F000C1F800E0013ACA800021198010BD00BF68
:10350000F0B544890689DDF818C0B44218D240F6F7
:103510002475C2F20005AE88C6B1D5F800E0013EC0
:10352000AE80EE88DEF8007001362F60EE809CB130
:10353000DB0615D403680546C3F800E0002312E05B
:1035400046F29350ACF80000F0BD00BF45F21D708C
:10355000ACF80000F0BD00BFC0E900EE012307E0B9
:10356000054655F8043FCEF80030631CC5F800E06E
:103570008589059CAB42438188BF83810020CEF8BA
:103580000410AEF80820CEF80C40ACF80000F0BDF6
:1035900040F63070C2F200000021C0E9001170470F
:1035A00010B540F63071C2F20001086830B1002455
:1035B00002F02DFA2044C0B210BD00BF0831002433
:1035C0006FF07F0251F8040C50B9086870B9486870
:1035D00090B988685440002801F11001F2D0E7E763
:1035E000203402F014FA2044C0B210BD403402F07E
:1035F0000EFA2044C0B210BD44F0600402F007FA95
:103600002044C0B210BD00BF1F2140F6307381437B
:10361000C0F34210C2F200034FF0010C53F8202017
:103620000CFA01F1114343F8201070471F2140F6B6
:1036300030738143C0F34210C2F200034FF0010C1B
:1036400053F820200CFA01F122EA010143F820107E
:10365000704700002DE9F041144640F62072C2F296
:103660000002127822B147F249102080BDE8F081B3
:103670000D463E2904D946F273202080BDE8F08132
:103680000746064640B902F0BBF941F24421C2F2B6
:1036900000010E6802F0B8F902F0B2F996F836109F
:1036A0008046072920D80120884010F0CC0F0FD089
:1036B00096F8340007282FD8012101FA00F010F005
:1036C000780F0BD030462946FEF78EFD24E000BF70
:1036D00010F0320F10D086F837501DE010F0860F32
:1036E00018BF86F8375017E0404602F08DF946F6CD
:1036F0002A602080BDE8F0813046FFF7D1FC2846E3
:1037000086F83750FFF780FF30461FB1FFF784FC83
:1037100002E000BFFFF7A2FC404602F075F9FDF79A
:1037200023FD00202080BDE8F08100BF2DE9F04F8F
:1037300087B00F4640F62071C2F200010978189D4B
:1037400031B147F24A10288007B0BDE8F08F00BFC2
:103750000446A8B11646CAB1DDF84480B8F1000F9E
:103760001AD045F6CC20C0F60000DDF84CB0006859
:10377000584517D946F62D60288007B0BDE8F08F70
:1037800047F2AD10288007B0BDE8F08F47F24F1028
:10379000288007B0BDE8F08F46F62C60288007B07F
:1037A000BDE8F08FDDF848A0DA4517D29946109BA6
:1037B000402B0DD20DF1500E40F66060DDF85CC07C
:1037C0009EE80640C2F2000084420DD03F2B0BD190
:1037D00046F27320288007B0BDE8F08F46F62E60D1
:1037E000288007B0BDE8F08F2046CDE90232CDE950
:1037F00004E1CDF818C000F071F80698002100F03F
:1038000003000328298004D14FEA8B01404602F0CF
:103810000FF9CDF800B008EB8A05DDF818A03046A6
:10382000494642462B46CDF804A002F07FF80299A3
:10383000206041F23C2084F83710C2F20000039966
:103840000068A560002918BF0846C4E9151004984F
:1038500005996060C4E90A69002604F16400C4E9BE
:103860000878C4F838B0A4F83CA0E667FFF704FE77
:10387000204602F03DF802F0C3F894F837100546F0
:103880000846FFF7C1FE2046FFF7C6FB41F2502075
:10389000C2F200000168C4F8B060002918BFC1F886
:1038A000B040C4F8B41041F25421C2F200010A88B9
:1038B0000460501C41F23822C2F2000214780880E1
:1038C000284602F0A1F8012C1CBF07B0BDE8F08F1C
:1038D00007B0BDE8F04FFDF747BC00BFB0B500250D
:1038E0000446C0E90055C0E90255C0E90455C0E9E5
:1038F000065545F62030C0F60000C4E9080504F17D
:1039000064000021C4E90A552564E565A4F8605007
:10391000FFF7B2FD4FF00040C4E91150402084F899
:10392000370045F6FA20C0F60000A563A587C4E974
:103930001D55E567A4F88050A58684F83650C4E983
:103940001355C4E91555C4E92155C4E92355C4F8F4
:103950009450C4E92855C4E92A55C4E92C55C4F843
:10396000B800B0BD41F25021C2F200010A68002344
:10397000002AC0F8B03018BFC2F8B000C0F8B420B8
:10398000086070472DE9F04140F62072C2F2000253
:1039900012780C4622B147F24E162680BDE8F0811F
:1039A000054640F66060C2F20000854222D045B96B
:1039B00002F026F841F24421C2F200010D6802F043
:1039C00023F802F01DF895F83610804607291FD815
:1039D000DFE801F02616040429160404284600F046
:1039E00039FF95F83400C11E04290DD22846FEF790
:1039F00099FA18E047F24C162680BDE8F08100BF26
:103A0000284600F027FF0EE00128EFD00BE000BFB2
:103A1000404601F0F9FF46F62A662680BDE8F081AF
:103A20002846FFF73DFB05F164073846FFF706FD22
:103A3000284601F067FFD5E92C1049B1B0B1C1F8B3
:103A4000B400C0F8B0100020C5F8B0000BE000BF13
:103A500041F25021C2F20001002808601CBF002181
:103A6000C0F8B0100020C5F8B40004E00020C1F890
:103A7000B400C5F8B00041F25420C2F20000018841
:103A800000260139018045F62030C0F60000C5E966
:103A9000080638460021C5E90066C5E90266C5E9A1
:103AA0000466C5E90666C5E90A662E64EE65A5F8F2
:103AB0006060FFF7E1FC4FF00040C5E9116045F69A
:103AC000FA20C0F60000C5F8B80044F2FF00E8860E
:103AD0004046AE63AE87C5E91D66EE67A5F8806017
:103AE000AE86C5E91366C5E91566C5E92166C5E96F
:103AF0002366C5F89460C5E92866C5E92A66C5E964
:103B00002C6601F081FFFDF72FFB2680BDE8F081D8
:103B1000D0E92C2142B1A9B1C2F8B410C1F8B0204B
:103B20000021C0E92C11704741F25022C2F200027C
:103B3000002911601CBF0022C1F8B0200021C0F88C
:103B4000B41070470021C2F8B410C0F8B01070472C
:103B500070B540F62072C2F2000212780C462AB10B
:103B600000254FF46C512846218070BD054640B9B0
:103B700001F046FF41F24421C2F200010D6801F05C
:103B800043FF01F03DFF064605F16400FFF756FCD8
:103B90000546304601F038FF00212846218070BDDF
:103BA0002DE9F04F81B0174640F62072C2F20002B4
:103BB0001278DDF828904AB146F2AE10A9F800005C
:103BC0000025284601B0BDE8F08F00BF87B304464A
:103BD00041F400400E46B0F5004F2DD19A46002B1F
:103BE0001CBF0020CAF8000001F00AFF41F2442B7C
:103BF000C2F2000BDBF80010804601F16400394688
:103C000052464B46FFF740FCB9F80010C1B130B244
:103C1000B0F1FF3F2ADD41F23920C2F20000007806
:103C200080B3404601F0F0FE46F66350C6E700BFA1
:103C300046F2D520C2E700BF45F62560BEE700BFCB
:103C40000546BAF1000F09D0DBF80000DAF80010E1
:103C5000826F49428A42416738BF8167404601F01E
:103C6000D3FE284601B0BDE8F08F00BF46F2B01089
:103C7000A9F80000404601F0C7FE0025284601B023
:103C8000BDE8F08F00200021022223460025FDF729
:103C900077FC404601F0B8FEFDF766FA01F0B0FE91
:103CA000DBF8001091F83520012A13D0E2B9CD6D70
:103CB000B1F86020BAF1000F3A8021D00A6CCAF83E
:103CC00000200A6C8B6F524293424A6738BF8A6762
:103CD000002116E0BAF1000F3D801CBF0025CAF894
:103CE000005046F2A9110CE00025BAF1000F3D800A
:103CF00003D0096C0025CAF8001047F2D92100E072
:103D00000021A9F8001001F07FFE284601B0BDE8AF
:103D1000F08F00BFF0B581B0144640F62072C2F2B9
:103D20000002127832B1002046F2AA17278001B0B3
:103D3000F0BD00BF0D46074601F062FE0646EFB13A
:103D400041F24420C2F200000068B84216D097F851
:103D5000340002281CD10020394600220027FDF73C
:103D6000F9FD304601F050FE28B200281AD4FDF7C4
:103D7000FBF901200027278001B0F0BD304601F09B
:103D800043FE002046F2AC17278001B0F0BD00BF13
:103D9000304601F039FE002046F2AB17278001B013
:103DA000F0BD00BF0120278001B0F0BD80B582B01A
:103DB000DDF810C04FF0000ECDE900EC00F002F885
:103DC00002B080BD2DE9F04383B0DDE90A54984686
:103DD00091460E46074601F013FE41F24421C2F21D
:103DE000000109680022002F18BF3946228091F88F
:103DF00036200746072A2BD80120904010F0330FB9
:103E000016D191F83400022812D1002032464B46D8
:103E10000095FEF785FD384601F0F6FD0FFA88F0B3
:103E200000281BD403B0BDE8F043FDF79DB900BFE7
:103E300001F1640031464A46434600950194FFF77C
:103E40005FFB384603B0BDE8F04301F0DDBD00BFC5
:103E5000384601F0D9FD46F62A60208003B0BDE85F
:103E6000F08300BFB0B5144631B1002546F6791194
:103E700028462180B0BD00BF054601F0C1FD41F2DA
:103E80004421C2F200010968002D18BF2946CD6FF8
:103E900001F0BAFD002128462180B0BD70B51C4656
:103EA00021B146F67910208070BD00BF1546064648
:103EB00001F0A6FD41F24421C2F200010968002E82
:103EC00018BF3146CD6701F09FFD0020208070BDF6
:103ED00070B540F62072C2F2000212780E461AB196
:103EE00047F25510308070BD054601F089FD04464B
:103EF000E5B141F24420C2F200000068A84215D0AA
:103F00000020308095F83600072817D8DFE800F049
:103F1000040404041E2C3844204601F075FD47F2C9
:103F200053103080BDE87040FDF71EB9204601F007
:103F30006BFD47F25710308070BD00BF204601F086
:103F400063FD46F62A60308070BD00BF95F88000A2
:103F50000138010685F8800028D1002085F8360058
:103F60002846FEF7DFF821E095F8800001380106C9
:103F700085F880001AD1012085F8360016E000BFD0
:103F800095F880000138010685F880000ED10220E6
:103F900085F836000AE000BF95F880000138010678
:103FA00085F8800002D1032085F83600204601F014
:103FB0002BFDBDE87040FDF7D7B800BF2DE9F043F9
:103FC00081B0154640F62072C2F2000212781C46FB
:103FD00042B146F2AE1020800027384601B0BDE85D
:103FE000F08300BF0E460746002D1CBF002028604E
:103FF00001F006FD41F24429C2F20009D9F800108F
:1040000080464A6CC2B1571E4F64002D1CBF086C1D
:104010002860086CD1F8A42040428242C1F8A00078
:1040200038BFC1F8A400404601F0EEFC002020801B
:10403000384601B0BDE8F08330B2B0F1FF3F0BDD90
:1040400041F23920C2F20000007858B1404601F038
:10405000DBFC46F66350BEE7404601F0D5FC46F275
:10406000B010B8E70020002107223B46FDF788FA90
:10407000404601F0C9FCFDF777F801F0C1FCD9F822
:10408000001091F83520032A12D0012A18D0FAB96D
:1040900015B30A6C2A600A6CD1F8A43052429342DC
:1040A000C1F8A02038BFC1F8A420002115E000BF4E
:1040B000002D1CBF0021296047F2D9210DE000BF6F
:1040C000002D1CBF096C296046F2A91105E000BF54
:1040D00046F62B6101E000BF00212180D9F80010D5
:1040E0004F6C01F091FC384601B0BDE8F08300BF91
:1040F000F0B581B0144640F62072C2F20002127888
:1041000032B1002046F2AA16268001B0F0BD00BFF1
:104110000D46064601F074FC16B341F24421C2F28A
:1041200000010968B1421BD096F8347001F06CFCB4
:10413000072F1DD101F064FC074600203146002204
:104140000026FDF707FC384601F05EFC28B2002887
:1041500014D4FDF709F801200026268001B0F0BD37
:1041600001F052FC002046F2AC16268001B0F0BDF2
:10417000002046F2AB16268001B0F0BD012026805B
:1041800001B0F0BD13460022AFF300802DE9F041ED
:1041900082B01E4614468846054601F031FC41F2C5
:1041A0004421C2F200010F680021002D18BF2F46E4
:1041B0003C64318097F836100546072938D801202D
:1041C000884010F0330F0BD0786C441C28D328465D
:1041D00001F01AFC46F6C550308000241AE000BFFA
:1041E00097F83400072819D100203946002200230F
:1041F0000094FEF795FB7C6C284601F005FC0FFA55
:1042000088F0002806D4FCF7AFFF204602B0BDE8D6
:10421000F08100BF204602B0BDE8F081786C441CFC
:1042200028467C6401F0F0FB204602B0BDE8F08136
:10423000284601F0E9FB46F62A600024308020463B
:1042400002B0BDE8F08100BF70B5144640F62072A0
:10425000C2F2000212782AB1002546F6C65128465D
:10426000218070BD0E46054601F0CAFB41F2442193
:10427000C2F200010968002D18BF29464D6C4E643A
:1042800001F0C2FB00212846218070BD2DE9F041DC
:10429000904640F62072C2F2000212781C462AB103
:1042A00047F258102080BDE8F08100BF0E46074657
:1042B000002946F2D52018BFB8F1000F02D12080A6
:1042C000BDE8F08101F09CFB41F24421C2F2000103
:1042D0000D68002F18BF3D46296869B1AF8F01F006
:1042E00093FBF80714D10021316047F25410C8F84D
:1042F00000102080BDE8F08101F086FB00213160D4
:1043000047F25210C8F800102080BDE8F08100BFCD
:10431000696A086850B100203060A96B091A002052
:10432000C8F800102080BDE8F08100BF002001EB3C
:104330008002536843B9936843B9D36843B912699B
:104340000430002AF3D0E7E70130E5E70230E3E785
:104350000330E1E770B540F62072C2F20002127835
:104360000E461AB147F25C10308070BD044640F62C
:104370006060C2F2000084421AD001F041FB41F2B9
:104380004421C2F200010968002C08BF0C468C428F
:10439000054611D141F23920C2F20000007858B12F
:1043A000284601F031FB46F66350308070BD00BFF7
:1043B00047F25A10308070BD0020308094F83600EB
:1043C000072809D8DFE800F01020222404040404A0
:1043D00094F8800001301FE0284601F015FB46F6F6
:1043E0002A60308070BD00BF042084F836000120B0
:1043F00084F880002046FEF753FE284601F004FBB7
:10440000BDE87040FCF7B0BE052002E0062000E0E9
:10441000072084F83600012084F88000284601F047
:10442000F3FABDE87040FCF79FBE00BF70B51446BC
:1044300040F62072C2F2000212781AB146F6C65057
:10444000208070BD0D46064601F0DAFA41F24421A3
:10445000C2F20001096841F23C22002E18BF314629
:10446000C2F200028B6D1268002D18BF2A469A42D4
:104470004A6588BF8A6501F0C7FA0020208070BDB8
:1044800041F25021C2F2000100220A6041F254219F
:10449000C2F200010A8041F24C21C2F200010A601E
:1044A0000280704780B582B041F24420C2F2000021
:1044B000006801F031FA0DF106010020FFF762FA01
:1044C00002B080BD82B041F238266C460DF106057F
:1044D000C2F200060020002122462B46FFF76EFDA7
:1044E000BDF806000028F5D130780128F2D100F09F
:1044F00001F8EFE72DE9F04701F082FA41F2582682
:10450000C2F2000645F6E4223168C0F600021288C5
:104510000131B1FBF2F3804603FB121240F648333F
:10452000C2F2000353F832703160002F00F0828035
:1045300000244FF440794FF0040A12E0D5E9051247
:104540000029516118BF8A618188C5E90544013994
:10455000EC61EC64818085F836A0A5F83490002FDA
:1045600068D097F836003D467F6901380628F6D8AE
:10457000DFE800F00604120424043800EFE700BF6F
:10458000E86C3168401A286554D1284685F83640D1
:10459000FDF7C8FDE3E700BFE86C3168401A286505
:1045A00048D12846EC65A5F860402C64FDF7BAFCBC
:1045B0002846FDF7B7FD85F83640CEE7E86C316850
:1045C000401A286536D1E86985F836A00028C6D09B
:1045D00001682C65A94221D0A969002F4F6118BF3D
:1045E000B9611FE0E86C3168401A286522D128467D
:1045F000EC65A5F860402C64FDF794FCE8690028A0
:10460000A9D001682C65A9427FF498AF6969002997
:1046100001603FF499AF00228A6195E707600FB10E
:104620000021B9618188C5E905440139EC61EC6478
:10463000818094E74046BDE8F04701F0E5B900BF4E
:1046400010B58AB0044641F25820C2F200000021A1
:10465000016045F6E420C0F60000008841F22032F7
:10466000C2F20002116030B1C10040F64830C2F21F
:10467000000001F0DDF945F6D420C0F60000007816
:104680003F2805D346F2732020800AB010BD00BF3A
:1046900045F6DC2245F6D821C0F6000245F6E023B7
:1046A000C0F600011268C0F600030968D3F800C024
:1046B0000894032300248DE8070041F2602044F2AF
:1046C000C542CDE90643C2F2000006A1C0F60002D1
:1046D0000023CDE90444CDF80CC0FFF727F80AB059
:1046E00010BD00BF75432F4F532D494949205469D0
:1046F000636B205461736B0080B545F6E420C0F60F
:1047000000000088002808BF80BDC10040F6483086
:10471000C2F2000001F08CF980BD00BFF0B5042AA0
:104720000ED141F25822C2F2000212684FF6FE7713
:104730008E1AF519BD4219D9C0E9131626E000BF3B
:10474000A1B1082A1AD141F25822C2F20002876CA4
:1047500012680F44D6433E448E4228BF5718B91AF8
:10476000C0E912770165394610E000BF0027C0E9B3
:10477000137747F27E22C7611A80F0BD41F25822BA
:10478000C2F20002126801651144C16445F6E427D3
:10479000C0F600073F88B1FBF7F606FB171140F69D
:1047A0004837C2F2000707EBC107BC463CF804EFEC
:1047B000BEF1000F2CD03C68002C3CD0E16C891A73
:1047C0002165056D8D422AD965692646DDB1E96C02
:1047D000891A2965046D8C4220D96C692E4694B1E2
:1047E000E16C891A2165056D8D4218D965692646E7
:1047F0004DB1E96C891A2965046D8C420ED96C693A
:104800002E46002CDAD10021C0E90516706112E0B5
:104810000021C0E90511386001220EE02C46A26992
:1048200022B1C0E905425061A06104E00021C0E965
:104830000541A06138600EF10102394631F8066F7A
:1048400095B2AE42ACF8002038BF0A800022C761A2
:104850001A80F0BDC169002908BF70470A680023AB
:104860008242036506D0D0E90523002A5A6118BFA9
:10487000936104E042690A600AB1002393618B8866
:104880000022C0E90522C261C264581E88807047B8
:1048900080B545F6E420C0F60000008850B3411E04
:1048A00040F6483C00F0030E00220329C2F2000C3F
:1048B0004FF000030DD3ACF1200120F003000023E2
:1048C0000433CA84CA85CA86CA87984201F1200186
:1048D000F6D1BEF1000F08BF80BD0CEBC300002174
:1048E000BEF1010FC18005D0BEF1020FC1811CBF16
:1048F0000021C18280BD00002DE9F041144640F640
:104900002072C2F20002127822B147F27520208094
:10491000BDE8F081064641F23920C2F2000000787D
:1049200020B146F663502080BDE8F0810D4608298D
:1049300026D8DFE805F005250525062525250500EF
:10494000C6B101F05DF841F24428C2F20008074602
:10495000D8F80000012180F8361031462A46234657
:10496000FFF7DCFE208888B13846BDE8F04101F051
:104970004BB800BF47F27E202080BDE8F08100BF29
:1049800045F625602080BDE8F08100BFD8F8000022
:10499000FEF786FB384601F037F8FCF7E5FB002010
:1049A0002080BDE8F08100BF2DE9F04140F620777E
:1049B000C2F200073F78079C27B147F2752020809C
:1049C000BDE8F08141F23927C2F200073F782FB1EC
:1049D00046F663502080BDE8F08100BF069F07F0D7
:1049E0000E05082D14D8DFE805F0051305130F1385
:1049F0001313050041EA000616431E4304D147F293
:104A00007E202080BDE8F0816FF01E06374205D081
:104A100045F625602080BDE8F08100BFFF0607D481
:104A2000B3F57A7F10D347F27B202080BDE8F08178
:104A300042F21077B94211D2B0F57A7F16D347F21D
:104A400078202080BDE8F0813C2A05D347F27A2007
:104A50002080BDE8F08100BF3C2905D347F27920D2
:104A60002080BDE8F08100BF6428E8D245F6D02759
:104A7000C0F600073F684FF4FA76B6FBF7F6C1EBD5
:104A80000111334444F6D3567B43C1F26206A3FBC3
:104A900006364FF46163584300EB810010447843BD
:104AA00000EB9617002FAAD000F0AAFF41F244288D
:104AB000C2F200080646D8F80000012180F836103E
:104AC00039462A462346FFF729FE208820B1304682
:104AD000BDE8F04100F098BFD8F80000FEF7E0FA1A
:104AE000304600F091FFFCF73FFB00202080BDE83E
:104AF000F08100BFF0B581B040F62072C2F2000232
:104B000012780C4622B147F27620208001B0F0BD29
:104B10000646B8B100F074FF96F83610054607292E
:104B200022D80120884010F0DD0F11D047F2511734
:104B3000284600F069FF278001B0BDE8F040FCF78F
:104B400013BB00BF47F25110208001B0F0BD00BF81
:104B500001290DD10027304686F83670FFF77AFE1E
:104B60003046FEF709FAE3E746F62A67E0E700BFBA
:104B7000042086F836003046FFF76CFE47F25917DE
:104B8000D6E700BFB0B5044600F03AFF41F2582125
:104B9000C2F200010D6800F037FF00212846218095
:104BA000B0BD00BFB0B50C46054600F029FF41F28C
:104BB0005821C2F200010D6000F026FF0020208085
:104BC000B0BD00BF80B582B000F00CFF41F26020A4
:104BD000C2F200000DF106020021FFF7D3FA40F601
:104BE0002C70C2F20000007840F6387100EB4000F3
:104BF000C2F2000101EB8000FEF786FA41F2FC30C0
:104C0000C2F2000001680139016001D002B080BD2C
:104C100041F2F831C2F2000109680DF106020160AB
:104C200041F23030C2F200000021FFF7ABFA02B0CF
:104C300080BD00002DE9F04F81B00D4640F6207197
:104C4000C2F200010978DDF8348039B147F243300F
:104C5000A8F8000001B0BDE8F08F00BF044688B19D
:104C6000DDF828901E461746B9F1010F12D0B9F1B0
:104C7000020F41D17EB947F24030A8F8000001B0E0
:104C8000BDE8F08F45F6C350A8F8000001B0BDE8BC
:104C9000F08F00BFC7B3DDE90BBA00F0B1FE012110
:104CA00084F82A1044F65451C2F2520184E82208D2
:104CB00041F22431C2F200010A680023C4E90876F7
:104CC000A4F82890C4E903A3C4E90533E361002AEA
:104CD000E36218BFD462226341F22832C2F20002BA
:104CE00013880C60591C118000F08EFE0020A8F87B
:104CF000000001B0BDE8F08F45F62560A8F800007F
:104D000001B0BDE8F08F00BF47F23F30A8F80000C7
:104D100001B0BDE8F08F00BF41F22431C2F20001C2
:104D20000A680023002AC36218BFD06202630860C9
:104D3000704700BFF0B581B040F62072C2F20002A9
:104D400012780C4632B1002647F2433730462780AE
:104D500001B0F0BD0546D8B1286844F65451C2F2FE
:104D6000520188421CD10DF10200FCF741FA29469C
:104D700051F82C3F084650F8042FCBB1002A0FBF42
:104D800003F130021A63D3620246084617E000BFFF
:104D9000002647F242373046278001B0F0BD00BF01
:104DA000002645F6C4573046278001B0F0BD00BF4D
:104DB00041F22431C2F200010A6012B12C3200210A
:104DC000116041F22831C2F200010A880026013A3E
:104DD0000A8095F82A10066003291FD847F23D374C
:104DE000DFE801F03E2B022B45F6F821C0F600016A
:104DF000A8690988B0FBF1F202FB110040F6D0511E
:104E0000C2F2000151F83020AA420BD0D5E90423A8
:104E1000002A1A6118BF53610AE000BF002647F25A
:104E200041371DE02A6941F830200AB1002353615F
:104E300001EBC00081880139818044F64E7045F64F
:104E40002631C4F24E50C0F6000100272860696088
:104E500005F10800222185F82A7000F0E9FD0126FD
:104E60000DF10200FCF7F0F93046278001B0F0BDEB
:104E700050F82C3F014651F8042F4BB1002A0FBFC8
:104E800003F130021A63D3620A46014607E000BF0D
:104E900041F22430C2F20000026012B12C32002034
:104EA000106000200860704745F6F822C0F6000246
:104EB0008169128840F6D05CB1FBF2F3C2F2000CBB
:104EC00003FB12115CF83120824207D0D0E9043292
:104ED000002B136118BF5A6106E000BF03694CF84C
:104EE00031300BB100225A610CEBC10101228B88D9
:104EF00080F82A20002202614261581E8880704793
:104F000080B5002180F82A1044F64E7145F626320D
:104F1000C4F24E51C0F60002E0E80212222100F075
:104F200087FD80BDF0B581B040F62072C2F200026C
:104F300012780C4632B1002547F2433728462780C5
:104F400001B0F0BD0646C8B1306844F65451C2F213
:104F5000520188421AD10DF10200FCF749F996F886
:104F60002A0003281AD800270025DFE800F0031BD9
:104F7000232C00BF002547F23D3724E0002547F2EF
:104F800042372846278001B0F0BD00BF002545F616
:104F9000C4572846278001B0F0BD00BF002547F266
:104FA000413710E0308D356A022804BF002D756A44
:104FB00007E000BF41F2F431C2F20001B0690968B4
:104FC000451AF56100270DF10200FCF73DF928466E
:104FD000278001B0F0BD00BFF0B581B040F620726F
:104FE000C2F2000212780C4632B1002647F2433773
:104FF0003046278001B0F0BD054600286AD02868F9
:1050000044F65451C2F2520188426BD10DF10200B4
:10501000FCF7EEF895F82A00002603286AD847F234
:105020003D37DFE810F0180105006B00050000BFF8
:105030000221286A85F82A1041F2F431C2F20001F7
:10504000002808BF686A0E6840F6D057331845F646
:10505000F820C0F600000088C2F20007B3FBF0F1B0
:10506000AB6101FB103257F8321007EBC200002988
:105070005ED09A1BEA618A69921BCA61EB6993420E
:1050800040F2BB800A690B46F2B19169891BD1617C
:10509000EB698B4240F2AE8011691346A1B18A6977
:1050A000921BCA61EB69934240F2A7800F690B46DD
:1050B00057B1B969891BF961EA698A4240F29C805B
:1050C00039693B460029D6D1002103F11002C5E918
:1050D0000413A0E0002647F242373046278001B093
:1050E000F0BD00BF002645F6C4573046278001B00A
:1050F000F0BD00BF47F24137ADE000BF45F6F820F4
:10510000C0F60000A9690088B1FBF0F202FB1011A3
:1051100040F6D052C2F2000252F83130AB420FD00A
:10512000D5E90437002B3B6118BF5F610EE000BF7B
:105130000021C5E9041147F83250012182E000BF87
:105140002B6942F831300BB100275F6102EBC101DE
:105150008F8800232B616B617B1E8B800223296A61
:1051600085F82A3041F2F433C2F20003002908BF67
:10517000696A1E687718B7FBF0F1AF6101FB107325
:1051800052F8331002EBC30061B3BA1BEA618A69BB
:10519000921BCA61EB69934243D90B690A46DBB1A2
:1051A0009969891BD961EA698A4237D919691A460E
:1051B00091B18A69921BCA61EB69934231D90F6937
:1051C0000A464FB1B969891BF961EA698A4227D950
:1051D00039693A460029DAD1002102F11003C5E904
:1051E00004122CE00021C5E9041142F833500121DA
:1051F00028E000BF114600E039460A4652F8143F45
:1052000023B1C5E904131D6105E000BF0022C5E913
:1052100004124D6102468188156012E0194600E0D3
:1052200039460B4653F8142F22B1C5E90412156113
:1052300005E000BF0022C5E904124D6103468188E4
:105240001D600131818030F8062F8BB29A4238BF41
:105250000180012600270DF10200FBF7F5FF304623
:10526000278001B0F0BD00BF10B50222012980F8EF
:105270002A2001D0016A01B9416A41F2F432C2F236
:105280000002D2F800E040F6D0540EEB010345F6E0
:10529000F821C0F600010988C2F20004B3FBF1F264
:1052A000836102FB113254F8321004EBC20C89B353
:1052B000A3EB0E02C2618A69A2EB0E02CA61C36946
:1052C000934230D90A690B46F2B19169A1EB0E0104
:1052D000D161C3698B4225D911691346A1B18A698D
:1052E000A2EB0E02CA61C36993421CD90A690B463C
:1052F00052B19169A1EB0E01D161C3698B4211D901
:10530000116913460029D6D1002103F11002C0E92A
:10531000041316E00021C0E9041144F83200012012
:1053200013E000BF11460A4652F8143F23B1C0E90A
:105330000413186105E000BF0022C0E904124861AF
:105340006246BCF804101060481CACF804003CF83D
:10535000061F82B2914238BFACF8000010BD00BFFA
:10536000B0B540F62072C2F2000212780C462AB1A3
:1053700047F2433020800020B0BD00BF0546A8B1F1
:10538000286844F65451C2F25201884214D100F008
:1053900037FB95F82A5047F24131042D38BF0021E0
:1053A000218000F031FB2846B0BD00BF47F24230FB
:1053B00020800020B0BD00BF45F6C45020800020F2
:1053C000B0BD00BFF0B581B0164640F62072C2F203
:1053D000000212781C462AB147F243302080002098
:1053E00001B0F0BD0546E8B10F46286844F65451B7
:1053F000C2F2520188421BD10DF10200FBF7F8FE08
:1054000095F82A00032819D8DFE800F022022C02C0
:105410000DF10200FBF718FF47F247302080012012
:1054200001B0F0BD47F242302080002001B0F0BD55
:1054300045F6C4502080002001B0F0BD0DF10200FF
:10544000FBF702FF47F241302080002001B0F0BDA1
:105450000DF10200FBF7F8FE47F23D3020800020FE
:1054600001B0F0BD45F6F821C0F60001A869098831
:10547000B0FBF1F202FB110040F6D051C2F2000184
:1054800051F83020AA4207D0D5E90423002A1A6136
:1054900018BF536106E000BF2A6941F830200AB105
:1054A0000023536101EBC0008188012285F82A2086
:1054B000002201392A616A6181802280EFB1042FC4
:1054C00008D0032F0CD1AA68A2B1E96828469047FA
:1054D00013E000BFAA686AB12846314690470CE045
:1054E0000DF10200FBF7B0FE45F62560208000209C
:1054F00001B0F0BD47F2443020800DF10200FBF70F
:10550000A3FE012001B0F0BD10B58AB0044641F2FF
:105510002430C2F200000021016045F6E820C0F608
:10552000000045F6D0220068C0F60002126800288C
:1055300008BF0A20B2FBF0F041F2F832C2F20002DA
:10554000106041F2FC32C2F20002106041F2F4300D
:10555000C2F20000016045F6F820C0F600000088A5
:1055600041F2F032C2F20002116030B1C10040F6E7
:10557000D050C2F2000000F05BFA45F6EC20C0F615
:105580000000006858B145F6F42145F6CC22C0F67B
:105590000001C0F6000209681268914204D247F285
:1055A000463020800AB010BD45F6E622C0F6000263
:1055B00012783F2A04D346F2732020800AB010BD2F
:1055C00045F6F023C0F600031B68CDE9002041F248
:1055D000303045F2196208944FF0030C0024CDE9F5
:1055E0000231C2F2000006A1C0F600020023CDE99C
:1055F00004440694CDF81CC0FEF798F80AB010BD1C
:1056000075432F4F532D4949492054696D657220C8
:105610005461736B0000000082B045F6F820C0F6BC
:105620000000068841F2F43940F6D05B4FF0000AE2
:105630000DF10604C2F20009C2F2000B05E000BF42
:105640000DF106042046FBF7FFFD002000216A460D
:105650002346FEF7B3FC2046FBF7CAFDD9F800004D
:10566000411CB1FBF6F0C9F8001000FB16105BF806
:10567000300028B9E4E700BFB8F1000F4046DFD0A2
:105680008169D9F800508D42DAD1B5FBF6F1D0F836
:10569000108001FB16515BF83120824208D042692C
:1056A000B8F1000FC2F8108018BFC8F8142007E046
:1056B000B8F1000F4BF8318002D00022C8F8142056
:1056C000028D0BEBC101022A8A88C0F810A0A2F15A
:1056D0000102C0F814A08A803AD1416A4F19B7FB81
:1056E000F6F2876102FB1673022280F82A205BF82B
:1056F00033200BEBC3078AB3C1619169491BD161A8
:10570000C3698B4231D911691346D9B18A69521BD9
:10571000CA61C369934227D90A690B4692B191695C
:10572000491BD161C3698B421FD9146913464CB11F
:10573000A169491BE161C2698A421FD922692346D6
:10574000002ADAD103F11001C0E904A320E000BF70
:10575000032180F82A10826842BB8DE7C0F814A0AC
:105760004BF83300012216E00A46114651F8143F67
:1057700053B1C0E9042318610AE000BF2246114674
:1057800051F8143F002BF4D1C0E9042A5061394686
:10579000BA8808600132BA8037F8061F93B299427E
:1057A00038BF3A808268002A3FF466AFC1689047EC
:1057B00062E700BF80B545F6F820C0F6000000881B
:1057C00050B3411E40F6D05C00F0030E00220329C6
:1057D000C2F2000C4FF000030DD3ACF1200120F019
:1057E000030000230433CA84CA85CA86CA87984244
:1057F00001F12001F6D1BEF1000F08BF80BD0CEB16
:10580000C3000021BEF1010FC18005D0BEF1020F1F
:10581000C1811CBF0021C18280BD000018484FF02B
:10582000FF010170002080F309881648016881F3A8
:10583000088815484FF08051016062B6FEE772B6E5
:10584000EFF3098028B1203880E8F00F0F4909688C
:10585000086000B50E4880475DF804EB0D480E491E
:105860000A78027009480D490A680260106890E8D9
:10587000F00F203080F309884EF0040E62B67047B6
:1058800022ED00E01C14002004ED00E04412002092
:10589000995900082C0F00202D0F002048120020DD
:1058A00041F20040C2F200000068002808BF7047C3
:1058B000004700BF45F6B02045F6B421C0F6000011
:1058C000C0F600010068096800EB810041F21C414C
:1058D0000438C2F200010860704700BF41F2044082
:1058E000C2F200000068002808BF7047004700BFF0
:1058F00041F20841C2F200010968002908BF70475F
:10590000084700BF41F20C41C2F2000109680029BA
:1059100008BF7047084700BF41F21041C2F20001C2
:105920000968002908BF7047084700BF70B5DDF857
:1059300010E0844602EB8E004FF0043240F8402D18
:1059400044F2A5424FF00236C0F60002C0E9093623
:1059500000F134034FF0807E4FF012344FF00335E6
:1059600083E804504FF006324FF00533C0E90B5482
:105970004FF0113C4FF00734C0E9013200F10C0246
:105980004FF0103E4FF009364FF0083582E8704076
:10599000C0E907C170BD00BF80B541F21440C2F23A
:1059A00000000068002818BF804741F24420C2F27E
:1059B0000000016841F24820C2F200000068814204
:1059C0000BD001F18C0C9CE80C105242C1F88820DD
:1059D000D2184CF10003C1E924230021C0F88C1037
:1059E00080BD00BF41F21840C2F2000000680028EC
:1059F00008BF70470047000072B6704762B6704734
:105A0000EFF3108072B6704780F310887047B0FAD9
:105A100080F0704790FAA0F0704730BF704720BF09
:105A20007047D2B201E000F8012B491EFBD270474B
:105A30000022F6E710B513460A4604461946FFF75A
:105A4000F0FF204610BD0000064C074D06E0E06860
:105A500040F0010394E8070098471034AC42F6D3B5
:105A6000FAF748FB2C5B00084C5B000802E008C812
:105A7000121F08C1002AFAD170477047002001E0C8
:105A800001C1121F002AFBD1704702040608000062
:105A900000000000000001020304060708090000DE
:105AA00000000102030401020304060708090000C4
:105AB000080000208000000008020020060000000E
:105AC00040000000080300206400000040000000C7
:105AD000E80300000A000000480900200C00000054
