:020000040800F2
:100000006806002089010008D1030008C903000820
:10001000CD030008430200086D0600080000000040
:100020000000000000000000000000009D04000827
:10003000470200080000000059040008F505000808
:10004000D9060008A3010008A3010008A3010008C5
:10005000A3010008A3010008A3010008A3010008F0
:10006000A3010008A3010008A3010008A3010008E0
:10007000A3010008A3010008A3010008A3010008D0
:10008000A3010008A3010008A3010008A3010008C0
:10009000A3010008A3010008A3010008A3010008B0
:1000A000A3010008A3010008A3010008A3010008A0
:1000B000A3010008A3010008A3010008A301000890
:1000C000A3010008A3010008A3010008A301000880
:1000D000A3010008A3010008A3010008A301000870
:1000E000A3010008A3010008A301000800F002F822
:1000F00000F03AF80AA090E8000C82448344AAF188
:100100000107DA4501D100F02FF8AFF2090EBAE885
:100110000F0013F0010F18BFFB1A43F0010318473B
:10012000E406000004070000103A24BF78C878C134
:10013000FAD8520724BF30C830C144BF04680C60ED
:10014000704700000023002400250026103A28BF35
:1001500078C1FBD8520728BF30C148BF0B60704739
:100160001FB51FBD10B510BD00F031F81146FFF7E7
:10017000F7FF00F0F7FA00F04FF803B4FFF7F2FFD3
:1001800003BC00F057F800000948804709480047C1
:10019000FEE7FEE7FEE7FEE7FEE7FEE7FEE7FEE737
:1001A000FEE7FEE704480549054A064B7047000094
:1001B0000D060008ED000008680000206806002019
:1001C000680200206802002070477047704775463B
:1001D00000F02CF8AE4605006946534620F00700B3
:1001E000854618B020B5FFF7DDFFBDE820404FF091
:1001F00000064FF000074FF000084FF0000B21F011
:100200000701AC46ACE8C009ACE8C009ACE8C009DD
:10021000ACE8C0098D46704710B50446AFF30080C6
:100220002046BDE81040FFF7A8BF00000048704717
:100230000800002001491820ABBEFEE7260002009E
:10024000704700BFFEE770470B4908604FF0E021A0
:10025000096941F001014FF0E022116100BF064938
:1002600009680029FBD14FF0E021096921F0010163
:100270004FF0E022116170470000002008B5012115
:10028000102000F0FBF84FF40050ADF80000032000
:100290008DF8020010208DF803006946014800F037
:1002A00003F808BD001001402DE9F0410246002589
:1002B0000026002000230024002791F803C00CF042
:1002C0000F0591F803C00CF0100CBCF1000F03D027
:1002D00091F802C04CEA050591F800C0BCF1000F8E
:1002E00031D0146800202BE04FF0010C0CFA00F321
:1002F000B1F800C00CEA03069E4220D183004FF003
:100300000F0C0CFA03F7BC4305FA03FC4CEA040497
:1003100091F803C0BCF1280F06D14FF0010C0CFA84
:1003200000FCC2F814C00AE091F803C0BCF1480F09
:1003300005D14FF0010C0CFA00FCC2F810C0401CB3
:100340000828D1D31460B1F800C0BCF1FF0F34DD30
:10035000546800202EE000F1080C4FF0010808FA64
:100360000CF3B1F800C00CEA03069E4221D18300D1
:100370004FF00F0C0CFA03F7BC4305FA03FC4CEAF0
:10038000040491F803C0BCF1280F05D100F1080C5A
:1003900008FA0CF8C2F8148091F803C0BCF1480FB9
:1003A00007D100F1080C4FF0010808FA0CF8C2F868
:1003B0001080401C0828CED35460BDE8F0810AB1FB
:1003C000016100E04161704700BFFEE700BFFEE74A
:1003D0007047000070B5002100230F22C47804B3D9
:1003E000154C246804F4E064C4F5E064210AC1F10A
:1003F0000403CA40447804FA03F18478144021438A
:1004000009010E4C0678A155047804F01F0501245B
:10041000AC4005786D11AD0005F1E025C5F800414F
:1004200009E0047804F01F050124AC40044D06786F
:10043000761145F8264070BD0CED00E000E400E0C8
:1004400080E100E002490143024A11607047000068
:100450000000FA050CED00E07047000029B1064AE3
:10046000D2690243044BDA6104E0034AD269824351
:10047000014BDA61704700000010024029B1064AC2
:1004800092690243044B9A6104E0034A92698243F1
:10049000014B9A617047000000100240704710B590
:1004A00000F002F810BD00000CB500200190009093
:1004B0003348006840F480303149086000BF30485C
:1004C000006800F4003000900198401C01900098F2
:1004D00018B90198B0F5A06FF1D12948006800F46F
:1004E000003010B10120009001E000200090009841
:1004F000012843D12348006840F0100021490860DA
:100500000846006820F0070008600846006840F0D0
:10051000020008601A484068194948600846406867
:1005200048600846406840F480604860084640687B
:1005300020F47C1048600846406840F4E8104860A9
:100540000846006840F08070086000BF0C480068F2
:1005500000F000700028F9D00948406820F003003E
:10056000074948600846406840F00200486000BF04
:100570000348406800F00C000828F9D10CBD0000C9
:10058000001002400020024030B500BF4821B1F108
:10059000807F01D301201DE021F07F40401E4FF0FD
:1005A000E022506150170F22002807DA13071D0EB2
:1005B0000E4B00F00F04241F1D5503E013071C0E03
:1005C0000B4B1C5400BF00204FF0E022906107202D
:1005D000106100200028D9D14FF0E020006920F000
:1005E00001004FF0E021086130BD000018ED00E08F
:1005F00000E400E00448006820B103480068401EA1
:1006000001490860704700000000002010B5134841
:10061000006840F001001149086008464068104930
:1006200008400E494860084600680E4908400B49DA
:1006300008600846006820F480200860084640688A
:1006400020F4FE0048604FF41F008860FFF727FF8A
:100650004FF000600449086010BD00000010024027
:100660000000FFF8FFFFF6FE08ED00E000BFFEE728
:100670000020014908607047082C004070B504460E
:100680000D4616460121C802FFF7E8FE0A48007829
:10069000204009490870304600F044F8284600F030
:1006A0004DF800F023F80448007800F007F8FFF751
:1006B000DFFF00F00BF870BD0400002040F0800167
:1006C000014A116070470000002C004001200149E0
:1006D00008607047A480054210B50348007800F018
:1006E00019F8FFF7C5FF10BD0400002008B54FF44E
:1006F000C060FFF7A7FE00208DF800008DF8010014
:100700008DF8020001208DF803006846FFF762FEB5
:1007100008BD000000F07F01014A11607047000031
:10072000002C00400021044A126822F4C0710143E9
:10073000014A116070470000042C004008B50021F8
:1007400000910749096821F07F01009100F07F01C5
:10075000009A11430091024A0099116008BD0000FF
:10076000042C0040FFF710FFFFF788FD00224FF434
:1007700000512148FFF723FE2048FFF765FD0122C5
:1007800051031D48FFF71BFE1C48FFF75DFD0022CB
:100790004FF400511848FFF712FE1848FFF754FDB8
:1007A000012251031448FFF70AFE1448FFF74CFDDD
:1007B0004FF480725F217F20FFF760FF43F698209F
:1007C000FFF742FD0E480078FFF7A4FF12E0002279
:1007D0004FF400510848FFF7F2FD4CF25030FFF79C
:1007E00033FD012251030448FFF7E9FD4CF250307C
:1007F000FFF72AFDEBE700000010014040420F0028
:100800000400002024080008000000200800000068
:10081000280100082C0800080800002060060000DD
:0C08200044010008000000007F00000000
:04000005080000ED02
:00000001FF
