:020000040800F2
:1000000068060020890100088B050008AF0300087E
:10001000870500084302000881070008000000006F
:10002000000000000000000000000000B105000812
:1000300047020008000000008D05000809070008BD
:10004000A3010008A3010008A3010008A301000800
:10005000A3010008A3010008A3010008A3010008F0
:10006000A3010008A3010008A3010008A3010008E0
:10007000A3010008A3010008A3010008A3010008D0
:10008000A3010008A3010008A3010008A3010008C0
:10009000A3010008A3010008A3010008A3010008B0
:1000A000A3010008A3010008A3010008A3010008A0
:1000B000A3010008A3010008A3010008A301000890
:1000C000A3010008A3010008A3010008A301000880
:1000D000A3010008A3010008A3010008A301000870
:1000E000A3010008A3010008A301000800F002F822
:1000F00000F03AF80AA090E8000C82448344AAF188
:100100000107DA4501D100F02FF8AFF2090EBAE885
:100110000F0013F0010F18BFFB1A43F0010318473B
:100120007806000098060000103A24BF78C878C10D
:10013000FAD8520724BF30C830C144BF04680C60ED
:10014000704700000023002400250026103A28BF35
:1001500078C1FBD8520728BF30C148BF0B60704739
:100160001FB51FBD10B510BD00F031F81146FFF7E7
:10017000F7FF00F007FB00F04FF803B4FFF7F2FFC2
:1001800003BC00F057F800000948804709480047C1
:10019000FEE7FEE7FEE7FEE7FEE7FEE7FEE7FEE737
:1001A000FEE7FEE704480549054A064B7047000094
:1001B00021070008ED000008680000206806002004
:1001C000680200206802002070477047704775463B
:1001D00000F02CF8AE4605006946534620F00700B3
:1001E000854618B020B5FFF7DDFFBDE820404FF091
:1001F00000064FF000074FF000084FF0000B21F011
:100200000701AC46ACE8C009ACE8C009ACE8C009DD
:10021000ACE8C0098D46704710B50446AFF30080C6
:100220002046BDE81040FFF7A8BF00000048704717
:100230000400002001491820ABBEFEE726000200A2
:10024000704700BFFEE770470B4908604FF0E021A0
:10025000096941F001014FF0E022116100BF064938
:1002600009680029FBD14FF0E021096921F0010163
:100270004FF0E02211617047000000202DE9F041AD
:10028000024600250026002000230024002791F8C4
:1002900003C00CF00F0591F803C00CF0100CBCF17A
:1002A000000F03D091F802C04CEA050591F800C098
:1002B000BCF1000F31D0146800202BE04FF0010C8E
:1002C0000CFA00F3B1F800C00CEA03069E4220D1FC
:1002D00083004FF00F0C0CFA03F7BC4305FA03FC44
:1002E0004CEA040491F803C0BCF1280F06D14FF08A
:1002F000010C0CFA00FCC2F814C00AE091F803C02B
:10030000BCF1480F05D14FF0010C0CFA00FCC2F80B
:1003100010C0401C0828D1D31460B1F800C0BCF153
:10032000FF0F34DD546800202EE000F1080C4FF080
:10033000010808FA0CF3B1F800C00CEA03069E426B
:1003400021D183004FF00F0C0CFA03F7BC4305FAE0
:1003500003FC4CEA040491F803C0BCF1280F05D15A
:1003600000F1080C08FA0CF8C2F8148091F803C0E8
:10037000BCF1480F07D100F1080C4FF0010808FA52
:100380000CF8C2F81080401C0828CED35460BDE899
:10039000F0810246002093680B400BB1012000E081
:1003A000002070470AB1016100E04161704700BF61
:1003B000FEE7000008B50121082000F0E9F8C020A0
:1003C000ADF8000010208DF8030003208DF8020026
:1003D00069460448FFF752FF0022C0210148FFF799
:1003E000E1FF08BD000C014010B51148006820F085
:1003F00070400F4908600846006840F040500860AF
:10040000012280210A48FFF7CDFF01224021084840
:10041000FFF7C8FF0520FFF717FF002280210448DF
:10042000FFF7C0FF002240210148FFF7BBFF10BDCE
:10043000000C014010B51348006820F070401149CD
:1004400008600846006840F04050086000228021A3
:100450000C48FFF7A7FF012240210A48FFF7A2FF3F
:100460000520FFF7F1FE012280210648FFF79AFFE1
:10047000002240210348FFF795FF42F21070FFF77A
:10048000E3FE10BD000C014070B50446174800683B
:1004900020F07040154908600846006840F0405060
:1004A000086000251FE004F0800028B101228021AF
:1004B0000E48FFF777FF04E0002280210B48FFF78A
:1004C00071FF002240210948FFF76CFF0122402103
:1004D0000648FFF767FF002240210448FFF762FF4C
:1004E0006006040E6D1C082DDDD370BD000C0140AC
:1004F00010B500241248006820F0704010490860D0
:100500000846006840F080400860012240210C4805
:10051000FFF748FF07E0641CB4F5FA7F03D9FFF743
:1005200089FF012010BD80210548FFF732FF002818
:10053000F1D1002240210248FFF734FF0020F1E70B
:10054000000C01402DE9F0410446200341F238310E
:10055000B0FBF1F505F47060060AEFB2FFF744FF57
:10056000C020FFF791FFFFF7C3FF3046FFF78CFF76
:10057000FFF7BEFF3846FFF787FFFFF7B9FFFFF72A
:1005800059FFBDE8F08100BFFEE7704770470000EB
:1005900029B1064A92690243044B9A6104E0034A76
:1005A00092698243014B9A6170470000001002403B
:1005B000704710B500F002F810BD00000CB5002027
:1005C000019000903348006840F480303149086061
:1005D00000BF3048006800F4003000900198401CD3
:1005E0000190009818B90198B0F5A06FF1D1294891
:1005F000006800F4003010B10120009001E00020FC
:1006000000900098012843D12348006840F0100072
:10061000214908600846006820F007000860084685
:10062000006840F0020008601A48406819494860B4
:100630000846406848600846406840F4806048606A
:100640000846406820F47C1048600846406840F442
:10065000E81048600846006840F08070086000BFFD
:100660000C48006800F000700028F9D00948406884
:1006700020F00300074948600846406840F0020047
:10068000486000BF0348406800F00C000828F9D11A
:100690000CBD0000001002400020024030B500BF39
:1006A0004821B1F1807F01D301201DE021F07F407E
:1006B000401E4FF0E022506150170F22002807DA49
:1006C00013071D0E0E4B00F00F04241F1D5503E0F1
:1006D00013071C0E0B4B1C5400BF00204FF0E022F0
:1006E00090610720106100200028D9D14FF0E02050
:1006F000006920F001004FF0E021086130BD0000EA
:1007000018ED00E000E400E00448006820B1034870
:100710000068401E0149086070470000000000208A
:1007200010B51348006840F0010011490860084600
:100730004068104908400E494860084600680E4964
:1007400008400B4908600846006820F480200860D3
:100750000846406820F4FE0048604FF41F0088609F
:10076000FFF727FF4FF000600449086010BD00004C
:10077000001002400000FFF8FFFFF6FE08ED00E069
:1007800000BFFEE7FFF78AFFFFF714FE40F6B83020
:10079000FFF7D8FE00BFFEE7B80700080000002002
:1007A0000400000028010008BC0700080400002025
:0C07B00064060000440100080000000086
:04000005080000ED02
:00000001FF
